:020000040800F2
:10000000900B0020F901000835350008032800088E
:1000100009300008A9220008774C00080000000001
:10002000000000000000000000000000333A00085B
:10003000F12400080000000077360008E53B0008C6
:10004000130200081302000813020008130200083C
:10005000130200081302000813020008130200082C
:10006000130200081302000813020008130200081C
:10007000130200081302000813020008130200080C
:1000800013020008130200081302000813020008FC
:1000900013020008130200081302000813020008EC
:1000A00013020008130200081302000813020008DC
:1000B000C53C0008DD3C0008F53C000813020008C0
:1000C00013020008130200081302000813020008BC
:1000D00013020008E548000849490008A94900083A
:1000E000130200081302000813020008130200089C
:1000F000130200081302000813020008130200088C
:100100001302000813020008D53D0008130200087E
:10011000394300089943000813020008130200083D
:10012000130200081302000813020008130200085B
:1001300000F002F800F050F80AA090E8000C8244A9
:100140008344AAF10107DA4501D100F045F8AFF286
:10015000090EBAE80F0013F0010F18BFFB1A43F0A5
:10016000010318470CB400002CB40000103A24BF5F
:1001700078C878C1FAD8520724BF30C830C144BF0C
:1001800004680C607047000000230024002500264E
:10019000103A28BF78C1FBD8520728BF30C148BFEA
:1001A0000B607047662906F04B81642900F080805F
:1001B000002070471FB500F025FC0400002000213E
:1001C00005F0C4F8401C60600020002105F0A8F88C
:1001D000E0601FBD10B510BD00F040FD1146FFF7F7
:1001E000E9FF04F061FE00F0E3FF03B4FFF7F2FF64
:1001F00003BC01F051FA0000094880470948004754
:10020000FEE7FEE7FEE7FEE7FEE7FEE7FEE7FEE7C6
:10021000FEE7FEE704480549054A064B7047000023
:10022000653C00083101000890050020900B00207B
:1002300090070020900700200FB41CB5074B06AABA
:100240007B4469460090059800F071FB00206946E8
:1002500000F080FB1CBC5DF814FB000011070000DF
:1002600070B5044685690068C10601D5302600E0F6
:100270002026C00707D070BDD4E901213046904741
:10028000206A401C20626D1EF6D570BD70B5044614
:1002900085690078C00707D170BDD4E9012120200D
:1002A0009047206A401C20626D1EF6D570BD00008C
:1002B0002DE9F0410646002410687529314616A53F
:1002C00010D0AFF30080002802DA404213A507E007
:1002D00031688A0701D512A502E0490704D511A5A6
:1002E000012401E0AFF3008000210A2206F1240777
:1002F00009E0B0FBF2FCB0FBF2F302FB1C00303073
:1003000078541846491C0028F3D123462A46304623
:10031000BDE8F04100F09DB8000000002D00000095
:100320002B000000200000002DE9F0474FF0000AEC
:1003300089460446C0F820A02046E1688847002886
:1003400076D0252806D0D4E901219047206A401CA8
:100350002062F1E7E168204600258847C4F81CA028
:1003600006460027C4F818A02A2E09D0304604F00B
:1003700018FD38B304EB8708303EC8F8186019E060
:1003800059F8041B204604EB87029161E168884715
:10039000012F064618D1E069002820DA25F0200553
:1003A0001DE0D8F8180000EB800006EB4000303864
:1003B000C8F818002046E1688847064604F0F1FCBA
:1003C0000028EED1012F0AD02E2E08D12046E16858
:1003D00088477F1C0646022F45F02005C4DBA06934
:1003E000002803DA404245F00105A061E80701D08A
:1003F00025F01005B6B1A6F14100192802D8203623
:1004000045F400654A463146204625604D46FFF7D3
:10041000C9FE58B1012806D0ED1D25F0070000F1F6
:10042000080989E704E005F1040985E730468AE711
:10043000206ABDE8F08770477047704710B500F03C
:10044000E5FA006810BD10B5044600F0DFFA04605C
:1004500010BD2DE9F0470D4699469246044600F13D
:1004600024080168880604D5E06921F010012160A4
:1004700000E00120A84201DD471B00E00027A16940
:100480007A1902EB0900081AA0612078C00602D48C
:100490002046FFF7E5FE002608E0D4E901211AF81E
:1004A00006009047206A401C761C20624E45F4DB13
:1004B0002078C0060AD52046FFF7D2FE06E0D4E930
:1004C000012130209047206A401C2062381EA7F18D
:1004D0000107F4DC07E0D4E9012118F80500904792
:1004E000206A401C2062281EA5F10105F3DC20468D
:1004F000FFF7CCFE2078000602D50220BDE8F08789
:100500000120FBE770472DE9FF4F0C461E464FF0D8
:10051000FF378BB0D2E90001DDF860800A908A468F
:10052000C1F30A5505B93D46002108464FF00000C9
:10053000BAF1000F00F4400005DA00EB80004FF440
:10054000400101EA50004FEA9059B9F1010F00DD76
:10055000B9460A9850EA4A000ED044F61050A5F267
:10056000FF3545432F14B8F1000F1ED07542291EE8
:100570001EDDC9F100021CE0B8F1010F4FF00000D0
:1005800001D0302103E0F24305E02154401CB04289
:10059000FBDB30460022002121540B99C1F8088072
:1005A000C1E900200FB0BDE8F08FBD1B6D1CDEE778
:1005B0004A4600DA694206A800F0DAFA06AB93E888
:1005C000070003AB83E8070050460A9901F08CF856
:1005D0008DE80700A0F500501F3800900398002D0B
:1005E0000ADD42F21F014A460844002303A9039092
:1005F000684601F037FB09E0A0F500504A461F3875
:10060000002303A90390684601F056FB8DE807001C
:100610000004000C03D04FF0FF30410800E010460A
:10062000B8F1000F03D00022009215461EE0751E9F
:1006300005D400F0EFF9303262556D1EF9D5B3469E
:100640000122084302D000227F1C04E020783028D9
:1006500001D100227F1E002A099784D01DE0112DB0
:1006600007DA00F0D7F9303262556D1C50EA01020A
:10067000F5D1084302D00098C8B10EE00021681EF1
:1006800005E0235C625C63542254401E491C814295
:10069000F7DBAB46A81B401E0990002004F80B00B6
:1006A0000B98099AC0F80880C0E9002B7AE7112658
:1006B0004FF0000857E72DE9F04F88460446D21D59
:1006C00022F0070191B0D1E90001CDE90A0104F05F
:1006D000D4FA02460B98C00F01D02D2007E0206805
:1006E000810701D52B2002E0202101EAC000032A66
:1006F000099001D0072A05DB03464146204600F059
:10070000D7F90BE12078800601D5E06900E00620EA
:10071000B8F1650F814606D0B8F1660F18D0B8F170
:10072000670F70D131E00020B9F1110F009001DBAB
:10073000112301E009F101030AAA01A90CA8FFF79E
:10074000E2FEDDE90C70002609F10105834647E071
:1007500001204B4600904FF000470AAA01A90CA8BF
:10076000FFF7D1FEDDE90DB00C995D46002610B90A
:1007700009F101000D18B9EB050003D4C0F1FF36F3
:1007800009F10105A5EB09002BE0B9F1010F01DA30
:100790004FF001090020B9F1110F0090484601DD2A
:1007A000112300E003460AAA01A90CA8FFF7ABFE3B
:1007B000DDE90C704D4600268346207800070AD4F8
:1007C000AB4500DA5D4601A8012D04DD411911F8A1
:1007D000011C302907D04F4502DA17F1040F04DA63
:1007E000012082460FE06D1EEEE7002F02DCED1BBC
:1007F0003E4403E0781CA84200DD7D1CB81B00F1DC
:10080000010A4FF000472078000703D4AA4501DB16
:100810004FF0FF3A0021B7F1004F0DF143088DF87A
:10082000431024D002202B23002F01DA7F422D23F6
:100830000A21021EA0F1010000DC5FB197FBF1FC70
:1008400097FBF1F201FB1C7C17460CF1300C08F809
:1008500001CDEEE7A8F1010003702188090501D55B
:10086000452100E06521A0F1010800F8011C09986C
:100870000FA9A1EB0807FF1D00B10120411901EBF1
:10088000EA70A1693844081A401EA0612078C006A9
:1008900002D42046FFF7E4FC099828B1D4E90121ED
:1008A0009047206A401C20622078C00622D520464E
:1008B000FFF7D6FC1EE0002E04DBB34502DD01A8E5
:1008C000805D00E03020D4E901219047206A401C7F
:1008D0002062761CAAF101005FEA000A0AD100F04A
:1008E00091F8C0680168405CD4E901219047206A12
:1008F000401C2062281EA5F10105DCDC07E0D4E9DC
:10090000012118F8010B9047206A401C2062381E14
:10091000A7F10107F3DC2046FFF7B8FC032011B074
:1009200041E6000001694A1C02610878704700B581
:100930008FB0CDE901310021059105497944CDE918
:10094000031011466846FFF7EFFC0FB000BD000032
:10095000E5FFFFFF0A6802F8010B0A60704700001C
:100960000FB4002300B589B00CA900910B99CB609E
:10097000214B7B440693214B7B44079304236FF068
:100980000042CDE901321E4A7A446B460892024683
:10099000002005F0B7FD09B05DF814FB70B5064600
:1009A0004FF0FF3015460C46324686B00091CDE937
:1009B000010169460020049004A8FFF7D1FF024618
:1009C0000498211825B108B1084600E020462860A7
:1009D000049800280DD0002A02DD0098884208D033
:1009E0003246081B69460094CDE9010404A8FFF7CC
:1009F000B7FF06B070BD0000BB010000D3010000CE
:100A0000130100000048704750050020004870475F
:100A10003005002030B5B0F10A024FEA900E71F1B6
:100A200000034EEA817EB0EB0E0061EB91014FEACC
:100A3000101E4EEA017E10EB0E0041EB11114FEA41
:100A4000102E4EEA016E10EB0E0041EB11214FEA21
:100A5000104E4EEA014E10EB0E0041EB11414018D2
:100A600041F100014FEAD00040EA41704FEAD10164
:100A700010EB80054FEA810444EA907444EB0104D2
:100A80006D1944EB0404521BA3414FF0000348BF0F
:100A90000A3200D530BD401C41F1000130BD10B517
:100AA000044600F001F90068005D00F0010010BD8F
:100AB0002DE9F0411F46044603260168072A01F488
:100AC000006004DB08B116A505E016A503E008B137
:100AD00015A500E015A521F010002060A069C01E3A
:100AE000A0610FB1401EA0612046FFF7B9FB4FB1D6
:100AF000D4E9012138469047206A401C2062C01C7E
:100B0000206206E0206AFAE7D4E9012115F8010B1A
:100B10009047761EF8D22046FFF7B8FBBDE8F0817B
:100B20004E414E006E616E00494E4600696E660091
:100B3000426842B1016811F8013B23B1521EC0E97D
:100B40000012184670470121C160881E7047426834
:100B50005AB1C368016843B983688B4205D0491E06
:100B6000521CC0E90012002070474FF0FF30704760
:100B70002DE9F047814616468AB0354878440DC8BD
:100B80008DE80D0032487844801C03AC0DC884E821
:100B90000D0041F69B300844372190FBF1F290FBA9
:100BA000F1F5A5F1800501FB12041B3C02D564425E
:100BB000012000E00020DFF898A080460027FA44DA
:100BC000AAF1BE0A0EE0E0070AD03246684607EBFB
:100BD000470101230AEB810101F06EF88DE807005F
:100BE00064107F1C002CEED1194F7F44AE3F19E0FA
:100BF000E80715D007EB04100DF1180A90E80E0075
:100C00008AE80E00C068F04201D198190890324677
:100C1000012306A903A801F04FF803AB83E80700FE
:100C20006D10641C002DE3D14FF00103324669467C
:100C3000B8F1000F03A802D001F014F801E001F0B0
:100C40003BF8C9E90001C9F808200AB0BDE8F087FF
:100C5000D8A9000000487047300500207546FFF70E
:100C6000F9FFAE4605006946534620F00700854669
:100C700018B020B5FFF7CEFABDE820404FF00006CF
:100C80004FF000074FF000084FF0000B21F0070174
:100C9000AC46ACE8C009ACE8C009ACE8C009ACE8B7
:100CA000C0098D467047000010B5FFF7ABFE001D70
:100CB00010BD00BF994600002DE9FF4F06468BB0DE
:100CC0000878FF2806D0491C2D2805D000244FF0B5
:100CD000000908E000200CE00124F8E709EB890393
:100CE000491C00EB43090878FF28F7D114B1C9F17A
:100CF00000008146107800252C46AA4629462D285A
:100D000001D02B2804D1521C2D2813D0002082465C
:100D10008B461078FF280FD04FF0000C0A21521C90
:100D2000A5FB017804FB018105FB0C11C5194BEBF8
:100D30000104EEE70120EAE7002108464FF0000039
:100D4000BAF1000F02D000EB80004008C0F38157D9
:100D5000012F01DD4FF0FF370E9955EA040009EB32
:100D600001080BD04FF0020918F5FA7F16DA4FEAA6
:100D7000CA70002F706008DD012007E04FEACA70DA
:100D8000C6E900B00FB0BDE8F08F00203060FFF77B
:100D90003DFEC0F800901821084616E0B8F5FA7F2D
:100DA00018DD002F02DAF748784401E0F64878446D
:100DB000D0E90010C6E9001040EACA707060FFF781
:100DC00025FEC0F80090142108460FB0BDE8F04F92
:100DD00005F033BB002108464FF00000B8F10001D8
:100DE000099002DAC7F1000200E03A4601DAC8F1E0
:100DF000000106A8FFF7BCFE06AB93E8070003ABB3
:100E000083E8070044F23E005BEA04010090584684
:100E100004D144F21E012C465D460091210C0904C8
:100E2000014306D10099240444EA15442D041039E5
:100E3000009104F07F41014306D10099240244EA65
:100E400015642D020839009104F07041014306D168
:100E50000099240144EA15742D01091F009104F042
:100E60004041014306D10099A40044EA9574AD00C5
:100E7000891E009104F00041084304D100986D19C7
:100E80006441401E00904FF001033A466846B8F1B5
:100E9000000FCDE9014503A902DD00F022FF01E0CA
:100EA00000F0F5FEBAF1000F04460D4601D084F0C3
:100EB0000044002108464FF00000099940F2FF77F6
:100EC000484010F00C0F07D124F00040284303D015
:100ED000C4F30A50B84212D1FFF798FDC0F8009051
:100EE000C4F30A50B8420AD1A8487844D0E90010A7
:100EF000C6E9001004F000410843706042E7C6E90B
:100F000000543FE72DE9FF4F1F464FF0000A4FF016
:100F1000FF38454691B0D7E90146CDF83CA0FFF730
:100F200071FDC0680168405C1090B96912986D1C31
:100F30008847396A814688470028F6D1B9F1FF3FD2
:100F40000AD0002E24F4D06411DDB9F12B0F08D0A3
:100F5000B9F12D0F0BD102E0404615B013E744F470
:100F60008064B96912986D1C8847761E81466005B9
:100F700004A901D52D2000E02B20002E01F1010B4A
:100F80000DF130088DF810003FDDB9F1690F08D080
:100F9000B9F1490F05D0B9F16E0F02D0B9F14E0F7A
:100FA0001CD13B4601A8009580E85002DDE91212F1
:100FB0006FF0020005F0AAFAC11CCED10EE0B969AB
:100FC00012986D1C884781461398761E44F400746D
:100FD00005600F98401C002E0F9016DDB9F1300F00
:100FE000EDD0B9F1780F02D0B9F1580F0DD10F98AB
:100FF00001280AD13B46CDE90054DDE91212001F59
:10100000029605F081FAC11CA7D1109989453ED1FD
:1010100044F0800406E01399681CAAF1010A44F424
:1010200000740860B9696D1C1298761E88473028D4
:101030008146F0D02BE01099894505D1200603D4D4
:10104000761E44F0800418E0484603F0AAFE08B378
:10105000761E0DF123018B4544F4007408D2A9F1EA
:1010600030000BF8010B200607D5AAF1010003E0C0
:10107000200602D40AF101008246A00502D5139988
:10108000681C0860B96912986D1C88478146002E5B
:10109000D1DC53E0002E51DDB9F1650F02D0B9F17A
:1010A000450F4BD1A00549D5B9696D1C1298761E24
:1010B00024F440748847002E81460CDD2B2804D090
:1010C000B9F12D0F07D144F48074B96912986D1CE1
:1010D0008847761E8146E00501D52D2100E02B21B1
:1010E00008F8011BCDF8008021E0761E0DF13901D2
:1010F000884544F400740CD2A9F1300010F0FF00D0
:1011000088F8000002D10099884509D908F1010842
:1011100006E0E00501D51E4801E042F20F7082466C
:10112000B96912986D1C8847814613980560002E96
:1011300004DD484603F035FE0028D6D1F96912983F
:101140008847FF2053468BF8000088F800000020F5
:101150000A900B9004AA0CA90AA8FFF7ADFDA00500
:1011600002D46FF00100F8E614F0240F12D0E0076B
:101170001CD13868DDE90A12031D3B600068C0E934
:10118000001213E0ECA70000DEA70000A2A60000FA
:10119000F1D8FFFF0AA9684603F092FDE00705D1E8
:1011A0003868009A011D3960006802602846D4E65C
:1011B00010B50446AFF300802046BDE81040FFF7AD
:1011C00014B800004FF0013C50F8042B51F8043BD8
:1011D0009A4221D1A2EB0C03934313EACC1317D10B
:1011E00050F8042B51F8043B9A4215D1A2EB0C03A2
:1011F000934313EACC130BD150F8042B51F8043B62
:101200009A4209D1A2EB0C03934313EACC13DBD02F
:101210004FF00000704700BFD01A01BAB1FA81F157
:1012200001F0180122FA01F0CB40C1F12001DBB23C
:10123000C0B2C01A2CFA01F3D11A914311EAC311BA
:10124000E6D170472DE9FF4F1F464FF03C0987B0AC
:101250004FF00042DDE9141001F10108DDF858A05B
:1012600002EA40500390002005908346054604465C
:101270000490B969461E08988847AAF1010A0290AD
:10128000BAF1000F3BDD02982E2815D0102100F096
:101290001CFA00282EDB4FF0010B0599014317D0F3
:1012A000B9F1000F0BDB4A46C11700F0FBF905430B
:1012B0000C43A9F1040905E0012004900BE008B1FA
:1012C00045F0010501200590049820B9361D02E083
:1012D000049800B1361FB969089808F101088847D9
:1012E000BBF1000FAAF1010A0290C9D00999C1F817
:1012F0000080C5E70298702808D0502806D0F96908
:1013000008988847BBF1000F14D04FE000200290EE
:101310000120BBF1000F049009D0B969089808F1C9
:1013200001088847AAF10109B9F1000F07DCF96942
:10133000089888476FF001000BB0BDE8F08F2B28AC
:1013400004D02D280CD14FF0FF300490B9690898D3
:1013500008F101088847A9F10109B9F1000FE6DD9C
:10136000411CE4D00A2100F0B0F90028DFDB02992B
:1013700008F1010801EB810100EB41000290B9691D
:10138000089888470A2100F0A0F9099AA9F10109F3
:10139000B9F1000FC2F8008001DD0028E7DAF96931
:1013A000089888470499029800FB016655EA0400F2
:1013B00004D004F04041090002D006E0039898E010
:1013C000A40044EA9574AD00B61E04F00041080084
:1013D00002D16D196441761E159810F0240F03D0C8
:1013E0004FF00B095C4803E04FF028096FF07D00D7
:1013F0008246564507DAAAEB06018944B9F1410F46
:1014000001DD4FF0410901200021A9F1010200F0A6
:1014100049F9024628400B462140084301D00121EA
:1014200000E00021501E029143F1FF31284021408D
:10143000084301D0012000E000200299834651EAD0
:101440000B014FD0002108464FF00000039900F433
:10145000400039B100EB80004FF4400100EBD07048
:1014600001EA60008015012802DD4FF0FF3000E046
:1014700013D0401C36D0029860B3BBF1000F0CD1E2
:101480004A460120002100F00DF928402140084380
:1014900001D0012000E00020E0B101204A460021F7
:1014A00000F000F9034640190A4661412D1A8C41AB
:1014B00011D3B9F1400F09DD159810F0240F02D0B7
:1014C000AAF1340603E0AAF1170600E0761C002515
:1014D0004FF0004406E05B1E42F1FF3220EA0305B4
:1014E00021EA0204CAF10100B04206DA1B4903985E
:1014F00008430190002000900EE0039AC4F3D3212A
:10150000E80A0A43164940EA44500A433146CDE905
:101510000002684603F03AFC159810F0240F0BD037
:101520001598C00715D13868DDE90012031D3B602E
:101530000068C0E900120CE002A8694603F0C0FB95
:101540001598C00705D13868029A011D39600068F6
:1015500002604046F0E6000002FCFFFF0000F07F62
:101560000000F03F2DE9FF4F92461D4685B04FF039
:101570000041DDE9124BDDE914727F1E01EA4B5098
:10158000414940F0FF4940EA0108002122F02000D3
:101590004928049102D04E2828D04CE03BA00126D7
:1015A00007C88DE80700A9690698641C88477F1E54
:1015B000014606D41DF8060018B121F02001814231
:1015C0000BD0E96906988847032E34D0082E32D014
:1015D0006FF0010009B0BDE8F08F761C032E01D03A
:1015E000082EE0D1601CCAF80000DCE7A969069863
:1015F000641C88477F1E2AD420F02000412826D171
:10160000A9690698641C88477F1E20D420F020001A
:101610004E281CD1A9690698641C88477F1E48F48F
:10162000002849F48009CAF8004001D4282806D0CF
:10163000E969069888475FEACB7012D022E0A96971
:101640000698641C88477F1E01D4002803DAE969E4
:1016500006988847BCE72928F1D1641CCAF80040E5
:10166000E9E71BF0240F07D028680499031D2B60BD
:101670000068C0E9001805E02868021D2A600068BB
:10168000C0F800902046A5E70000F07F494E46498B
:101690004E4954590000000001491820ABBEFEE736
:1016A00026000200B2F120030AD5C2F1200301FA9C
:1016B00002F120FA03F300FA02F041EA0301704755
:1016C00000FA03F14FF0000070473A2800D230389A
:1016D00020F02002412A01D3A2F13700884201D331
:1016E0004FF0FF30704770475FEA400C08BF91F041
:1016F000000F4FEA8C234FEAC12243EA51514FEACF
:101700001C5018BF00F5F0404FEA300018BF41F000
:1017100000415FEA6C5C00F02980BCF1FF3F08BF2C
:1017200040F080407047130C06BF12044FF0100CBD
:101730004FF0000C130E04BF12020CF1080C130F33
:1017400004BF12010CF1040C930F04BF92000CF1C2
:10175000020CD30F04BF52000CF1010C11464FF0E4
:101760000002A0F11F00A0EB0C00704711F0004F29
:1017700008BF704731F000413FF4D5AF0B0C06BFF6
:1017800009044FF0100C4FF0000C0B0E04BF0902BF
:101790000CF1080C0B0F04BF09010CF1040C8B0FAA
:1017A00004BF89000CF1020CCB0F04BF49000CF1FF
:1017B000010CCCF12003A0EB0C0022FA03F302FA97
:1017C0000CF241EA030100F10100704720F07F4C68
:1017D00080EA030023F07F47ACEB070303F57C535B
:1017E00000F0004003F1FF032DE980494FEA154B5B
:1017F00009B44FEA144325EA0B4E24EA03480FF2DA
:10180000042606EB132749083E785FEA320203FB01
:101810000667C7F5000707FB06F64FEA54374FEA9D
:10182000D64606F1020607FB066CCCF1005C4FEAD7
:101830001C472CEA074C07FB06F40CFB06F504EBEF
:1018400015464FEA961634BF00204FF000404FEA8D
:10185000D13706FB07FC4FEA1C4C0CFB0BF7D21BE5
:1018600003FB0CF761EB07010CFB0EF7B0EB074035
:1018700072EB17420CFB08F734BFA2EB0742B2EB46
:10188000074261EB17414FEA0C444FEA910706FB10
:1018900007FC4FEA1C4C0CFB0BF7B0EBC74072EB9C
:1018A000573203FB0CF734BFA2EBC742B2EBC7427F
:1018B00061EB57310CFB0EF7B0EBC70072EB5772C0
:1018C0000CFB08F734BFA2EBC702B2EBC70261EB17
:1018D0005771039F4FEA816141EA921104EBCC04F6
:1018E0004FEAD1374FEA826206FB07FC42EA9012C8
:1018F0004FEA80604FEA1C4C0CFB0BF7D21B03FB3A
:101900000CF761EB07010CFB0EF7B0EB074072EB35
:1019100017420CFB08F734BFA2EB0742B2EB0742B9
:1019200061EB17414FEA8C554FEA910704EB9C2479
:1019300006FB07FC4FEA1C4C0CFB0BF7B0EBC74057
:1019400072EB573203FB0CF734BFA2EBC742B2EB8A
:10195000C74261EB57310CFB0EF7B0EBC70072EBDF
:1019600057720CFB08F734BFA2EBC702B2EBC702F9
:1019700061EB577115EB4C254FEA816141EA9211F9
:101980004FEA82624FEAD13742EA901206FB07FC27
:1019900044F100044FEA80604FEA1C4C0CFB0BF74B
:1019A000D21B03FB0CF761EB07010CFB0EF7B0EB4E
:1019B000074072EB17420CFB08F734BFA2EB07425B
:1019C000B2EB074261EB174115EB1C154FEA813171
:1019D00041EA92414FEA823242EA90424FEA803035
:1019E0004FEA0C7644F1000448EA03434EEA0B4800
:1019F0004FF0000EB2EB080C71EB030724BF6246F8
:101A000039464EEB0E0E4FF0000B00185241494183
:101A10004BEB0B0BB2EB080C71EB03077BF1000BEC
:101A200024BF624639464EEB0E0E4FF0000B0018F5
:101A3000524149414BEB0B0BB2EB080C71EB030726
:101A40007BF1000B24BF624639464EEB0E0E51EA85
:101A5000020718BF46F0010616EB0E7655F100029C
:101A600054F1000103D5BDE88901BDE80088BDE857
:101A70008901BDE80048B619524141EB0101A3F1CB
:101A80000103704780807F7E7D7C7B7A79787776D2
:101A900076757473727171706F6E6E6D6C6C6B6A4B
:101AA0006A696868676666656464636362616160E9
:101AB000605F5F5E5E5D5D5C5C5B5B5A5A59595866
:101AC00058575756565555555454535352525251D0
:101AD000515050504F4F4F4E4E4D4D4D4C4C4C4B26
:101AE0004B4B4A4A4A49494948484847474747466D
:101AF00046464545454444444443434343424242A9
:101B00004241414146EA0646A3F570534FEA164664
:101B100046EA42564FEAD22242EA415210B54FEA13
:101B2000D121A3F1010300F02FF820F0004000F1D3
:101B3000020C00F0004701EB00501146BCF5006FAD
:101B400040EA070000D210BDBAF1000F0AD01CB560
:101B500003B44FF004004FF004014FF000000FBC3D
:101B6000BDE810404FF00001BBF1010FB9BF0448C0
:101B70004FF0FF310348002140EA070010BD00BFCD
:101B8000FFFFEF7F0000F07F002B9C4630D47700F2
:101B90002BD01CB54FEA370703B44FF010004FF0BD
:101BA0001001BAF1000F06D0BCF1000FDCBF40F00D
:101BB000080040F008014FF000000FBCBDE81040E5
:101BC0000BF1010BBBF1010F08BF5FEA170722BF42
:101BD00012F1010211F101014FF0004143F1000344
:101BE00000F0004043EA00007047F9D35708D0E7FF
:101BF00046EA064613F1400F4FEA16461FDD13F181
:101C0000200FDFBF16430A46002120335B42BED0BF
:101C1000C3F1200746EA064602FA07F74FEA1646DE
:101C200046EA0706C3F1200722FA03F201FA07F792
:101C300021FA03F14FF0000342EA0702A7E746EA60
:101C4000020646EA06464FEA164646EA0106BCBFC9
:101C500046EA0646360C4FF000034FF000024FF004
:101C6000000194E72DE9804C9A46934670B491E8C0
:101C7000380007C831EA400C48BF34EA430C03D5AA
:101C8000FFF7A4FDFFF780FFF0BCBDE8008C2DE955
:101C9000804C9A46934670B491E8380007C831EA00
:101CA000400C48BF34EA430C03D5FFF78FFDFFF724
:101CB00029FFF0BCBDE8008C2DE9804C9A46934684
:101CC00070B491E8380007C810F0804F08BF13F0D7
:101CD000804F03D100F01AF8FFF756FFF0BCBDE8C3
:101CE000008C2DE9804C9A46934670B491E83800F8
:101CF00007C810F0804F08BF13F0804F03D100F0E9
:101D000005F8FFF7FFFEF0BCBDE8008C20F07F4730
:101D100080EA030023F07F4C07EB0C03A3F57C5310
:101D200000F00040A3F1FE0392F0000F00F0B3803A
:101D300095F0000F00F077802DE901494FEA11403E
:101D40004FEA144621EA004800FB06FC24EA064755
:101D500008FB06F607FB08F800FB07F718EB064838
:101D60004CEB164C4FEA124B18EB07484FEA15465E
:101D70004CEB174022EA0B4E0BFB06FC25EA06470C
:101D80000EFB06F607FB0EFE0BFB07F71EEB064EDF
:101D90004CEB164C4FF000061EEB074E4CEB174B6E
:101DA00018EB0B0840F1000018EB0E0B58EB000885
:101DB00040F100008F1A4FF000013CBFC943661B81
:101DC00014BFB5EB040C00213CBFC943F61B4FEA1E
:101DD00017444EEA8E0E27EA04454FEA1C4704FBDF
:101DE00007622CEA074C05FB07F70CFB05F604FB22
:101DF0000CFC16EB074642EB174216EB0C4642EB87
:101E00001C421BEB060658EB0202414146EA9E06C5
:101E100001D5BDE80189B619524141EB0101A3F199
:101E20000103BDE801894FEA14454FEA114724EA4E
:101E3000054621EA074C05FB07F406FB07F70CFBF8
:101E400006F105FB0CFC11EB074144EB17444FEA8C
:101E5000124711EB0C4144EB1C4422EA074C05FBF2
:101E600007F206FB07F70CFB06F605FB0CFC16EB6E
:101E7000074642EB174216EB0C4642EB1C456A182C
:101E800054F1000148BF7047B619524141EB0101BE
:101E9000A3F10103704795F0000F37D04FEA1142CC
:101EA0004FEA144721EA024624EA074C02FB07F1F5
:101EB00006FB07F70CFB06F402FB0CFC14EB0744D3
:101EC00041EB17414FEA154714EB0C4441EB1C4121
:101ED00025EA074C02FB07F506FB07F70CFB06F6A5
:101EE00002FB0CFC16EB074645EB174516EB0C46C0
:101EF00045EB1C42121951F1000148BF7047B61959
:101F0000524141EB0101A3F1010370474FEA14452F
:101F10004FEA114724EA054621EA074C05FB07F181
:101F200006FB07F70CFB06F24FF0000605FB0CFC66
:101F300012EB074241EB174112EB0C4251EB1C41F3
:101F400048BF7047921841EB0101A3F101037047AC
:101F5000CA430260704721B1826842F00102826088
:101F600003E0826822F0010282607047014600208F
:101F70008A6802F004020AB1012000E000207047E4
:101F80000246002013680B400BB1012000E0002046
:101F90007047014600208A6802F008020AB1012059
:101FA00000E000207047000030B50246002000230A
:101FB00050680F4C20400D790C6844EA05242043FA
:101FC000506090680B4C2040D1E902542C434D796D
:101FD00044EA450420439060D06A20F470000C7CF1
:101FE000641EE4B2234340EA0350D06230BD0000D7
:101FF000FFFEF0FFFDF7F1FFF0B504460D460020AF
:102000000021092D11DDE068A5F10A0606EB46075F
:10201000072606FA07F18843A5F10A0606EB4606ED
:1020200003FA06F10843E0600CE0206905EB450780
:10203000072606FA07F1884305EB450603FA06F181
:1020400008432061072A0FDA606B561E06EB8607ED
:102050001F2606FA07F18843561E06EB860605FA88
:1020600006F10843606322E00D2A0FDA206BD61FC9
:1020700006EB86071F2606FA07F18843D61F06EBF4
:10208000860605FA06F10843206310E0E06AA2F133
:102090000D0606EB86071F2606FA07F18843A2F114
:1020A0000D0606EB860605FA06F10843E062F0BD70
:1020B000816841F008018160704721B1826842F473
:1020C000A002826003E0826822F4A002826070476E
:1020D000816841F0040181607047000030B1074918
:1020E000096841F40001054A116005E003490968E7
:1020F00021F40001014A11607047000008240140EA
:1021000010B586B004464FF4004001F0B5FA012145
:10211000084601F0DDFA0121042001F0D9FA01217D
:10212000480201F0D5FA4FF4A06001F03DFA042C0A
:102130000AD11020ADF8140000208DF8170005A971
:10214000254800F07EFA14E0052C0AD12020ADF8D5
:10215000140000208DF8170005A91F4800F071FA3F
:1021600007E0102C03D10120FFF7B8FF01E006B013
:1021700010BD002000908DF8040001208DF80500AE
:102180004FF4602002900020039001208DF8100091
:1021900069461248FFF708FF01211048FFF7DBFEF0
:1021A0000E48FFF785FF142000F0B0F900BF0B4880
:1021B000FFF7EFFE0028FAD10848FFF789FF00BFBC
:1021C0000648FFF7D3FE0028FAD101210348FFF7A4
:1021D00074FF00BFCBE7000000080140002401406D
:1021E0002DE9F04704464FF000090723012221465C
:1021F0001748FFF701FF01211548FFF75EFF012097
:1022000000F084F900BF02211148FFF7B9FE002851
:10221000F9D002210E48FFF79BFE0D494C310868AA
:1022200003F050FF81464FF08B41484603F068FEB3
:10223000824603F0CBFD07464FF06632054B03F0B4
:102240009BFB054603F098F881464846BDE8F087B9
:102250000024014066660A4010B5044624B10121FD
:10226000044800F0CAFA03E00121024800F0C7FA6E
:1022700010BD0000000C014008B510208DF80300CF
:1022800003208DF802000121082001F021FA01202D
:10229000ADF800006946034800F0D3F90020FFF7CD
:1022A000DBFF08BD000C014000BFFEE739B1084A62
:1022B0001268012383401A43054B1A6006E0044A62
:1022C0001268012383409A43014B1A607047000053
:1022D0000074004030B5002200230A4C226840F60A
:1022E000FE748440A243D1E900452C438D682C4301
:1022F000CD6844EA050303FA00F42243014C22604E
:1023000030BD00000074004008B500220092054A6C
:10231000009200F10802009B1A440092009A11609A
:1023200008BD00000074004008B500220092054A74
:10233000009200F11402009B1A440092009A11606E
:1023400008BD00000074004010B586B004460121AD
:10235000042001F0BDF90121480701F099F900209E
:102360000290039004900220059000208DF8070051
:1023700003208DF806007CB91020ADF8040001A9F7
:102380000F4800F05EF902A90020FFF7A3FF01212A
:102390000020FFF78BFF10E0102C0ED12020ADF8AD
:1023A000040001A9064800F04CF902A91020FFF72B
:1023B00091FF01211020FFF779FF06B010BD00004A
:1023C000000801402DE9F05F04468946CA465046A0
:1023D00003F0FCFC05464FF066321B4B03F0CAFBD2
:1023E00004D30021504603F081FE01D24FF00009D2
:1023F0004FF08B41504603F0ADFE834603F0E6FC00
:1024000007464FF06632104B03F0A4F8054602F081
:10241000B3FF824644B9504603F034FE85B22946E4
:102420000020FFF771FF0DE0102C08D1504603F09B
:1024300029FE85B229460020FFF776FF02E0002042
:10244000BDE8F09F4846FBE766660A402DE9F05F6D
:1024500081468A460026002513E019F80540392CEC
:1024600001DC302C03DA2E2C01D02D2C04D10E48A7
:102470008455701CC6B202E0002E00DD03E0681C2B
:10248000C5B25545E9DB00BF074802F091FC07469D
:1024900002F072FF834614230022034903A000F0D8
:1024A00019F85846BDE8F09F800000203132330013
:1024B00070B503460C46002107E05D5C665CAE42E9
:1024C00001D0002070BD481CC1B2501E8842F4DC0F
:1024D0000846F7E730B50446002006E0462A02D158
:1024E000255C0D5400E00A54401C9842F6DB30BDD8
:1024F0007047000001460022034B1A6000BF024AE9
:1025000012688A42FBD370472C000020014600BFAE
:102510000022064B1A6000BF044A1268642AFBD3EB
:102520000A1EA1F10101F3D1704700002C00002028
:1025300030B5044604254FF4302000F06FF805460E
:10254000042D17D10C48006940F002000A490861C7
:1025500008464461006940F0400008614FF43020B3
:1025600000F05CF805460448006941F6FD7108403A
:1025700001490861284630BD0020024004200B4973
:10258000C96801F0010109B101200EE00749C968DD
:1025900001F0040109B1022007E00449C96801F013
:1025A000100109B1032000E0042070470020024020
:1025B0000348006940F0800001490861704700004D
:1025C0000020024070B504460D460426F00200F0DB
:1025D00025F80646042E11D10948006940F0010093
:1025E000074908612580F00200F018F80646044803
:1025F000006941F6FE71084001490861304670BD2E
:102600000020024002480349486003484860704780
:102610002301674500200240AB89EFCD00B502469B
:102620000423FFF7ABFF034603E0FFF7A7FF0346D2
:10263000521E012B01D1002AF7D102B905231846F9
:1026400000BD2DE9F04102460025002600200023B0
:102650000024002791F803C00CF00F0591F803C087
:102660000CF0100CBCF1000F03D091F802C04CEA42
:10267000050591F800C0BCF1000F31D014680020AE
:102680002BE04FF0010C0CFA00F3B1F800C00CEA9B
:1026900003069E4220D183004FF00F0C0CFA03F783
:1026A000BC4305FA03FC4CEA040491F803C0BCF1F6
:1026B000280F06D14FF0010C0CFA00FCC2F814C030
:1026C0000AE091F803C0BCF1480F05D14FF0010CAE
:1026D0000CFA00FCC2F810C0401C0828D1D31460CA
:1026E000B1F800C0BCF1FF0F34DD546800202EE0CB
:1026F00000F1080C4FF0010808FA0CF3B1F800C023
:102700000CEA03069E4221D183004FF00F0C0CFA15
:1027100003F7BC4305FA03FC4CEA040491F803C038
:10272000BCF1280F05D100F1080C08FA0CF8C2F82A
:10273000148091F803C0BCF1480F07D100F1080CD8
:102740004FF0010808FA0CF8C2F81080401C082865
:10275000CED35460BDE8F081F0B50A4600230024D2
:102760000021002500F00046B6F1004F02D11D4EB9
:10277000F16901E01B4E7168C0F3034583B200F4B8
:102780004016B6F5401F08D121F07061154E7668ED
:1027900026F07066134F7E6012E000F48016B6F5E6
:1027A000801F06D1032606FA05F4A14341F07061AB
:1027B00006E0460D360103FA06F6B14341F07061BA
:1027C00022B1460D360103FA06F6314300F0004609
:1027D000B6F1004F02D1034EF16101E0014E71608C
:1027E000F0BD0000000001400246002093680B404D
:1027F0000BB1012000E0002070474161704701618A
:10280000704700BFFEE7000070B505464FF400605A
:102810000F4908602846FFF76DFE4FF480600C49B1
:1028200008602846FFF766FE09480838006800F48B
:10283000006008B1012400E000244FF480600449E6
:10284000091D08602846FFF755FE204670BD0000B0
:10285000100C01402DE9F04107460D4608260EE018
:102860002846FFF7D1FF20B16006040E44F00104B2
:1028700003E06006040E04F0FE04701EC6B2002ED3
:10288000EED12946384600F003F82046BDE8F08135
:1028900070B505460C4625B94FF400600D49086037
:1028A00004E04FF400600B49091F08602046FFF761
:1028B00021FE4FF480600749091F08602046FFF79A
:1028C00019FE4FF48060034908602046FFF712FEAE
:1028D00070BD0000140C01402DE9F04104460D4686
:1028E00008260DE004F0800008B1012700E0002771
:1028F00029463846FFF7CCFF6006040E701EC6B2AC
:10290000002EEFD12846FFF77FFF80464046BDE806
:10291000F081000008B50121082000F0D9FE4FF435
:102920004060ADF8000014208DF8030003208DF8FE
:10293000020069460548FFF784FE4FF480600349B2
:10294000103108604000086008BD0000000C014024
:1029500010B54FF400600E4908600220FFF7CAFD71
:102960004FF480600A4908600220FFF7C3FD4FF46E
:1029700000600749091D08600220FFF7BBFD4FF406
:1029800080600349091D08600220FFF7B3FD10BDF8
:10299000100C014010B54FF480600D490860022012
:1029A000FFF7A8FD4FF40060094908600220FFF717
:1029B000A1FD4FF480600649091F08600220FFF75F
:1029C00099FD4FF400600249091F086010BD000026
:1029D000140C014070B527480068274AB0FBF2F19B
:1029E000B1F1807F00D31DE021F07F40401E4FF009
:1029F000E022506150170F22002807DA13071D0E3E
:102A00001E4B00F00F04241F1D5503E013071C0E7E
:102A10001B4B1C5400BF00204FF0E02290610720A8
:102A2000106100BF4FF4347140F2CF7001F06EF9C5
:102A3000002001F073F884B22146124801F0CFFB68
:102A4000002001F06BF884B221460E4801F0C9FB6A
:102A5000002001F063F884B221460A4801F0C3FB6C
:102A6000002001F05BF884B22146064801F0BDFB6E
:102A700070BD000038000020A086010018ED00E0C5
:102A800000E400E00008004008B50121102000F03B
:102A90001FFE4FF40050ADF8000048208DF80300F1
:102AA00069460248FFF7CDFD08BD00000010014057
:102AB0002DE9F04107460C4615461E462A2000F037
:102AC00065FA384600F044FA284600F041FA2B2017
:102AD00000F05CFA204600F03BFA304600F038FA8D
:102AE0002C2000F053FABDE8F08170B504460D4685
:102AF00016462B46224629462046FFF7D9FF304688
:102B000000F026FA70BD2DE9F04706460F46144640
:102B10001D46DDF820A0681E83B2601E82B23946D1
:102B20003046FFF7C5FFB8460EE0B14606E0504616
:102B300000F00EFA09F101001FFA80F9A145F6DB59
:102B400008F101001FFA80F8A845EEDBBDE8F08728
:102B500008B501210C2000F0BBFD0121084600F062
:102B6000B7FD01210C48FFF7F7FD4FF43040ADF8F9
:102B7000000010208DF8030003208DF80200694644
:102B80000648FFF75EFD4FF48060ADF8000069462F
:102B90000348FFF756FD08BD00023000000C01405D
:102BA0000008014008B5FFF7D3FF4FF48051644897
:102BB000FFF723FE1420FFF7A9FC362000F0E6F90A
:102BC0007820FFF7A3FC002000F0D2F93A2000F0B3
:102BD000DDF9052000F0CCF9B22000F0D7F90C2087
:102BE00000F0C6F90C2000F0C3F9002000F0C0F995
:102BF000332000F0BDF9332000F0BAF9B72000F01F
:102C0000C5F9352000F0B4F9BB2000F0BFF9192058
:102C100000F0AEF9C02000F0B9F92C2000F0A8F9BE
:102C2000C22000F0B3F9012000F0A2F9C32000F0A7
:102C3000ADF9122000F09CF9C42000F0A7F9202083
:102C400000F096F9C62000F0A1F90F2000F090F9ED
:102C5000D02000F09BF9A42000F08AF9A12000F018
:102C600087F9E02000F092F9D02000F081F90420EB
:102C700000F07EF90D2000F07BF9112000F078F9CA
:102C8000132000F075F92B2000F072F93F2000F0BE
:102C90006FF9542000F06CF94C2000F069F918200D
:102CA00000F066F90D2000F063F90B2000F060F9E8
:102CB0001F2000F05DF9232000F05AF9E12000F018
:102CC00065F9D02000F054F9042000F051F90C20EF
:102CD00000F04EF9112000F04BF9132000F048F9F4
:102CE0002C2000F045F93F2000F042F9442000F08C
:102CF0003FF9512000F03CF92F2000F039F91F2056
:102D000000F036F91F2000F033F9202000F030F9F0
:102D1000232000F02DF9212000F038F9112000F0D7
:102D200035F9292000F032F97820FFF7EFFB002079
:102D3000F0231A4601460090FFF7E5FE08BD0000AB
:102D4000000C01402DE9FF5F07468A4690469B46EE
:102D50000F9D002002900097284605EBD071C1F32B
:102D600047042046E21704EB5272D2102146E317C3
:102D700004EB5373DB10A4EBC3030BB1012300E09E
:102D800000231A446A4392B20192A8F1200000F095
:102D9000FF080AEB0500401E83B23819401E82B2BC
:102DA00051463846FFF784FE00265BE0102D05D122
:102DB0002F4800EB0810805D039013E0182D07D119
:102DC00008EB48002B4901EB0010805D039009E0FF
:102DD000202D05D1284800EB8810805D039001E08C
:102DE000BDE8FF9F4FF0000936E01098C8B90120F8
:102DF00000FA09F00399084018B1584600F0A8F805
:102E000002E00E9800F0A4F80298401CC0B20290B4
:102E1000029890FBF4F104FB1100C8B90020029065
:102E20001DE0012000FA09F00399084020B15A463C
:102E300051463846FFF759FE781C87B20098381A79
:102E4000A04205D1009F0AF101001FFA80FA06E0B6
:102E500009F1010000F0FF09B9F1080FC5DB00BF5F
:102E6000701C86B201988642A0DB00BFB8E7000064
:102E70006081000850870008209900082DE9F05F64
:102E80000746884615461E46DDF82890002408EBC4
:102E90000600401E83B27819401E82B24146384671
:102EA000FFF706FEA24618E04FF0000B0FE019F8FE
:102EB000140000F05DF8012101EB440119F8010054
:102EC00000F056F8641C0BF101001FFA80FBB345BB
:102ED000EDDB0AF101001FFA80FAAA45E4DBBDE848
:102EE000F09F2DE9FE4305460F4616469846DDE95C
:102EF0000A94102C03D0182C01D0202C0FD120467E
:102F000004EBD071491069438DB207FB04F087B21E
:102F1000F02D00DDF025F02F03DDF02701E0BDE806
:102F2000FE8310E00020CDE9009402903278434601
:102F300039462846FFF706FF204604EBD07105EB23
:102F400061018DB2761C30780028EBD100BFE6E736
:102F500010B504464FF480610448FFF750FC20127E
:102F600000F022F8E0B200F01FF810BD00080140A8
:102F700010B504464FF480610348FFF740FC20463B
:102F800000F012F810BD00000008014010B5044622
:102F90004FF480610348FFF730FC204600F004F84E
:102FA00010BD00000008014070B504464FF4805188
:102FB0001448FFF722FC00251BE04FF40051114894
:102FC000FFF71BFC04F0800028B14FF400410D48CE
:102FD000FFF715FC04E04FF400410A48FFF70DFC31
:102FE0004FF400510748FFF70AFC6006040E681C06
:102FF000C5B2082DE1DB4FF480510248FFF7FFFB1B
:1030000070BD0000000C014000BFFEE77CB56C48BD
:1030100000686C4AB0FBF2F1B1F1807F01D301206E
:103020001DE021F07F40401E4FF0E022506150171C
:103030000F22002807DA13071D0E634B00F00F0460
:10304000241F1D5503E013071C0E604B1C5400BFCA
:1030500000204FF0E022906107201061002008B1AD
:1030600000BFFEE7FFF79EFD1020FFF749F805209F
:10307000FFF746F80020FFF767F955490020FFF7F2
:10308000A1F900F0C3F8FFF7FFFCFFF7F5F84FF4E4
:103090001651032001F0AEF9FFF79CFC012000F06F
:1030A000A9F9022000F0A6F9032000F0A3F90420FA
:1030B00000F0A0F94FF44871012000F0CDF84FF472
:1030C000C871022000F0C8F84FF4C871032000F066
:1030D000C3F84FF4FA71042000F0BEF8002101207B
:1030E00000F04AFD0021022000F046FD00210320EF
:1030F00000F042FD0021042000F03EFD0020F023FE
:103100001A4601460090FFF7FEFC32483C231A465F
:1031100000210090B420FFF7B1FE102000211F23F2
:103120002DA2CDE900101520FFF7DBFE18200021AD
:103130001F232BA2CDE900100520FFF7D2FE10209F
:1031400000211F2328A2CDE900100E210720FFF740
:10315000C8FE102000214FF4784328A2CDE90010CA
:103160000E211D20FFF7BDFE02222549254800F053
:10317000C4FB2348007824494860084640684FF45F
:103180006161B0FBF1F01821B0FBF1F201FB12001C
:103190001D490870084640683C21B0FBF1F0B0FBC7
:1031A000F1F201FB120018494870084640683C21C2
:1031B000B0FBF1F201FB1200134988707CBD0000E6
:1031C00038000020A086010018ED00E000E400E0D7
:1031D0000000204040650008474420200000000017
:1031E0004F6E65204461790046696768742C2079C8
:1031F0006F756E67206D616E210000003100000068
:1032000060000020002001082000002010B5FFF71A
:1032100081FB10BD2DE9F05F0721002000F014FBB9
:10322000834602F05AFB8046084A094B02F0A4FB91
:1032300006464FF06632074B02F0DEFC044602F011
:103240009BF882465046BDE8F09F00007B14AE47D5
:10325000E17A943F661271402DE9F04107460E462F
:103260003546281E01DB014600E041420D46B5F51A
:103270007A7F01DD4FF47A75002E01DD522404E0DF
:10328000002E01DA4C2400E02024012F06D0022F6A
:103290002BD0032F53D0042F78D178E00021514850
:1032A00000F09DFF522C08D110214F48FFF7A5FADE
:1032B00020214D48FFF7A3FA12E04C2C08D1102131
:1032C0004948FFF79CFA20214748FFF796FA07E0A4
:1032D00010214548FFF791FA20214348FFF78DFA66
:1032E000A9B2404800F07BFF79E000213D4800F0A2
:1032F00078FF522C09D14FF480513C48FFF77DFAFA
:1033000004213B48FFF77BFA14E04C2C09D14FF421
:1033100080513648FFF773FA04213548FFF76DFAFC
:1033200008E04FF480513148FFF767FA0421304834
:10333000FFF763FAA9B22B4800F053FF4FE00021DA
:10334000284800F050FF522C08D101212748FFF7F0
:1033500054FA02212548FFF752FA12E04C2C08D10A
:1033600001212248FFF74BFA02212048FFF745FAD6
:1033700007E001211D48FFF740FA02211B48FFF733
:103380003CFAA9B2174800F02EFF28E026E0002101
:10339000144800F02AFF522C08D104211348FFF7EB
:1033A0002CFA08211148FFF72AFA12E04C2C08D118
:1033B00004210E48FFF723FA08210C48FFF71DFAF5
:1033C00007E004210948FFF718FA08210748FFF72A
:1033D00014FAA9B2034800F008FF00E000BF00BFE4
:1033E000BDE8F08100340140000C014000100140B4
:1033F0000014014038B5044610208DF80300032066
:103400008DF8020048214FF47A7000F0EFFC0021A3
:10341000444800F0E4FE0021424800F0E2FE0021B2
:10342000404800F0E0FE00213E4800F0DEFE012CA6
:1034300006D0022C1FD0032C3AD0042C6ED152E0BF
:103440000121082000F044F91020ADF80000694681
:103450003548FFF7F6F82020ADF8000069463248FD
:10346000FFF7EFF810213048FFF7C9F920212E4867
:10347000FFF7C5F953E00121302000F029F94FF49E
:103480008050ADF8000069462848FFF7DAF80420BC
:10349000ADF8000069462648FFF7D3F84FF4805195
:1034A0002248FFF7ACF904212148FFF7A8F936E0DC
:1034B0000121102000F00CF90120ADF80000694650
:1034C0001A48FFF7BEF80220ADF800006946174819
:1034D000FFF7B7F801211548FFF791F902211348CA
:1034E000FFF78DF91BE00121102000F0F1F8042016
:1034F000ADF8000069460D48FFF7A3F80820ADF8C5
:10350000000069460948FFF79CF804210748FFF7C7
:1035100076F908210548FFF772F900E000BF00BF07
:1035200038BD000000340140000C01400010014093
:10353000001401407047000070B5002100230F22E5
:10354000C47804B3154C246804F4E064C4F5E06462
:10355000210AC1F10403CA40447804FA03F18478D3
:103560001440214309010E4C0678A155047804F05B
:103570001F050124AC4005786D11AD0005F1E02573
:10358000C5F8004109E0047804F01F050124AC40AF
:10359000044D0678761145F8264070BD0CED00E02C
:1035A00000E400E080E100E002490143024A1160CA
:1035B000704700000000FA050CED00E0FCB5024683
:1035C0002F2300BF00208DF805008DF804008DF832
:1035D00003008DF8020001208DF8010007208DF80E
:1035E00000002F2300250521002409E0581EC3B246
:1035F000072C02DA601CC4B202E00024481EC1B2EB
:10360000505C80272741384008B90029EEDCA3F13F
:103610000800C5B21EE0052118E0481E1DF8000094
:1036200000F0800018B1002901DD012600E000262D
:103630001DF801004006000E0DF801001DF8010004
:103640003044C0B20DF80100481EC1B2FF29E4DBCE
:10365000681EC5B2002DDED1002106E0505C1DF8C9
:10366000017078405054481CC1B20529F6DD082B82
:10367000A8DC1078FCBD704701460020034A506862
:1036800020F44040084350607047000000100240A2
:1036900029B1064AD2690243044BDA6104E0034AC5
:1036A000D2698243014BDA6170470000001002408A
:1036B00029B1064A12690243044B1A6104E0034A25
:1036C00012698243014B1A617047000000100240EA
:1036D00029B1064A92690243044B9A6104E0034A05
:1036E00092698243014B9A617047000000100240CA
:1036F00029B1064AD2680243044BDA6004E0034A67
:10370000D2688243014BDA6070470000001002402B
:1037100030B500210022002400232D4D6D6805F0F6
:103720000C0121B1042905D0082923D105E0294D38
:10373000056022E0274D05601FE0254D6D6805F40A
:103740007012234D6D6805F48034022505EB92421A
:103750001CB9214D554305600BE01D4D6D6805F406
:1037600000351DB11C4D5543056002E0194D554310
:10377000056002E0174D056000BF00BF144D6D6885
:1037800005F0F0010909154D6B5C0568DD404560E9
:103790000F4D6D6805F4E061090A104D6B5C4568DA
:1037A000DD4085600A4D6D6805F46051C90A0B4D16
:1037B0006B5C4568DD40C560054D6D6805F44041B2
:1037C000890B074D6B5CC568B5FBF3F5056130BD32
:1037D0000010024000127A0000093D004C00002059
:1037E0005C0000202DE9FC471020FEF7F9FC824622
:1037F000504602F0EBFA06460E4A0F4B02F0F0F983
:1038000004460E4A0E4B01F0A5FE804600220D4BE9
:1038100001F0E4FDCDE9000101F0AEFD824600219A
:10382000504602F063FC01D28AF0004A5046BDE8DF
:10383000FC870000E17A14AE47E1F63F85EB51B812
:103840001E85DB3F000039402DE9FC5F04460D4634
:103850004FF00009CA46CB466006040E00BF00BF09
:10386000FFF798F8ABF1010000F0FF0BBBF1000F80
:1038700000D13CE0FFF76CF803212046FFF72CF85D
:1038800000B1EDE703212846FFF726F800B1E7E78E
:10389000FFF75EF8611CC8B20321FFF71DF800B105
:1038A000DEE703210020FEF7D5FF8146032100203B
:1038B000FEF7D0FF824603210120FEF7CBFF8046B2
:1038C000FFF768F88DF805408DF80450601CC0B211
:1038D0008DF803008DF802908DF801A000208DF87E
:1038E00000006846FFF76AFE06464645B7D100BFAE
:1038F00049EA0A273846BDE8FC9F30B503460C4626
:103900001546002207E0184600F008F824F81200D7
:103910009B1C501C82B2AA42F5DB30BD01460888D0
:10392000704700002DE9F05F80468A461746B8F1DF
:10393000006F02D33348804501D3BDE8F09FFEF706
:1039400061FEA8F1006B4FEA9B25CBF34809C9F54E
:103950000074A74200DC3C464DE04FF0006101EBF3
:1039600085208A142849FFF7C8FF00260BE009EBE1
:103970000600254931F810004FF6FF71884200D04B
:1039800003E0701C86B2A642F1DB00BFA6421BDA40
:103990004FF0006101EB8520FEF7CAFD002608E02C
:1039A0003AF8160006EB0901174A22F81100701CBC
:1039B00086B2A642F4DB4FF0006101EB85208A1449
:1039C000114900F023F804E022465146404600F039
:1039D0001DF8A74200D10FE06D1C4FF000090AEB63
:1039E000440AA044381B87B2B7F5007F02DD4FF4CC
:1039F000007400E03C46B0E700BFFEF7D9FD00BF11
:103A00009BE7000000000208300100202DE9F04192
:103A100005460E461746002407E036F814102846DF
:103A2000FEF7D0FDAD1C601C84B2BC42F5DBBDE8E6
:103A3000F081704710B500F001F810BD0CB5002002
:103A4000019000903348006840F4803031490860AC
:103A500000BF3048006800F4003000900198401C1E
:103A60000190009818B90198B0F57F4FF1D129481D
:103A7000006800F4003010B10120009001E0002047
:103A800000900098012843D12348006840F01000BE
:103A9000214908600846006820F0030008600846D5
:103AA000006840F0020008601A4840681949486000
:103AB0000846406848600846406840F480604860B6
:103AC0000846406820F47C1048600846406840F48E
:103AD000E81048600846006840F08070086000BF49
:103AE0000C48006800F000700028F9D009484068D0
:103AF00020F00300074948600846406840F0020093
:103B0000486000BF0348406800F00C000828F9D165
:103B10000CBD000000100240002002402DE9F05FC3
:103B200082464FF0960B0F49504602F0DFFA04D957
:103B30000D49504602F0DAFB10D8504602F046F923
:103B400080460A4A0A4B01F017FF06460022094B3D
:103B500001F044FC044601F091FE83465846BDE85E
:103B6000F09F00000000B4420000B4C2C3F5285C1E
:103B70008FC2F13F00C0624070B504460D46012C73
:103B800006D0022C0DD0032C14D0042C24D11AE022
:103B90002846FFF7C3FF86B23146114800F01FFBED
:103BA0001BE02846FFF7BAFF86B231460C4800F00A
:103BB00018FB12E02846FFF7B1FF86B231460848ED
:103BC00000F011FB09E02846FFF7A8FF86B2314656
:103BD000034800F00AFB00E000BF00BF70BD00001A
:103BE0000008004000B504480068401C0249086015
:103BF00000F004F800BD00002C0000201748806889
:103C0000401C16498860084680681549884224D9B6
:103C100001201249886008464068401C48600846F8
:103C20008078401C8870084680783B2815DD00208D
:103C3000887008464078401C4870084640783B2809
:103C40000BDD0020487008460078401C08700846CC
:103C50000078172801DD0020087070472000002040
:103C6000A086010010B51348006840F0010011491A
:103C7000086008464068104908400E4948600846F8
:103C800000680E4908400B4908600846006820F4A7
:103C9000802008600846406820F4FE0048604FF429
:103CA0001F008860FFF7C6FE4FF0006004490860FF
:103CB00010BD0000001002400000FFF8FFFFF6FEFC
:103CC00008ED00E04FF08040008A4FF08040008A0D
:103CD00020F001004FF080410882704704480088BE
:103CE0000348008820F00100014908807047000067
:103CF00010040040044800880348008820F00100B8
:103D000001490880704700001008004030B589B0B4
:103D100005460C4601210420FFF7BAFC01210820CA
:103D2000FFF7D6FC01210846FFF7D2FC4FF4707074
:103D3000ADF8200018208DF8230003208DF8220014
:103D400008A92248FEF77DFCADF81850ADF81440E4
:103D50000020ADF81A00ADF8160005A91C4800F0C7
:103D600047FA7020ADF804000120ADF806000220EB
:103D7000ADF80C0001A9164800F0D6F80821144847
:103D800000F01EF901A9124800F024F9082110489A
:103D900000F072F901A90E4800F07CF908210C48E6
:103DA00000F0C8F901A90A4800F0CEF90821084836
:103DB00000F008FA00220121054800F0ACF80121CA
:103DC000034800F08DF809B030BD0000000C014040
:103DD00000080040044800880348008820F00100E3
:103DE0000149088070470000100C004030B589B0D0
:103DF00005460C4601214803FFF76AFC012110200B
:103E0000FFF766FC01210846FFF762FC4FF4707073
:103E1000ADF8200018208DF8230003208DF8220033
:103E200008A92748FEF70DFCADF81850ADF814406E
:103E30000020ADF81A00ADF816008DF81C0005A999
:103E4000204800F0D5F97020ADF804000120ADF84D
:103E500006000220ADF80C0001A91A4800F064F831
:103E60000821184800F0ACF801A9164800F0B2F893
:103E70000821144800F000F901A9124800F00AF9DD
:103E80000821104800F056F901A90E4800F05CF92D
:103E900008210C4800F096F901210A4800F02CF89E
:103EA0000121084800F010F800220121054800F027
:103EB00032F80121034800F013F809B030BD0000CA
:103EC000001001400034014021B1028842F080021C
:103ED000028004E002884FF67F731A400280704728
:103EE00021B1028842F00102028004E002884FF60C
:103EF000FE731A400280704731B1B0F8442042F49A
:103F00000042A0F8442005E0B0F84420C2F30E02BD
:103F1000A0F8442070471AB183890B43838102E0E3
:103F200083898B438381704770B50024002200236E
:103F3000058C4FF6FE7635400584028C8388048B11
:103F40004FF68F752C40B51E2C400D882C43751EE6
:103F50002A400D892A434D882A43144DA8420BD08C
:103F6000134DA84208D0134DA84205D0124DA842C7
:103F700002D0124DA84213D14FF6F7752A404D8951
:103F80002A434FF6FB752A408D882A434FF6FF657A
:103F90002B404FF6FF552B408D892B43CD892B436A
:103FA00083800483CD888586028470BD002C014007
:103FB00000340140004001400044014000480140FD
:103FC0000A460021018B4FF6F77319401143018314
:103FD0007047000070B5002400220023058C4FF6C6
:103FE000EF7635400584028C8388048B48F6FF7594
:103FF0002C404FF6FF452C400D884FF6FF7606EA21
:1040000005252C434FF6DF752A400D8906EA051574
:104010002A434D8806EA05152A43154DA84202D0C9
:10402000144DA8421DD14FF67F752A404D894FF699
:10403000FF7606EA05152A434FF6BF752A408D889C
:1040400006EA05152A434FF6FF352B404FF2FF7560
:104050002B408D8906EA85052B43CD8906EA850527
:104060002B4383800483CD880587028470BD0000C4
:10407000002C0140003401400A460021018B4FF220
:10408000FF7319404FF6FF7303EA022319430183BC
:104090007047000070B5002400220023058C4FF605
:1040A000FF6635400584028C8388848B4FF68F75BC
:1040B0002C404FF6FC752C400D882C434FF6FF55D5
:1040C0002A400D894FF6FF7606EA05252A434D88DA
:1040D00006EA05252A43154DA84202D0144DA842F0
:1040E0001DD14FF2FF752A404D894FF6FF7606EA43
:1040F00005252A434FF6FF352A408D8806EA052517
:104100002A434EF6FF752B404DF6FF752B408D89E7
:1041100006EA05152B43CD8906EA05152B43838056
:104120008483CD888587028470BD0000002C014007
:10413000003401400A460021818B4FF6F773194085
:10414000114381837047000070B5002200230024D2
:10415000058C4EF6FF7635400584038C8488828B6F
:1041600048F6FF752A404FF6FF452A400D884FF666
:10417000FF7606EA05252A434DF6FF752B400D898B
:1041800006EA05352B434D8806EA05352B430B4DD2
:10419000A84202D00A4DA84208D14BF6FF752C4028
:1041A0008D894FF6FF7606EA85152C43848082833D
:1041B000CD88A0F84050038470BD0000002C014061
:1041C000003401400A460021818B4FF2FF731940F1
:1041D0004FF6FF7303EA02231943818370478186F8
:1041E00070470187704781877047A0F8401070477B
:1041F000002202881D4B98420ED01D4B98420BD0D6
:10420000B0F1804F08D01B4B984205D01A4B984212
:1042100002D01A4B984204D14FF68F731A404B8844
:104220001A43174B984207D0164B984204D04FF6CA
:10423000FF431A40CB881A4302808B8883850B8802
:1042400003850A4B98420BD0094B984208D00E4B7D
:10425000984205D00D4B984202D00D4B984201D1A7
:104260000B7A03860123838270470000002C0140F3
:10427000003401400004004000080040000C0040F1
:104280000010004000140040004001400044014084
:104290000048014010B5002023490870042123483C
:1042A000FEF7A2FA012803D131201F49487002E02D
:1042B00030201D49487020211D48FEF795FA01283D
:1042C00003D131201849887002E0302016498870E7
:1042D00010211748FEF788FA012803D1312012492E
:1042E000C87002E030201049C87020211148FEF744
:1042F0007BFA012803D131200B49087102E03020FC
:104300000949087110210B48FEF76EFA012803D104
:1043100031200549487102E03020034948712020CE
:1043200001490870084610BD30000020000C014013
:10433000001001400008014010B540F2255114481A
:1043400000F0D5FB18B340F22551114800F05EFB98
:10435000104890F89400D0B90D4800F083FCC4B226
:104360000C4890F89A1090F89A00401CC2B2094884
:1043700080F89A20603044540A2C01D07D2C06D15C
:104380000121044880F89410002180F89A1010BD93
:10439000004C00409400002010B540F22551134815
:1043A00000F0A5FB08B340F22551104800F02EFBA9
:1043B0000F4890F89500C0B90C4800F053FCC4B207
:1043C0000B4890F89B1090F89B00401CC2B2084824
:1043D00080F89B20783044547D2C06D10121783818
:1043E00080F89510002180F89B1010BD005000400F
:1043F0009400002030B587B004460D464FF4A0600D
:10440000FFF7D2F801210846FFF762F9012C4FD1DE
:1044100001210820FFF75CF901218803FFF758F913
:1044200001210420FEF798F9C44800F005FB402064
:10443000ADF8180003208DF81A0018208DF81B0025
:1044400006A9BF48FEF7FDF88020ADF81800482007
:104450008DF81B0006A9BA48FEF7F3F80295002074
:10446000ADF814000C20ADF812000020ADF81000DB
:10447000ADF80E00ADF80C0002A9B04800F086FBC4
:10448000012240F22551AD4800F05BFB0121AB4811
:1044900000F0C5FA25208DF8040001208DF80500F4
:1044A0008DF806008DF8070001A8FFF745F842E1F6
:1044B000022C4CD101210420FFF70AF90121480404
:1044C000FFF7E6F80420ADF8180018208DF81B005F
:1044D00003208DF81A0006A99A48FEF7B2F80820C2
:1044E000ADF8180004208DF81B0006A99548FEF7CA
:1044F000A8F802950020ADF80C00ADF80E00ADF85C
:104500001000ADF814000C20ADF8120002A98E487E
:1045100000F03CFB4FF4A060FFF746F826208DF832
:10452000040000208DF805008DF8060001208DF8AC
:10453000070001A8FFF700F8012240F22551824848
:1045400000F0FFFA0121804800F069FAF3E0032C43
:1045500053D101211020FFF7BBF801218804FFF798
:1045600097F801217948FEF7F7F84FF48060ADF82D
:10457000180018208DF81B0003208DF81A0006A9DA
:104580007348FEF75EF84FF40060ADF818000420A1
:104590008DF81B0006A96E48FEF753F8029500201F
:1045A000ADF80C00ADF80E00ADF81000ADF8140039
:1045B0000C20ADF8120002A9664800F0E7FA4FF4AB
:1045C000A060FEF7F1FF27208DF8040001208DF890
:1045D000050002208DF8060001208DF8070001A8D3
:1045E000FEF7AAFF012240F225515A4800F0A9FA2D
:1045F0000121584800F013FA9DE0042C4FD101210D
:104600001020FFF765F80121C804FFF741F82002E8
:10461000ADF8180018208DF81B0003208DF81A0043
:1046200006A94B48FEF70DF86002ADF8180004200B
:104630008DF81B0006A94648FEF703F84FF4165004
:1046400002900020ADF80C00ADF80E00ADF810009F
:10465000ADF814000C20ADF8120002A93E4800F09D
:1046600095FA4FF4A060FEF79FFF34208DF8040008
:1046700001208DF8050003208DF8060001208DF83B
:10468000070001A8FEF758FF012240F225513248E9
:1046900000F057FA0121304800F0C1F94BE0052C39
:1046A00049D101213020FFF713F801210805FEF759
:1046B000EFFF4FF48050ADF8180018208DF81B0064
:1046C00003208DF81A0006A92148FDF7BAFF04203F
:1046D000ADF818008DF81B0006A92048FDF7B1FFC2
:1046E00002950020ADF814000C20ADF81200002057
:1046F000ADF81000ADF80E00ADF80C0002A9184896
:1047000000F044FA35208DF8040001208DF80500F2
:1047100002208DF8060001208DF8070001A8FEF7A1
:104720000BFF012240F225510D4800F00AFA012149
:104730000B4800F074F907B030BD000000380140AC
:10474000000C01400008014000440040100014002B
:104750000010014000480040004C0040001401409F
:10476000005000402DE9F04106460C461746002552
:1047700045E0062E40D2DFE806F03F030F1B27334B
:1047800000BF8021214800F0A5F90028F9D0615D23
:104790001E4800F06CFA30E000BF80211C4800F099
:1047A00099F90028F9D0615D194800F060FA24E019
:1047B00000BF8021174800F08DF90028F9D0615D15
:1047C000144800F054FA18E000BF8021124800F0AD
:1047D00081F90028F9D0615D0F4800F048FA0CE03B
:1047E00000BF40210D4800F075F90028F9D0615D47
:1047F0000A4800F03CFA00E000BF00BF6D1C381E04
:10480000A7F10101CFB2B4D1BDE8F0810038014079
:104810000044004000480040004C00400050004070
:1048200070B506460D4600244BE0062E40D2DFE868
:1048300006F03F030F1B273300BF8021244800F000
:1048400049F90028F9D0295D214800F010FA30E03C
:1048500000BF80211F4800F03DF90028F9D0295DF4
:104860001C4800F004FA24E000BF80211A4800F040
:1048700031F90028F9D0295D174800F0F8F918E05F
:1048800000BF8021154800F025F90028F9D0295DE6
:10489000124800F0ECF90CE000BF4021104800F095
:1048A00019F90028F9D0295D0D4800F0E0F900E081
:1048B00000BF00BF285D0A2801D0285D00B970BD87
:1048C000641CC4F11E000028AFD100BFF7E7000050
:1048D000003801400044004000480040004C0040C7
:1048E0000050004010B540F22551154800F0FFF887
:1048F000012823D140F22551114800F087F81148D2
:1049000090F89100D0B90E4800F0ACF9C4B20D484F
:1049100090F8971090F89700401CC2B2094880F8B0
:104920009720183044540A2C01D07D2C06D1012147
:10493000044880F89110002180F8971010BD000005
:10494000003801409400002010B540F22551144871
:1049500000F0CDF818B340F22551114800F056F898
:10496000104890F89200D0B90D4800F07BF9C4B21D
:104970000C4890F8981090F89800401CC2B2094872
:1049800080F89820303044540A2C01D07D2C06D178
:104990000121044880F89210002180F8981010BD81
:1049A000004400409400002010B540F22551154805
:1049B00000F09DF8012823D140F22551114800F064
:1049C00025F8114890F89300D0B90E4800F04AF944
:1049D000C4B20D4890F8991090F89900401CC2B2EA
:1049E000094880F89920483044540A2C01D07D2C85
:1049F00006D10121044880F89310002180F8991015
:104A000010BD0000004800409400002001F4007236
:104A1000B2F5007F00D100BFCA430280704721B1C8
:104A2000828942F40052828104E082894DF6FF734C
:104A30001A4082817047000010B504462048844225
:104A400009D101218803FEF753FE00214FF4804075
:104A5000FEF74EFE32E01B48844209D10121480492
:104A6000FEF726FE00214FF40030FEF721FE25E080
:104A70001548844209D101218804FEF719FE00215E
:104A80004FF48020FEF714FE18E01048844209D14C
:104A90000121C804FEF70CFE00214FF40020FEF7B0
:104AA00007FE0BE00A48844208D101210805FEF701
:104AB000FFFD00214FF48010FEF7FAFD10BD00004D
:104AC000003801400044004000480040004C0040D5
:104AD0000050004002460020B1F5007F00D100BF29
:104AE00013880B400BB1012000E00020704770B527
:104AF0000246002400230025002040F66A16B14239
:104B000000D100BFC1F3421501F01F03012606FAD0
:104B100003F3012D02D19689334006E0022D02D124
:104B2000168A334001E0968A33400C12012606FAB9
:104B300004F41688344013B10CB1012000E00020C9
:104B400070BDF0B50346002400260025002040F685
:104B50006A17B94200D100BF1846C1F3421401F0F0
:104B60001F06012707FA06F5012C01D10C3004E0DD
:104B7000022C01D1103000E014301AB107682F4325
:104B8000076002E00768AF430760F0BD2DE9F0471A
:104B900086B005460E460024A24600BFA146002767
:104BA000B08900B100BF2F462C8A4CF6FF7004403C
:104BB000F08804432C82AC894EF6F3100440B08890
:104BC00031890843718908430443AC81AC8A4FF6AC
:104BD000FF400440B0890443AC8201A8FEF798FD71
:104BE0001F48874202D1DDF810A001E0DDF80CA0DB
:104BF000A88900F4004040B10AEBCA0000EB0A109B
:104C000031684900B0FBF1F807E00AEBCA0000EB9D
:104C10000A1031688900B0FBF1F86420B8FBF0F0AD
:104C200004012009642101FB1089A88900F40040D7
:104C300040B1322000EBC900B0FBF1F000F00700FA
:104C4000044308E0322000EB09106421B0FBF1F0CE
:104C500000F00F0004432C8106B0BDE8F08700008F
:104C60000038014001468888C0F308007047C1F34E
:104C700008028280704700BFFEE7490050EAC12069
:104C800018BF04204A0D18BF40F0010040F2FF7227
:104C9000B2EB515F08BF40F00200012808BF0520B9
:104CA000704740F2013200204FF0E04101F0FCBBC0
:104CB000024A0020110701F0F7BB000001FDFFFFD1
:104CC00010B50446D1E9000100F002F8206010BDE3
:104CD000F8B504460D466A4600F080F800987E302C
:104CE000009000281EDC002213462046294600F0D2
:104CF00089FD17D0002140F608004FF0000006465D
:104D00002046294600F038FB044640F6080006EA33
:104D100000014FF0000034F0004004BF0220FBF718
:104D200092FB29E00098FF2828DB002108464FF07D
:104D3000000000F44006002213462046294600F0F9
:104D400019FF8CBF002501250220FBF77CFB4FF0EB
:104D5000FF4446B1002D0CBF4FF400004FF480001B
:104D6000B04218BF084C042108464FF00000002D47
:104D700004BF84F00040F8BD2046F8BD2046294617
:104D8000BDE8F84000F0F8BAFFFF7F7F10B5044699
:104D90000A46D4E90003194600F04CF8C4E90001C2
:104DA00010BD30380A2801D201207047002070471A
:104DB00030B583B00446FBF741FB05460020CDE942
:104DC0000000024621466846FBF7E8FD2846FBF74F
:104DD0003AFBDDE9000103B030BD000010B5144618
:104DE00000222260114A21F000439342A8BF10BD67
:104DF00053EA000208BF10BDB3F5801FA8BF2268A8
:104E000007DA362201F050FB6FF0350221F0004343
:104E10002260DFF81CC06FF31E510CEB23531A44C1
:104E200041F0FF5141F00051226010BD0000F07FC1
:104E300002FCFFFF2DE9F04106460C4640F2FF75EB
:104E4000174635EA14502BD000221346304600F0A6
:104E5000D9FC25D03A463046214601F025FB0646CE
:104E60000C4635EA145010D000221346304600F0AC
:104E7000C9FC15D10220FBF7E6FAFFF719FF0A4635
:104E8000214662F31E01BDE8F0810220FBF7DBFA48
:104E9000FFF707FF0A46214662F31E01BDE8F081D5
:104EA00030462146BDE8F0811CB5FEF7AFF8C8E1F9
:104EB000FEF798FCE34908600846006800F086FFAA
:104EC000044622460B46E0A1E348FBF7B5F9102063
:104ED00000214FF6FF73E04ACDE900100221084699
:104EE000FDF7FFFF10230022DB49DCA0FDF7F2FAFB
:104EF000DB490020FDF766FA064600F067FF04462E
:104F000022460B46D7A1D448FBF796F91020002182
:104F10001F23D14ACDE9001004210020FDF7E1FF55
:104F200010230022CC49CDA0FDF7D4FA0520FDF7CF
:104F300057F9C44908600846006800F047FF044676
:104F400022460B46CBA1C448FBF776F9102000217E
:104F50004FF47843C04ACDE9001004211320FDF737
:104F6000C0FF10230022BC49BCA0FDF7B3FAFEF736
:104F700051F9C44908600846006800F027FF04465C
:104F800022460B46C0A1B448FBF756F91020002179
:104F90004FF6FF73B04ACDE9001005210A20FDF756
:104FA000A0FF10230022AC49ACA0FDF793FAB5484E
:104FB000006800F00BFFCDE90001B6480268006808
:104FC000401CB44BB4A11860A348FBF735F910227C
:104FD000A1490320FFF7C6FB102300229E499FA092
:104FE000FDF778FAFFF756F90446102000214FF636
:104FF000FF732246CDE9001006210C20FDF771FF5A
:10500000AA4880780090A94843780278A8A1AD48C2
:10501000FBF712F9102000211F23AA4ACDE9001046
:105020000D210820FDF75DFF10230022A5498BA06C
:10503000FDF750FAA44890F8930000284CD00021C6
:10504000A14880F8931090F848007B2840D10522B1
:105050009D4948319DA0FDF72BFA38B118219A4897
:105060004830FDF7F3F99B49086035E00522964981
:10507000483199A0FDF71CFA38B118219248483000
:10508000FDF7E4F99649086026E018218E4848307B
:10509000FDF7DCF97B4908600846006800F096FEE1
:1050A000044622460B468FA16B48FBF7C5F810203B
:1050B00000211F23684ACDE9001007210820FDF7D1
:1050C00010FF10230022644964A0FDF703FA03E0F7
:1050D00088A10320FFF7A4FB4FF400518848FDF797
:1050E00083FBA0BB00206749086000BF1420FDF7C8
:1050F0000DFA4FF07E516348006800F093FE61495D
:10510000086080495F48006801F0F0F802D2002092
:10511000664948604FF400517948FDF765FB002867
:10512000E4D00020FDF798F8604800794A490870FB
:1051300002227548FEF7F6FB74480078401C73495C
:10514000087008460078042801DD012008706F48C7
:1051500002786FA14048FBF76FF810200021CDE9DD
:1051600000106D48008883B23B4A02211220FDF7EF
:10517000B8FE66480078012810D14FF44871FEF758
:105180006BF800210220FEF767F800210320FEF7EC
:1051900063F800210420FEF75FF83FE05B480078E9
:1051A000022811D16FF063010120FEF755F85B4929
:1051B0000220FEF751F800210320FEF74DF80021F0
:1051C0000420FEF749F829E050480078032811D15F
:1051D00000210120FEF740F800210220FEF73CF8F4
:1051E0004FF448710320FEF737F800210420FEF742
:1051F00033F813E04548007804280FD1002101203E
:10520000FEF72AF800210220FEF726F800210320ED
:10521000FEF722F841490420FEF71EF83B490878C2
:1052200000EBD0714910A0EB410119B11F203A49A0
:10523000086003E04FF47840374908601420FDF718
:1052400065F935E6080000204D43553A20252E32F9
:10525000662043200000000060000020313233004F
:105260006666E63F4441433A20252E3266205620AA
:10527000000000004144433A20252E32662056208B
:1052800000000000040000202020252E326620634C
:1052900020202000140000207B2A4858256459252E
:1052A0002E3266482A7D200D0A00000020000020D2
:1052B00054696D653A202532643A2532643A2532C4
:1052C0006420200070000020940000207B613A7D63
:1052D00000000000180000207B623A7D0000000002
:1052E0001C0000205374725F6E756D3A20252E31BC
:1052F000662020007B4572726F7220217D0D0A00AE
:105300000010014000004842002001080C0000206D
:10531000253264206800000010000020E0FCFFFF40
:1053200010B500290AD00878002807D0054878442D
:10533000FBF748FF002801D0002010BD0248784448
:1053400010BD0000726200006A62000010B5002902
:105350000AD00878002807D005487844FBF732FFC8
:10536000002801D0002010BD0248784410BD000084
:10537000626200005A62000021F00042A2F1605215
:10538000B2F5801F01F0004328BFD2F17F6C0BD92A
:105390005FEA001C43EAC20242EB507018BF70473C
:1053A00028BF20F001007047B2F5801FBCBF18462F
:1053B00070474FEA410C1CF5001F02D2084600F06E
:1053C00090BF70B500F082FB00000089FFF7F6BFC8
:1053D0004FF00040A0F580007047000010B591EA42
:1053E000030F48BF83F0004300F10E84841A71EB71
:1053F000030C05D2121943EB0C03001B61EB0C01EB
:10540000DFF824E14FEA1154A4EB135C1EEA430FCA
:1054100018BF9EEA445F73D023EA0E03DCF1200E2E
:1054200021EA045143F4801332D322FA0CFE10EB2C
:105430000E0023FA0CFE41EB0E01CCF1200E03FA14
:105440000EFE10EB0E0051F10001B1F5801FCCF102
:10545000200E32D201EB045112FA0EF2BDE81040D8
:1054600058BF7047401C38BF5FEA420218BF704700
:10547000002814BF20F0010041F100014FEA410370
:1054800013F5001F38BF7047A1F1C04100F06CBB9D
:10549000012A43EB0302ACF1200CDCF11F0E32BFFA
:1054A0004FF0000E23FA0CF310EB030041EB045114
:1054B000B4EB115FD0D0A1EB045101F58011490884
:1054C0005FEA300001EB04510ED350F1000038BF09
:1054D00012FA0EFE08D1BDE81040C9E7401C38BFE3
:1054E0005FEA4202CAD1C3E7BDE810404FEA410378
:1054F00013F5001F38BF7047A1F1C04100F034BB65
:105500009EEA445F08D011EA5E0FBDE8104004BF78
:1055100001F0004100207047BDE8104070B500F078
:10552000D5FA00BF64FBBE3E0000E0FF02494FF029
:10553000000000F087BF00BF0000F87F491058BF8F
:10554000C1F140415B1058BFC3F140438B42EFF3C0
:10555000008070472DE9C04130B4DFF8A0C23CEABA
:10556000111418BF3CEA131400F0EC8081EA030523
:105570001CEA111444EAD57418BF1CEA131500F094
:10558000C780A4EB05044FF0004545EAC12145EA78
:10559000C32341EA505143EA525304F17F749942C4
:1055A00004F500344FEAC0204FEAC22208BF9042FF
:1055B00000F09C804FEA13650FF24016765D4FEACB
:1055C000134506FB05F7C7F1807706FB07F74FEA9F
:1055D000D737A7FB03687642C8F58038A7FB06CE0D
:1055E00038BFA8F1010807FB08E64FF0000EA6FB44
:1055F000028CE6FB03CEDCF1000CCEF1004E38BF8E
:10560000AEF1010EA6FB0C584FF000074FF000055D
:10561000E6FB0E87A1FB08C6A0FB07CE16EB0E0625
:1056200045F10005E1FB076515F1E04E7EBFA4F5ED
:1056300080345FEA46066D4116F1800745F10005AA
:105640004FEA17274FEA066647EA0567A6F1DE46E6
:10565000B6F1805F4FEA15251FD9384624F0010CBA
:1056600005EBC471BCF1FE6F01EB0C1102D8F0BC6C
:10567000BDE8008124425CBF01F5801E9EEAC47F24
:1056800002D4F0BCBDE80081244238D4F0BCA1F1C2
:10569000C041BDE8004100F067BA4FEAD22242EAB9
:1056A00043524FEAD323A7FB02864FEAD02040EAB9
:1056B000415007FB03661EEA0E0F4FEAD12105FB9E
:1056C000026658BFA6EB0056B6EB00564FEA520EE4
:1056D0004EEAC37E18EB0E0E56EB530EBDD518EBFB
:1056E00002085E417F1C55F10005B6E74FF48015B6
:1056F0004FF000074FF000064FF00008ADE7F0BC98
:105700004FF0000001F1C04101F00041BDE800810F
:1057100011EA0C1F0CEA131500D00CE013EA0C1F61
:1057200000F025804FF00000F0BC81EA030101F099
:105730000041BDE80081F0BCBDE8004181EA030101
:1057400000F012BAF0BCBDE8004170B500F0BEF93F
:10575000097EFC3E00F007B881EA03014FF000002B
:1057600001F00041704781EA030100F0FDB9F0BC8F
:10577000BDE800414FF0000021497047FFFDFBF9F3
:10578000F7F5F4F2F0EEEDEBE9E8E6E4E3E1E0DE74
:10579000DDDBDAD8D7D5D4D3D1D0CFCDCCCBCAC8E6
:1057A000C7C6C5C4C2C1C0BFBEBDBCBBBAB9B8B70D
:1057B000B6B5B4B3B2B1B0AFAEADACABAAA9A8A800
:1057C000A7A6A5A4A3A3A2A1A09F9F9E9D9C9C9BCE
:1057D0009A99999897979695959493939291919079
:1057E0008F8F8E8E8D8C8C8B8B8A8989888887870A
:1057F0008685858484838382828181800000FF077F
:105800000000F87F51EA030C17D41CF5801F58BF25
:10581000BCF5801F00F10680994218BF704708BF91
:105820009042704707D711F5801F58BF13F5801FAE
:1058300019D499427047894270471CF5801F08D5DA
:10584000BCF5801FF7D58B4218BF704708BF824256
:1058500070474FF4001C1CEB410F38BF1CEB430F8B
:1058600001D28B42704770B500F030F992244900A4
:105870004FF000514FF08053FFF760BE4FEA4103F5
:105880004FEA5353A3F58063D3F11E03C8BFD3F18E
:10589000210C0CDD4FF0004242EAC12242EA505294
:1058A00032FA03FC8CEAE17CACEBE1707047102B20
:1058B000C4BF0020704703F5787CBCF1FF3F04D0E3
:1058C0006FF0004282EA2100704770B500F0FEF8E8
:1058D0004992248000207047F2E7B0FA80F310FA72
:1058E00003F10AD0C3F11D0303F580634FEA415071
:1058F0004FEA035202EBD12170474FF0000070478E
:1059000051EA030C17D41CF5801F58BFBCF5801F4B
:1059100000F10680994218BF704708BF9042704757
:1059200007D711F5801F58BF13F5801F19D499426E
:105930007047894270471CF5801F08D5BCF5801F51
:10594000F7D58B4218BF704708BF824270474FF4AB
:10595000001C1CEB410F38BF1CEB430F01D28B42E4
:10596000704770B500F0B2F8922449004FF0005132
:105970004FF08053FFF7E2BDDFF848C170B51CEA75
:10598000111E1EBF1CEA13159EEA0C0F95EA0C0FA0
:1059900000F06F8081EA030423EA4C134EEAD47EC0
:1059A00021EA4C1141F4801143F48013AE44A1FB71
:1059B000024CA0FB0365AEF17F7E361955EB0C055A
:1059C000A1FB034C4CF10003A0FB021C16EB0C06E0
:1059D000654153F10003094218BF46F0010613F474
:1059E000007F0BD14FEA03314FEA0530340341EA1F
:1059F000155140EA16506FF003020AE04FEAC32146
:105A00004FEAC520F40241EA555140EA56506FF082
:105A1000020202EB2E4201EB025585EACE710AD05A
:105A20005FEA440C18BF24F0004450F1000041F13B
:105A3000000120EAD47040F2FE7C624500D270BDC5
:105A4000A84214BF4FF080444FF04044002E08BFDE
:105A50000024BEF1806FA8BFA1F1C041BDE8704035
:105A600080F282804FF0000001F1C04101F000415E
:105A700070479EEA0C0F0CEA131518BF95EA0C0F3D
:105A800006D04FF0000081EA030E0EF0004170BD19
:105A900000F01CF88900013E00F007B800F009B8DA
:105AA0004FEA430C5FEA5C5C08D081EA030100F036
:105AB0005BB84FEA410C5FEA5C5CF6D14FF0000046
:105AC000014970470000FF070000F87F0EF1020E49
:105AD0002EF0030E5EF8046B364205D4012A43EB28
:105AE000030515F5001F12D8012841EB010C1CF528
:105AF000001F0CD80ED14FEAD17C15F5001F0CEB1E
:105B00004C0C0CF1020C08BF4CEBD37C04E04FF0C2
:105B1000080C01E04FEAD37C0CEB4C0526FA05F6A5
:105B200006F00706B6F1040C06D20EEB860CBDE8B3
:105B300070404CF0010C6047DFE80CF0090B0202EA
:105B40004FF000414FF00000A1F5002170BD194653
:105B50001046012851EB010418BFD4F5001484BF8E
:105B6000002001F0004170BD0808A0F500114FEAC7
:105B70003101704753EA010C17D41CF5801F58BF40
:105B8000BCF5801F00F106808B4218BF704708BF2C
:105B90008242704707D713F5801F58BF11F5801F49
:105BA00019D48B4270479B4270471CF5801F08D563
:105BB000BCF5801FF7D5994218BF704708BF9042C7
:105BC00070474FF4001C1CEB430F38BF1CEB410F18
:105BD00001D2994270470FB40CBC03BCFFF7C1BEA1
:105BE00091EA030F10B581F000413FF5FFAB83F060
:105BF000004300F009B8000010B591EA030F48BF58
:105C000083F000433FF5F2AB841A71EB030C07D22B
:105C100012198CF0004C43EB0C03001B61EB0C01E0
:105C2000DFF8A4E14FEA1154A4EB135C1EEA430F22
:105C300018BF9EEA445F00F0B08023EA6E03524230
:105C400021EA0451C3EB6E0338BF5B1EDCF1200E6A
:105C500025D322FA0CFE10EB0E0043FA0CFE41EBAA
:105C60000E01CCF1200E03FA0EFE10EB0E0051F1E6
:105C70000001CCF1200E29D412FA0EF201EB0451EE
:105C8000BDE8104058BF7047401C1CBFB2F1004F28
:105C9000704700280CBF491C20F00100704712EB30
:105CA000020E43EB030218BF4FF0010E4EEA420210
:105CB000ACF1200CDCF11E0E54D943FA0CFE10EBB3
:105CC0000E0051F1FF31CCF11E0ED5D50EF1010EB3
:105CD00012FA0EFE404141EB010101EB445C5FEA28
:105CE0005C5C10D910EBDE7001EB045138BFBEF1E3
:105CF000004FBDE8104018BF704700280CBF491C7A
:105D000020F00100704730D24FEAD42C11F5001179
:105D100024F400641BD0B1FA81F20B3AA41AA41E39
:105D2000D2F12003914030FA03F31943904001EB84
:105D3000CC71002C01EB0451BDE81040A8BF7047A6
:105D400001F1C0414FF0000001F000417047B0FA8E
:105D500080F310FA03F100D110BDE41A173C480596
:105D6000C90AE4E701EB045110BD491001EB0451ED
:105D7000BDE810404FEA300002E04FF000017047EC
:105D80004A0008BF0042F8D0B2F5001F28BF704794
:105D900001F000414FF0000070479EEA445F07D0D9
:105DA00011EA5E0FBDE8104004BF002100207047DB
:105DB000BDE8104070B5FFF789FE00BF40DFF63E3A
:105DC00083F00041104670470000E0FF43004FEAB7
:105DD000D30C4FEA3C0C43401FBF40070CF160510D
:105DE00013F0FE4F70471CF0006F03D100200CF041
:105DF000004170470CF0004343EA507010B540EA90
:105E0000CC0000F028FA00BF000000924FEA000129
:105E1000FFF7AABE4FF000414FF00000A1F50021AE
:105E20007047000090EA010F48BF81F0004100F187
:105E30009682421A3CBF801A89184FEAD0524FF01E
:105E40007F4C1CEA410FA2EBD15318BF9CEA026FB2
:105E500000F03B804FF0004C4CEA00204CEA01215E
:105E600021FA03FC10EB0C0C1ED202F1FF325FEAA8
:105E70001C2040EBC25038BF70471CF07F0F4FEA28
:105E8000400C18BFBCF17F4F38BF7047C3F12003EF
:105E9000994008BF20F00100BCF17F4F38BF704728
:105EA000A0F1C04000F01DBA4FEA3C00000A40EBF0
:105EB000C25028BF1CF0FF0F4FEA400CE6D018BFBD
:105EC000BCF17F4F38BF7047EAE79CEA026F05D00C
:105ED00010EA5C0F08BF00F00040704710B500F0FA
:105EE000BAF900BF64FBBE3E401058BFC0F140404D
:105EF000491058BFC1F140418142EFF30080704723
:105F00004FF47F0C1CEAD0121EBF1CEAD11392EA98
:105F10000C0F93EA0C0F00F0858090EA010F48BF48
:105F200042F4807240F4000C41F400002CF07F41F8
:105F300020F07F4000B58142A2EB03020FF2081C63
:105F4000ACEB504EC0F100009EF800E04FEA4E0E60
:105F500000FB0EFC38BF49004FEA2C1C02F5FA0288
:105F60000CFB0EF34FEACE1E4FEA112C4FEAC12173
:105F70000EEB635E42EB22420EFB0CFC4FEA1C531D
:105F800000FB03114FEA112C4FEA01310EFB0CFC10
:105F90004FEADC4C00FB0C11C14228BF09184CEB46
:105FA00003335DF804EB10EB410143EBC250B2F553
:105FB0007C0F38BF704729D512F0F00F1CBF00F1DD
:105FC000C04000F00040704700818283848586874E
:105FD00088898B8C8D8E8F919293959697999A9CA8
:105FE0009D9FA0A2A3A5A7A8AAACAEB0B2B3B5B717
:105FF000B9BCBEC0C2C5C7C9CCCED1D4D7D9DCDFED
:10600000E2E6E9ECF0F3F7FAFE0000004FEA400C9C
:106010000CF1807CBCF17E4F28BF7047B0F1C040CE
:1060200000F05FB990EA010F0CEAD11348BF42F4C7
:106030008072624538BF634507D213F47F0F16D0D4
:1060400080EA010000F00040704710B500F003F94D
:10605000097EFC3E00F005B880EA010000F0004037
:10606000704780EA010000F0004000F03AB912F4F5
:106070007F0F04BF0248704780EA010000F031B989
:106080000000C07FC10DD1F19E0206DB4FEA002364
:1060900043F0004323FA02F07047004207D54FEA6D
:1060A0004001B1F1FE4F02D24FF00000704710B531
:1060B00000F0D1F849922480002070476FEA200058
:1060C00070470000B0FA80F310FA03F2C3F19D03A9
:1060D0000AD0D90501EB1220530638BF704700F1F2
:1060E000010008BF20F001007047000050EA010CD9
:1060F00000F113801CF5000F58BFBCF5000F01D450
:106100008842704707D710F5000F58BF11F5000FF0
:1061100015D488427047894270471CF5000F04D59A
:10612000BCF5000FF7D5814270474FF0807C1CEB27
:10613000400F38BF1CEB410F01D28142704710B5B0
:1061400000F089F8922449004FF000504FF0805140
:10615000FFF7CABE4FF47F0C1CEAD0121EBF1CEA28
:10616000D11392EA0C0F93EA0C0F00F0478090EAEB
:10617000010F48BF42F480724FF0004C4CEA0020FF
:106180004CEA012102EB0302A0FB0113A2F500027D
:10619000002918BF43F001035B0028BF4FEA330317
:1061A00042EB22425FEA132C4CEBC2502EBFBCEBF9
:1061B000436FB2F57C0F70474FEA036CBCF1004FA0
:1061C00008BF20F00100B2F57C0F38BF70470BD537
:1061D00082F0FF0212F5803FC8BF704700F1C04057
:1061E000D8BF00F00040704700F5000C5FEA4C0C8F
:1061F00048BF7047B0F1C04000F073B890EA010F9B
:106200000CEAD11348BF42F48072624538BF63453F
:1062100004D280EA010000F00040704710B500F0A1
:106220001AF800BF8900013E00F007B800F009B875
:106230005FEA410C5FEA1C6C08D080EA010000F0C4
:1062400050B85FEA400C5FEA1C6CF6D14FF000409A
:10625000A0F5800070470EF1020E2EF0030E5EF8DE
:10626000044B244204D44FEA4102B2F17F4F11D8CB
:106270004FEA4003B3F17F4F0CD80ED14FEAD07CE8
:10628000B2F17F4F0CEB4C0C0CF1020C08BF4CEB45
:10629000D17C04E04FF0080C01E04FEAD17C0CEB1C
:1062A0004C0324FA03F404F00704B4F1040C06D2FE
:1062B0000EEB840CBDE810404CF0010C6047DFE8A9
:1062C0000CF0070802024FF00040A0F5800010BD5E
:1062D0000846420018BFD2F1807288BF00F000402B
:1062E00010BDFF2141EAD050C005704751EA000CB3
:1062F00000F113801CF5000F58BFBCF5000F01D44E
:106300008142704707D711F5000F58BF10F5000FF5
:1063100015D481427047894270471CF5000F04D59F
:10632000BCF5000FF7D5884270474FF0807C1CEB1E
:10633000410F38BF1CEB400F01D28842704780EA02
:10634000010081EA000180EA0100FFF7F8BE0000C9
:1063500090EA010F48BF81F000413FF56AAD421A53
:1063600004D882F00042A0EB020011444FEAD05260
:106370004FF07F4C1CEA410FA2EBD15318BF9CEAAF
:10638000026F4AD04FF0004C4CEA00204CEA012149
:1063900021FA03FCB0EB0C0C0FD412F0FE0F36D038
:1063A0005FEA4C001DD5001240EBC25038BF704769
:1063B0001CF03F0F18BF70470BE0A2F101025FEA2B
:1063C0001C2040EBC25038BF70471CF07F0F18BF35
:1063D0007047C3F12003994014BF401E20F0010014
:1063E000704780084FEA122308BF7047B0FA80FC5C
:1063F000A2EB0C02CCF1280C60FA0CF093EA122FFD
:1064000004BF00EBC25070474FEAC3707047130AD5
:106410005FEADC1008BF7047F6E79CEA026F04D021
:1064200010EA5C0F08BF0020704710B5FFF713FF9C
:1064300040DFF63E81F0004070474FF000007047AB
:10644000FAF739B90CF00F03092B08BF082000F048
:106450005F800A2B0BD0082B18BF704708BF1CF0B9
:10646000400F0AD04FF000004FF0000170471CF0C1
:10647000400F18BF4FF0004070471CF0100F08D0BD
:1064800020F0704300F07F4242EAD3014FEA4370AC
:10649000704700F0604021F07F4242EA000201F0C4
:1064A0007F4040EA727070474FF0FF0C4CF4E06C94
:1064B0001CEA11531CBF9CEA030C9445C2BFDA428C
:1064C00001EB02517047002B0DD0BCF1000F0FD033
:1064D000002A01F00041A4BF41F0E04141F07F619A
:1064E0004FF00000704701F000414FF0000070478E
:1064F00050EA01334FF09B0C18BF4CF0806C7FF4D6
:1065000015A87047FAF7FEBCFAF79CBEFBF72AB84D
:106510001CF4801F11D01CF4E02F03D06FEACC31A3
:10652000490070474FF04050EFF3008222F0704274
:1065300042EA000282F3008870474FF00000704783
:10654000000000000000000000000000000000004B
:10655000000000000000000000000000000000003B
:10656000000000000000000000000000000000002B
:10657000000000000000000000000000000000001B
:10658000000000000000000000000000000000000B
:1065900000000000000000000000000000000000FB
:1065A00000000000000000000000000000000000EB
:1065B00000000000000000000000000000000000DB
:1065C00000000000000000000000000000000000CB
:1065D00000000000000000000000000000000000BB
:1065E00000000000000000000000000000000000AB
:1065F000000000000000000000000000000000009B
:10660000000000000000000000000000000000008A
:10661000000000000000000000000000000000007A
:10662000000000000000000000000000000000006A
:10663000000000000000000000000000000000005A
:10664000000000000000000000000000000000004A
:10665000000000000000000000000000000000003A
:10666000000000000000000000000000000000002A
:10667000000000000000000000000000000000001A
:10668000000000000000000000000000000000000A
:1066900000000000000000000000000000000000FA
:1066A00000000000000000000000000000000000EA
:1066B00000000000000000000000000000000000DA
:1066C00000000000000000000000000000000000CA
:1066D00000000000FFFF00000000000000000000BC
:1066E00000000000000000000000000000000000AA
:1066F000000000000000000000000000000000009A
:106700000000000000000000000000000000000089
:106710000000000000000000000000000000000079
:106720000000000000000000000000000000000069
:106730000000000000000000000000000000000059
:10674000000000000000000000000000FFFF00004B
:106750000000000000000000000000000000000039
:10676000000000000000000000000000FFFF00002B
:106770000000000000000000000000000000000019
:106780000000000000000000000000000000000009
:1067900000000000000000000000000000000000F9
:1067A00000000000000000000000000000000000E9
:1067B00000000000000000000000000000000000D9
:1067C0000000FFFF000000000000000000000000CB
:1067D00000000000000000000000000000000000B9
:1067E000000000000000FFFF0000000000000000AB
:1067F0000000000000000000000000000000000099
:106800000000000000000000000000000000000088
:106810000000000000000000000000000000000078
:106820000000000000000000000000000000000068
:1068300000000000000000000000FFFF000000005A
:106840000000000000000000000000000000000048
:106850000000000000000000000000000000FFFF3A
:106860000000000000000000000000000000000028
:106870000000000000000000000000000000000018
:106880000000000000000000000000000000000008
:1068900000000000000000000000000000000000F8
:1068A00000000000000000000000000000000000E8
:1068B0000000FFFF000000000000000000000000DA
:1068C00000000000000000000000000000000000C8
:1068D000000000000000FFFF0000000000000000BA
:1068E00000000000000000000000000000000000A8
:1068F0000000000000000000000000000000000098
:106900000000000000000000000000000000000087
:106910000000000000000000000000000000000077
:1069200000000000000000000000FFFF0000000069
:106930000000000000000000000000000000000057
:106940000000000000000000000000000000FFFF49
:106950000000000000000000000000000000000037
:106960000000000000000000000000000000000027
:106970000000000000000000000000000000000017
:106980000000000000000000000000000000000007
:1069900000000000000000000000000000000000F7
:1069A0000000FFFF000000000000000000000000E9
:1069B00000000000000000000000000000000000D7
:1069C000000000007BEFFFFF00000000000000005F
:1069D00000000000000000000000000000000000B7
:1069E00000000000000000000000000000000000A7
:1069F0000000000000000000000000000000000097
:106A00000000000000000000000000000000000086
:106A100000000000000000000000FFFF84100000E4
:106A20000000000000000000000000000000000066
:106A3000000000000000000000000000FFFFFFFF5A
:106A40000000000000000000000000000000000046
:106A50000000000000000000000000000000000036
:106A60000000000000000000000000000000000026
:106A70000000000000000000000000000000000016
:106A80000000000000000000000000000000000006
:106A90000000FFFFFFFF00000000000000000000FA
:106AA00000000000000000000000000000000000E6
:106AB00000000000FFFFFFFF0000000000000000DA
:106AC00000000000000000000000000000000000C6
:106AD00000000000000000000000000000000000B6
:106AE00000000000000000000000000000000000A6
:106AF0000000000000000000000000000000000096
:106B000000000000000000000000FFFFFFFF000089
:106B10000000000000000000000000000000000075
:106B2000000000000000000000000000FFFFFFFF69
:106B30000000000000000000000000000000000055
:106B40000000000000000000000000000000000045
:106B50000000000000000000000000000000000035
:106B60000000000000000000000000000000000025
:106B70000000000000000000000000000000000015
:106B80000000FFFFFFFFFFFFFFFF0000000000000D
:106B90000000000000000000000000000000FFFFF7
:106BA00000000000FFFFFFFF0000000000000000E9
:106BB00000000000000000000000000000000000D5
:106BC00000000000000000000000000000000000C5
:106BD00000000000000000000000000000000000B5
:106BE00000000000000000000000000000000000A5
:106BF00000000000000000000000FFFFFFFFFFFF9B
:106C0000FFFF000000000000000000000000000086
:106C100000000000FFFFFFFF0000FFFFFFFFFFFF7E
:106C20000000000000000000000000000000000064
:106C30000000000000000000000000000000000054
:106C40000000000000000000000000000000000044
:106C50000000000000000000000000000000000034
:106C60000000000000000000000000000000000024
:106C70000000FFFF00000000000000000000000016
:106C8000000000000000000000000000FFFFFFFF08
:106C9000FFFF8410FFFF420800000000000000001A
:106CA00000000000000000000000000000000000E4
:106CB00000000000000000000000000000000000D4
:106CC00000000000000000000000000000000000C4
:106CD00000000000000000000000000000000000B4
:106CE00000000000000000000000FFFF00000000A6
:106CF0000000000000000000000000007BEFFFFF2C
:106D0000FFFFFFFFFFFFFFFFFFFFFFFFFFFF000091
:106D10000000000000000000000000000000000073
:106D20000000000000000000000000000000000063
:106D30000000000000000000000000000000000053
:106D40000000000000000000000000000000000043
:106D50000000000000000000000000000000000033
:106D60000000FFFFFFFF0000000000000000000027
:106D700039E7FFFFFFFFFFFFFFFFFFFFFFFFFFFF01
:106D8000FFFFFFFFFFFF0000000000000000000009
:106D900000000000000000000000000000000000F3
:106DA00000000000000000000000000000000000E3
:106DB00000000000000000000000000000000000D3
:106DC00000000000000000000000000000000000C3
:106DD000000000000000000000000000FFFF0000B5
:106DE0000000000000000000FFFFFFFFFFFFFFFFAB
:106DF000FFFFFFFFFFFFFFFFFFFFFFFF000000009F
:106E00000000000000000000000000000000000082
:106E10000000000000000000000000000000000072
:106E20000000000000000000000000000000000062
:106E30000000000000000000000000000000000052
:106E40000000000000000000000000000000000042
:106E500000000000FFFF0000000000000000000034
:106E6000FFFFFFFFFFFFFFFFFFFFFFFFFFFFFFFF32
:106E7000FFFFFFFF00000000000000000000000016
:106E80000000000000000000000000000000000002
:106E900000000000000000000000000000000000F2
:106EA00000000000000000000000000000000000E2
:106EB00000000000000000000000000000000000D2
:106EC0000000000000000000FFFFFFFFFFFF0000C8
:106ED000000000000000FFFFFFFFFFFFFFFFFFFFBC
:106EE000FFFFFFFFFFFFFFFFFFFFFFFFFFFF0000B0
:106EF0000000000000000000000000000000000092
:106F00000000000000000000000000000000000081
:106F10000000000000000000000000000000000071
:106F20000000000000000000000000000000000061
:106F30000000000000000000000000000000000051
:106F4000FFFF00008410FFFFFFFF00000000FFFFB5
:106F5000FFFFFFFFFFFFFFFFFFFFFFFFFFFFFFFF41
:106F6000FFFFFFFFFFFF0000000000000000000027
:106F70000000000000000000000000000000000011
:106F80000000000000000000000000000000000001
:106F900000000000000000000000000000000000F1
:106FA00000000000000000000000000000000000E1
:106FB0000000000000000000FFFF000000000000D3
:106FC0000000FFFFFFFFFFFFFFFFFFFFFFFFFFFFCF
:106FD000FFFFFFFFFFFF000000000000FFFFFFFFBB
:106FE00000000000000000000000000000000000A1
:106FF0000000000000000000000000000000000091
:107000000000000000000000000000000000000080
:107010000000000000000000000000000000000070
:107020000000000000000000000000000000000060
:107030000000FFFF0000000000000000FFFFFFFF56
:10704000FFFFFFFFFFFFFFFF000000000000000048
:107050000000FFFFFFFF0000BDF700000000000080
:107060000000000000000000000000000000000020
:107070000000000000000000000000000000000010
:107080000000000000000000000000000000000000
:1070900000000000000000000000000000000000F0
:1070A00000000000000000000000000000000000E0
:1070B00000007BEFFFFFFFFFFFFFFFFFFFFFFFFF72
:1070C0004208000000000000BDF7000000000000C2
:1070D000FFFF0000000000000000000000000000B2
:1070E00000000000000000000000000000000000A0
:1070F0000000000000000000000000000000000090
:10710000000000000000000000000000000000007F
:10711000000000000000000000000000000000006F
:107120000000000000000000000000000000FFFF61
:10713000FFFFFFFFFFFFFFFF000000000000000057
:10714000000000000000FFFFFFFF420800000000F9
:10715000000000000000000000000000000000002F
:10716000000000000000000000000000000000001F
:10717000000000000000000000000000000000000F
:1071800000000000000000000000000000000000FF
:1071900000000000000000000000000000000000EF
:1071A0000000000000000000FFFFFFFFFFFF0000E5
:1071B00000000000000000000000000000000000CF
:1071C000FFFF0000000000000000000000000000C1
:1071D00000000000000000000000000000000000AF
:1071E000000000000000000000000000000000009F
:1071F000000000000000000000000000000000008F
:10720000000000000000000000000000000000007E
:10721000000000000000000000000000000000006E
:10722000FFFFFFFF00000000000000000000000062
:107230000000000000000000FFFF00000000000050
:10724000000000000000000000000000000000003E
:10725000000000000000000000000000000000002E
:10726000000000000000000000000000000000001E
:10727000000000000000000000000000000000000E
:1072800000000000000000000000000000000000FE
:1072900000000000000000000000000000000000EE
:1072A00000000000000000000000000000000000DE
:1072B000C6180000000000000000000000000000F0
:1072C00000000000000000000000000000000000BE
:1072D00000000000000000000000000000000000AE
:1072E000000000000000000000000000000000009E
:1072F000000000000000000000000000000000008E
:1074E00000000000FFFFFFFFFFFF000000000000A2
:1074F000000000000000000000000000000000008C
:107500000000420800000000000000000000000031
:10751000000000000000000000000000000000006B
:10752000000000000000000000000000000000005B
:10753000000000000000000000000000000000004B
:10754000000000000000000000000000000000003B
:10755000000000000000FFFFFFFFFFFFFFFFFFFF35
:10756000FFFFFFFFFFFFFFFFFFFFC6180000000047
:10757000FFFFFFFFFFFFFFFFFFFF0000FFFF000017
:1075800000000000000000000000000000000000FB
:1075900000000000000000000000000000000000EB
:1075A00000000000000000000000000000000000DB
:1075B00000000000000000000000000000000000CB
:1075C000000000000000000000007BEFFFFFFFFF55
:1075D000FFFFFFFFFFFFFFFFFFFFFFFFFFFFFFFFBB
:1075E000FFFF00000000FFFF0000FFFFFFFFFFFFA5
:1075F000FFFFFFFFFFFFFFFFFFFF00000000000095
:10760000000000000000000000000000000000007A
:10761000000000000000000000000000000000006A
:10762000000000000000000000000000000000005A
:10763000000000000000000000000000000000004A
:107640000000FFFFFFFFFFFFFFFFFFFFFFFFFFFF48
:10765000FFFFFFFFFFFFFFFFFFFFFFFF0000000036
:10766000FFFFFFFFFFFFFFFFFFFFFFFFFFFFFFFF2A
:10767000FFFFFFFF0000000000000000000000000E
:1076800000000000000000000000000000000000FA
:1076900000000000000000000000000000000000EA
:1076A00000000000000000000000000000000000DA
:1076B0000000000000000000FFFFFFFFFFFFFFFFD2
:1076C000FFFFFFFFFFFFFFFFFFFFFFFFFFFFFFFFCA
:1076D000FFFFFFFFFFFFFFFFFFFFFFFFFFFFFFFFBA
:1076E000FFFFFFFFFFFFFFFFFFFFFFFFFFFF0000A8
:1076F000000000000000000000000000000000008A
:107700000000000000000000000000000000000079
:107710000000000000000000000000000000000069
:107720000000000000000000000000000000FFFF5B
:10773000FFFFFFFFFFFFFFFFFFFFFFFFFFFFFFFF59
:1077400084100000FFFFFFFFFFFFFFFFFFFFFFFFB1
:10775000FFFFFFFFFFFFFFFFFFFFFFFFFFFFFFFF39
:10776000FFFFFFFFFFFF000000000000000000001F
:107770000000000000000000000000000000000009
:1077800000000000000000000000000000000000F9
:1077900000000000000000000000000000000000E9
:1077A000000000000000FFFF0000FFFFFFFFFFFFE1
:1077B000FFFF00000000FFFFFFFFFFFFFFFFFFFFD5
:1077C000FFFFFFFFFFFFFFFFFFFFFFFFFFFFFFFFC9
:1077D000FFFF84100000FFFFFFFFFFFFFFFF00001F
:1077E0000000000000000000000000000000000099
:1077F0000000000000000000000000000000000089
:107800000000000000000000000000000000000078
:107810000000000000000000000000000000000068
:10782000FFFFFFFFFFFFFFFFFFFF00000000000062
:10783000000000007BEFFFFFFFFFFFFFFFFFFFFFE8
:10784000FFFFFFFFFFFFFFFF00000000FFFFFFFF44
:10785000FFFFFFFFFFFF000000000000000000002E
:107860000000000000000000000000000000000018
:107870000000000000000000000000000000000008
:1078800000000000000000000000000000000000F8
:107890000000000000000000FFFFFFFFFFFFFFFFF0
:1078A000FFFFFFFF00000000000000000000841048
:1078B0000000FFFFFFFFFFFFFFFFFFFFFFFF0000D4
:1078C00000000000FFFFFFFFFFFFFFFFFFFFFFFFC4
:1078D00000000000000000000000000000000000A8
:1078E0000000000000000000000000000000000098
:1078F0000000000000000000000000000000000088
:107900000000000000000000000000000000FFFF79
:10791000FFFFFFFFFFFFFFFFFFFFFFFF0000000073
:10792000000000000000FFFFFFFFFFFFFFFFFFFF61
:10793000FFFFFFFFFFFFFFFF00000000FFFFFFFF53
:10794000FFFFFFFFFFFFFFFFBDF70000000000008B
:107950000000000000000000000000000000000027
:107960000000000000000000000000000000000017
:107970000000000000000000000000000000000007
:10798000000000000000FFFFFFFFFFFFFFFFFFFF01
:10799000FFFFFFFF000000000000000000000000EB
:1079A000FFFF00007BEFFFFFFFFFFFFFFFFF000077
:1079B0000000FFFFFFFFFFFFFFFFFFFFFFFFFFFFD5
:1079C000FFFF0000000000000000000000000000B9
:1079D00000000000000000000000000000000000A7
:1079E0000000000000000000000000000000000097
:1079F0000000000000000000000000000000FFFF89
:107A0000FFFFFFFFFFFFFFFFFFFF00000000000080
:107A10000000000000000000FFFF0000FFFFFFFF6C
:107A2000FFFFFFFFFFFF00000000FFFFFFFFFFFF62
:107A3000FFFFFFFFFFFFFFFFFFFF00000000000050
:107A40000000000000000000000000000000000036
:107A50000000000000000000000000000000000026
:107A60000000000000000000000000000000000016
:107A7000000000007BEFFFFFFFFFFFFFFFFFFFFFA6
:107A8000FFFF0000000000000000000000000000F8
:107A9000FFFFFFFFFFFFFFFFFFFFFFFFFFFF0000F4
:107AA000000000000000FFFFFFFFFFFFFFFFFFFFE0
:107AB000FFFF0000000000000000000000000000C8
:107AC00000000000000000000000000000000000B6
:107AD00000000000000000000000000000000000A6
:107AE000000000000000000000000000FFFFFFFF9A
:107AF000FFFFFFFFFFFFFFFFFFFF00000000000090
:107B00000000000000000000000000000000000075
:107B10000000000000000000000000007BEFFFFFFD
:107B2000FFFF4208FFFFFFFFFFFF00000000000013
:107B30000000000000000000000000000000000045
:107B40000000000000000000000000000000000035
:107B50000000000000000000000000000000000025
:107B600000000000FFFFFFFFFFFFFFFFFFFFFFFF21
:107B7000FFFF000000000000000000000000000007
:107B80000000FFFF0000FFFF000000000000FFFFFB
:107B900000000000FFFFFFFFFFFF0000FFFFFFFFEF
:107BA00000000000000000000000000000000000D5
:107BB00000000000000000000000000000000000C5
:107BC00000000000000000000000000000000000B5
:107BD00000000000FFFFFFFF000000000000FFFFAB
:107BE000FFFF0000FFFFFFFFFFFF0000000000009D
:107BF00000000000000000000000FFFF0000FFFF89
:107C0000000000000000000000000000FFFFFFFF78
:107C1000FFFF000000000000000000000000000066
:107C20000000000000000000000000000000000054
:107C30000000000000000000000000000000000044
:107C400000000000FFFF420800000000FFFFFFFFF0
:107C5000FFFFFFFF0000000039E7FFFFFFFFFFFF0E
:107C6000FFFF000000000000000000000000FFFF18
:107C700000000000000000008410FFFF0000000072
:107C8000FFFF0000FFFFFFFFFFFFFFFF00000000FE
:107C900000000000FFFFFFFFFFFF000000000000EA
:107CA00000000000000000000000000000000000D4
:107CB000000000000000420800007BEFFFFFFFFF14
:107CC000FFFFFFFFFFFF00000000000000000000BA
:107CD000FFFFFFFFFFFFFFFF0000000000000000AC
:107CE000FFFFFFFFFFFFFFFFFFFFFFFFFFFFFFFFA4
:107CF000FFFFFFFFFFFFFFFFFFFF000039E7FFFF70
:107D0000FFFFFFFF00000000FFFFFFFFFFFFFFFF7F
:107D1000FFFFFFFFFFFFFFFFFFFF0000000000006D
:107D2000000000000000000000000000FFFFFFFF57
:107D3000FFFFFFFFFFFFFFFFFFFFFFFFFFFF000051
:107D40000000000000000000FFFFFFFFFFFF000039
:107D50000000000000000000FFFFFFFFFFFFFFFF2B
:107D6000FFFFFFFFFFFFFFFFFFFFFFFFFFFFFFFF23
:107D7000FFFFFFFF0000FFFFFFFFFFFF000000000D
:107D80000000BDF7FFFFFFFFFFFFFFFFFFFFFFFF4B
:107D9000FFFFFFFF000000000000000000000000E7
:107DA00000000000FFFFFFFFFFFFFFFFFFFFFFFFDF
:107DB000FFFFFFFFFFFFFFFF000000000000FFFFCD
:107DC000FFFFFFFFFFFF0000000000000000FFFFBB
:107DD000FFFFFFFFFFFFFFFFFFFFFFFFFFFFFFFFB3
:107DE000FFFFFFFFFFFFFFFFFFFFFFFF0000FFFFA1
:107DF000FFFFFFFFFFFF000039E7FFFFFFFFFFFF6F
:107E0000FFFFFFFFFFFFFFFF00000000000000007A
:107E10000000000000000000000000000000000062
:107E2000000000008410FFFFFFFFFFFFFFFFFFFFC8
:107E3000FFFFFFFFFFFFFFFFFFFFFFFF000000004E
:107E4000841000000000FFFFFFFFFFFFFFFFFFFFA8
:107E5000FFFFFFFFFFFFFFFFFFFFFFFFFFFFFFFF32
:107E6000FFFFFFFFFFFFFFFFFFFFFFFFFFFFFFFF22
:107E7000FFFFFFFFFFFFFFFFFFFFFFFF841000007A
:107E800000000000000000000000000000000000F2
:107E900000000000000000000000000000000000E2
:107EA000000000000000000000000000000084103E
:107EB000FFFF42080000000000000000FFFFFFFF7E
:107EC000FFFFFFFFFFFFFFFFFFFFFFFFFFFFFFFFC2
:107ED000FFFFFFFFFFFFFFFFFFFFFFFFFFFFFFFFB2
:107EE0000000FFFFFFFFFFFF841000000000000004
:107EF0000000000000000000000000000000000082
:107F00000000000000000000000000000000000071
:107F10000000000000000000000000000000000061
:107F20000000000000000000000000000000FFFF53
:107F30000000FFFFFFFFFFFFFFFFFFFFFFFFFFFF4F
:107F4000FFFFFFFFFFFFFFFFFFFFFFFFFFFFFFFF41
:107F5000FFFFFFFFFFFFFFFF4208000000000000DF
:107F60000000000000000000000000000000000011
:107F70000000000000000000000000000000000001
:107F800000000000000000000000000000000000F1
:107F900000000000000000000000000000000000E1
:107FA0000000000000000000FFFFFFFFFFFFFFFFD9
:107FB000FFFFFFFFFFFFFFFF0000000000000000C9
:107FC0008410FFFFFFFFFFFFFFFFFFFFFFFFFFFF2B
:107FD00000000000000000000000000000000000A1
:107FE0000000000000000000000000000000000091
:107FF0000000000000000000000000000000000081
:108000000000000000000000000000000000000070
:108010000000000000000000000000000000000060
:108020000000000000000000000000000000000050
:108030000000000000000000000000000000000040
:108040000000000000000000000000000000000030
:108050000000000000000000000000000000000020
:108060000000000000000000000000000000000010
:108070000000000000000000000000000000000000
:1080800000000000000000000000000000000000F0
:1080900000000000000000000000000000000000E0
:1080A00000000000000000000000000000000000D0
:1080B00000000000000000000000000000000000C0
:1080C00000000000000000000000000000000000B0
:1080D00000000000000000000000000000000000A0
:1080E0000000000000000000000000000000000090
:1080F0000000000000000000000000000000000080
:10810000000000000000000000000000000000006F
:10811000000000000000000000000000000000005F
:10812000000000000000000000000000000000004F
:10813000000000000000000000000000000000003F
:10814000000000000000000000000000000000002F
:10815000000000000000000000000000000000001F
:10816000000000000000000000000000000000000F
:108170000000000808080808080800001818000097
:1081800000486C2412000000000000000000000005
:108190000000002424247F1212127F121212000009
:1081A0000000081C2A2A0A0C1828282A2A1C080859
:1081B00000000022251515152A5854545422000099
:1081C0000000000C1212120A76252911916E00008F
:1081D000000606040300000000000000000000008C
:1081E000004020101008080808080810102040005F
:1081F00000020408081010101010100808040200F3
:108200000000000008086B1C1C6B08080000000040
:1082100000000000080808087F080808080000009F
:10822000000000000000000000000000060604033B
:108230000000000000000000FE0000000000000040
:108240000000000000000000000000000606000022
:1082500000008040402020101008080404020200A2
:1082600000000018244242424242424224180000C8
:10827000000000080E08080808080808083E00006A
:108280000000003C4242422020100804427E0000D0
:108290000000003C4242201820404042221C0000C6
:1082A000000000203028242422227E202078000094
:1082B0000000007E0202021A26404042221C0000FA
:1082C000000000382402021A26424242241800000C
:1082D0000000007E2222101008080808080800008C
:1082E0000000003C4242422418244242423C00002A
:1082F000000000182442424264584040241C000000
:10830000000000000000181800000000181800000D
:108310000000000000000008000000000008080441
:108320000000004020100804020408102040000053
:108330000000000000007F0000007F00000000003F
:108340000000000204081020402010080402000071
:108350000000003C42424640201010001818000067
:108360000000001C225A555555552D42221C000074
:108370000000000808181414243C224242E70000C0
:108380000000001F2222221E22424242221F000021
:108390000000007C4242010101010142221C000058
:1083A0000000001F2242424242424242221F00007D
:1083B0000000003F4212121E12120242423F000011
:1083C0000000003F4212121E1212020202070000B9
:1083D0000000003C2222010101712122221C000028
:1083E000000000E7424242427E42424242E7000031
:1083F0000000003E0808080808080808083E0000B9
:108400000000007C10101010101010101010110F30
:108410000000007722120A0E0A12122222770000B0
:10842000000000070202020202020202427F000074
:1084300000000077363636362A2A2A2A2A6B0000B0
:10844000000000E346464A4A525252626247000028
:108450000000001C2241414141414141221C0000D9
:108460000000003F424242423E0202020207000078
:108470000000001C2241414141414D53321C60002B
:108480000000003F4242423E1212222242C7000038
:108490000000007C4242020418204042423E00009C
:1084A0000000007F4908080808080808081C0000A8
:1084B000000000E74242424242424242423C000047
:1084C000000000E742422224241414180808000087
:1084D0000000006B494949495555362222220000C7
:1084E000000000E7422424181818242442E7000062
:1084F000000000772222141408080808081C000055
:108500000000007E2120101008040442423F0000B9
:10851000007808080808080808080808080878000B
:108520000000020204040808081010202020404027
:10853000001E1010101010101010101010101E003F
:1085400000384400000000000000000000000000AF
:10855000000000000000000000000000000000FF1C
:1085600000060800000000000000000000000000FD
:10857000000000000000003C4278444242FC000041
:10858000000000030202021A26424242261A00009C
:1085900000000000000000384402020244380000DD
:1085A00000000060404040784442424264D80000ED
:1085B000000000000000003C427E0202423C00003D
:1085C000000000F08808087E08080808083E00003F
:1085D000000000000000007C22221C023C42423CC1
:1085E000000000030202023A4642424242E7000013
:1085F0000000000C0C00000E08080808083E0000EF
:108600000000003030000038202020202020221ED2
:108610000000000302020272120A16122277000002
:108620000000000E0808080808080808083E0000B6
:10863000000000000000007F9292929292B700002A
:10864000000000000000003B4642424242E70000BA
:10865000000000000000003C42424242423C000058
:10866000000000000000001B26424242221E0207BA
:10867000000000000000007844424242447840E09C
:1086800000000000000000774C040404041F0000F8
:10869000000000000000007C42023C40423E00001E
:1086A000000000000008083E080808080830000024
:1086B00000000000000000634242424262DC000011
:1086C00000000000000000E7422424140808000015
:1086D00000000000000000EB49495555222200002F
:1086E000000000000000007624181818246E000016
:1086F00000000000000000E74224241418080807C6
:10870000000000000000007E22100808447E0000E7
:1087100000C0202020202010202020202020C00069
:108720001010101010101010101010101010101049
:1087300000060808080808100808080808080600C5
:108740000C32C20000000000000000000000000029
:108750000000000000000000000000000000000019
:108760000000000000000000000000000000000009
:1087700000000000000000000000000000000000F9
:108780000000000000000000600060006000600069
:108790006000600060004000200020002000000019
:1087A00000000000600060006000000000000000A9
:1087B0000000000060066006300398018800440055
:1087C00000000000000000000000000000000000A9
:1087D0000000000000000000000000000000000099
:1087E0000000000000000000100210021002100241
:1087F000FE07FE0708020801080108010801FE073C
:10880000FE0704010401040104010000000000004F
:1088100000000000000040004000F00158034C033D
:10882000CC034C0058007000E000C001C0014003C0
:108830004C035C034C034801F00040004000000082
:1088400000000000000000000E010A0191009100EC
:108850009100510051003A00AE03A00250045004B0
:108860004804480448048402840300000000000017
:10887000000000000000000038006C006C006C007C
:108880006C006C002C0098071C011A0133013301A5
:108890006301E300C308C6093C07000000000000B4
:1088A000000000000C001C00100010000800040074
:1088B00000000000000000000000000000000000B8
:1088C00000000000000000000000000000000000A8
:1088D0000000000000040002000180008000400051
:1088E0004000200020002000200020002000200068
:1088F00040004000800080000001000200040000F1
:108900000000000002000400080010001000200019
:108910002000400040004000400040004000400077
:1089200020002000100010000800040002000000D9
:108930000000000000000000000000004000C00037
:108940004000460C4E0FD001F0015E0F460C400077
:108950004000400000000000000000000000000097
:1089600000000000000000000000000000004000C7
:108970004000400040004000FE0F4000400040002A
:108980004000400000000000000000000000000067
:1089900000000000000000000000000000000000D7
:1089A00000000000000000000000000000000000C7
:1089B000000000000C001C00100010000800040063
:1089C00000000000000000000000000000000000A7
:1089D0000000000000000000FE0700000000000092
:1089E0000000000000000000000000000000000087
:1089F0000000000000000000000000000000000077
:108A00000000000000000000000000000000000066
:108A1000000000001C001C001C0000000000000002
:108A20000000000000040006000200030001000135
:108A30008000800040004000600020002000100006
:108A40001000080008000C000400060002000000EE
:108A500000000000000000000000F00098010C037E
:108A60000C030606060606060606060606060606A3
:108A700006060C030C039801F00000000000000043
:108A80000000000000000000000040007C006000CA
:108A900060006000600060006000600060006000D6
:108AA0006000600060006000FC0300000000000047
:108AB00000000000000000000000F8008401020334
:108AC00006030603000300018001C00060002000CF
:108AD0001000080204020602FE030000000000006D
:108AE000000000000000000000007800C6008601C1
:108AF000860180018001C000700080010001000338
:108B00000003060306038601F800000000000000D1
:108B10000000000000000000000080018001C00192
:108B2000A001A00190018801880184018201FE0F4B
:108B30008001800180018001E0070000000000004A
:108B400000000000000000000000FC03040004001E
:108B5000040004000400F4008C010403000300037B
:108B60000603060382018401F800000000000000F3
:108B700000000000000000000000E00118030C03EA
:108B80000C0004000600E60116030E0606060606A3
:108B9000060604060C021803F000000000000000A6
:108BA00000000000000000000000F8070C060402AE
:108BB00004010001000180008000400040004000EE
:108BC00060006000600060006000000000000000C5
:108BD00000000000000000000000F8010C03060681
:108BE000060606060C021C03F000C8010C0306066C
:108BF0000606060606060C03F00100000000000051
:108C000000000000000000000000F0000C010C0358
:108C1000060206060606060606078C067806000605
:108C2000000300030C018C0178000000000000002C
:108C30000000000000000000000000000000000034
:108C400000000000E000E000E00000000000000084
:108C500000000000E000E000E00000000000000074
:108C60000000000000000000000000000000000004
:108C70000000000060006000000000000000000034
:108C800000000000000060006000400020002000A4
:108C9000000000000000000000040002000180004D
:108CA0004000200010000800040008001000200010
:108CB00040008000000100020004000000000000ED
:108CC00000000000000000000000000000000000A4
:108CD00000000000FE07000000000000FE0700008A
:108CE0000000000000000000000000000000000084
:108CF0000000000000000000040008001000200038
:108D00004000800000010002000400020001800019
:108D100040002000100008000400000000000000D7
:108D200000000000000000000000E0031806040C32
:108D3000040C0C0C0C0C00078001400040004000AB
:108D400000000000E000E000E00000000000000083
:108D50000000000000000000E00018030C02CC0539
:108D600064056605A605B604B604B604B604B602E4
:108D7000E4010C040C021803F000000000000000E5
:108D800000000000000000000000600060005000D3
:108D9000D00090009000880088010801F8010403C9
:108DA00004030402020202060F0F0000000000008C
:108DB00000000000000000000000FE008C030C0317
:108DC0000C030C030C038C01FC000C030C020C06BE
:108DD0000C060C060C060C03FE010000000000004F
:108DE00000000000000000000000E00318030C0673
:108DF0000C04040406000600060006000600060037
:108E000006040C040C021803F0000000000000002F
:108E1000000000000000000000007F008C010C0337
:108E20000C030C060C060C060C060C060C060C06B5
:108E30000C060C030C038C017F00000000000000F6
:108E400000000000000000000000FF03060306040D
:108E50000604060086008600FE0086008600860066
:108E60000600060406040602FF03000000000000DE
:108E700000000000000000000000FF0306030604DD
:108E80000604060086008600FE0086008600860036
:108E900006000600060006001F000000000000009B
:108EA00000000000000000000000F00018010C02AB
:108EB0000C0204020600060006000600C60F0603A8
:108EC00006030C030C031803F00000000000000070
:108ED000000000000000000000000F0F060606065C
:108EE0000606060606060606FE0706060606060629
:108EF00006060606060606060F0F00000000000024
:108F000000000000000000000000FC0360006000A2
:108F10006000600060006000600060006000600051
:108F20006000600060006000FC03000000000000C2
:108F300000000000000000000000F807C000C000B2
:108F4000C000C000C000C000C000C000C000C00021
:108F5000C000C000C000C000C000C60066003C00E9
:108F600000000000000000000000CF038601C600E2
:108F700046002600160036002E006E004600C60091
:108F800086008601060106038F070000000000002E
:108F9000000000000000000000001F0006000600A6
:108FA0000600060006000600060006000600060091
:108FB0000600060406040602FF030000000000008D
:108FC0000000000000000000000007078603860381
:108FD0008E038E034E034E034A035A035A033A0389
:108FE000320332033203120387070000000000003F
:108FF000000000000000000000008E0F0C021C02A8
:109000001C0234023402640264024402C402840278
:1090100084038403040304031F0200000000000013
:1090200000000000000000000000F00098010C03A8
:109030000C020606060606060606060606060606CE
:1090400006060C020C039801F0000000000000006E
:1090500000000000000000000000FF0006030606FC
:1090600006060606060606068603FE00060006003D
:1090700006000600060006001F00000000000000B9
:1090800000000000000000000000F00098010C0348
:109090000C0206060606060606060606060606066E
:1090A00076064C02CC039801F00080070003000014
:1090B00000000000000000000000FF01060306069B
:1090C0000606060606060603FE004600C6008600E3
:1090D00086010603060306060F0E000000000000CE
:1090E00000000000000000000000F8020C0306026F
:1090F000060206000E003C00F800E00380030007B3
:109100000206020606060C03F00100000000000043
:1091100000000000000000000000FE07620461087B
:109120006108600060006000600060006000600036
:109130006000600060006000F801000000000000B6
:10914000000000000000000000001E070C020C02DE
:109150000C020C020C020C020C020C020C020C029F
:109160000C020C020C021801F000000000000000CC
:10917000000000000000000000000F0706020401CC
:1091800004010C010C018800880098009800500030
:10919000500070003000200020000000000000009F
:1091A00000000000000000000000F70E620442040E
:1091B0004604460464026402E402E4029C029C0148
:1091C00098019801880188008800000000000000D4
:1091D000000000000000000000009E070C010801D4
:1091E00018019000B0006000200060006000D00016
:1091F00090008801080104038E07000000000000B1
:10920000000000000000000000000F0F0604040230
:109210000C0208011801B800B00070006000600086
:109220006000600060006000F801000000000000C5
:1092300000000000000000000000FC070C02060314
:10924000020180018000400040002000200010004A
:10925000180008040C040402FE03000000000000D3
:1092600000000000E003200020002000200020007B
:1092700020002000200020002000200020002000EE
:10928000200020002000200020002000E00300003B
:1092900000000000000000000400040008000800B6
:1092A0001000100010002000200040004000C0000E
:1092B00080008000000100010002000200020004A2
:1092C000000000007C0040004000400040004000E2
:1092D000400040004000400040004000400040008E
:1092E0004000400040004000400040007C00000082
:1092F0000000600090000801000000000000000075
:10930000000000000000000000000000000000005D
:10931000000000000000000000000000000000004D
:10932000000000000000000000000000000000003D
:10933000000000000000000000000000000000002D
:109340000000000000000000000000000000FF0F0F
:109350000000000018006000000000000000000095
:1093600000000000000000000000000000000000FD
:1093700000000000000000000000000000000000ED
:1093800000000000000000000000000000000000DD
:1093900000000000F0010C030C030003E0031C03B9
:1093A0000E03060306038E0B7C0E00000000000077
:1093B000000000000000000008000E000C000C007F
:1093C0000C000C00CC013C031C060C060C060C0621
:1093D0000C060C060C021C03E40100000000000057
:1093E000000000000000000000000000000000007D
:1093F00000000000F0008C018C01860106000600D0
:10940000060006020C020C01F00000000000000043
:1094100000000000000000000002C0030003000381
:109420000003000378038C030C0306030603060302
:109430000603060304038C07780100000000000007
:10944000000000000000000000000000000000001C
:1094500000000000E001180308020C060C06FC07DF
:109460000C000C0018041802E001000000000000CD
:1094700000000000000000000000C003600630068D
:1094800030003000FE01300030003000300030008D
:109490003000300030003000FC010000000000000F
:1094A00000000000000000000000000000000000BC
:1094B00000000000F007D8068C018C018C01980197
:1094C000F8000C00FC00CC03060306038E03F80032
:1094D000000000000000000008000E000C000C005E
:1094E0000C000C00EC011C030C030C030C030C031C
:1094F0000C030C030C030C039E070000000000008B
:10950000000000000000000000006000600000009B
:10951000000040007C0060006000600060006000AF
:109520006000600060006000FC03000000000000BC
:1095300000000000000000000000C001C0010000A9
:1095400000000001F00180018001800180018001A4
:10955000800180018001800180018001CC007C00BD
:10956000000000000000000008000E000C000C00CD
:109570000C000C008C038C008C004C006C005C0018
:109580008C008C010C010C039E0700000000000001
:10959000000000000000000040007C00600060004F
:1095A00060006000600060006000600060006000BB
:1095B0006000600060006000FC030000000000002C
:1095C000000000000000000000000000000000009B
:1095D000000000003707EE066606660666066606A9
:1095E0006606660666066606FF0F000000000000BD
:1095F000000000000000000000000000000000006B
:1096000000000000EE011C030C030C030C030C0310
:109610000C030C030C030C039E0700000000000069
:10962000000000000000000000000000000000003A
:1096300000000000F00098010C030606060606066E
:10964000060606060C030C03F000000000000000F4
:10965000000000000000000000000000000000000A
:1096600000000000EE011C030C060C060C060C06A4
:109670000C060C060C031C03EC010C000C003E0055
:1096800000000000000000000000000000000000DA
:109690000000000078028C030C0306030603060397
:1096A0000603060304038C03780300030003C007CA
:1096B00000000000000000000000000000000000AA
:1096C000000000009F035806380618001800180014
:1096D0001800180018001800FF000000000000002B
:1096E000000000000000000000000000000000007A
:1096F00000000000F0031C030C020C023800F00014
:10970000C003040304038C03FC01000000000000FC
:109710000000000000000000000000002000200009
:1097200030003000FE0130003000300030003000EA
:109730003000300030023002E00100000000000084
:109740000000000000000000000000000000000019
:10975000000008028E030C030C030C030C030C0323
:109760000C030C030C039C077801000000000000B0
:1097700000000000000000000000000000000000E9
:10978000000000001E070C020801080118019000EB
:10979000B000B00060006000200000000000000089
:1097A00000000000000000000000000000000000B9
:1097B00000000000F70E6204460464026402EC023A
:1097C0009C01980198019801080000000000000029
:1097D0000000000000000000000000000000000089
:1097E00000000000BC0718011001B000600060001C
:1097F000E0009000080108039E0700000000000040
:109800000000000000000000000000000000000058
:10981000000000009E070801080108019000900068
:10982000B0006000600060002000200024001C00E8
:109830000000000000000000000000000000000028
:1098400000000000FC018401C4004400600020000E
:109850003000180208020C03FC01000000000000A8
:109860000000000000038000800080008000800075
:1098700080008000800040002000400080008000C8
:1098800080008000800080008000800000030000D5
:1098900040004000400040004000400040004000C8
:1098A00040004000400040004000400040004000B8
:1098B00040004000400040004000400040004000A8
:1098C000000000000C00100010001000100010003C
:1098D00010001000100020004000200010001000B8
:1098E0001000100010001000100010000C0000000C
:1098F00000001C002204C2048003000000000000DD
:109900000000000000000000000000000000000057
:109910000000000000000000000000000000000047
:109920000000000000000000000000000000000037
:109930000000000000000000000000000000000027
:109940000000000000000000000000000000000017
:109950000000000000000000000000000000000007
:1099600000000000000000000000C001C001C001B4
:10997000C001C001C001C0018000800080008000E3
:1099800080008000800000000000000000008001D6
:10999000C003C003800100000000000000000000C0
:1099A000000000000000E01CE01CF01E700E3807F4
:1099B00018030801840000000000000000000000FF
:1099C0000000000000000000000000000000000097
:1099D0000000000000000000000000000000000087
:1099E0000000000000000000000000002010201017
:1099F000201020102010FE7FFE7F10081008100895
:109A00001008100810081008FE7FFE7F08040804E4
:109A10000804080408040000000000000000000022
:109A2000000000000000000000010001C0076019F4
:109A3000103118311839183938017001E001C003AC
:109A40008007000F001D003900311C311C310C3122
:109A50000C11180DE00700010001000100000000DA
:109A60000000000000000000000000001C1036187C
:109A70006308630C63046304630263026301361DBD
:109A80009C3780228063406340632063206330639F
:109A900010221836081C0000000000000000000022
:109AA000000000000000000000000000F00098012D
:109AB0008C018C018C018C018C00CC007800183E4C
:109AC0001C083608320863046304C304C3038343D9
:109AD00006438E26781C00000000000000000000F5
:109AE0000000000000001C003C003C003000300082
:109AF00010000C0006000000000000000000000044
:109B00000000000000000000000000000000000055
:109B10000000000000000000000000000000000045
:109B20000000000000000040002000100008000CB1
:109B3000000400060003000300038001800180018F
:109B40008001800180018001800100030003000387
:109B500000060006000C0008001000200040000075
:109B600000000000000002000400080010003000A7
:109B700020006000C000C000C000800180018001A2
:109B800080018001800180018001C000C000C00010
:109B900060006000300010000800040002000000B7
:109BA00000000000000000000000000000000000B5
:109BB00000018003800300011C713C79783DC007DF
:109BC0000001C007783D3C791C71000180038003CF
:109BD0008001000000000000000000000000000004
:109BE0000000000000000000000000000000000075
:109BF000000000010001000100010001000100015E
:109C0000FC7F0001000100010001000100010001D2
:109C10000000000000000000000000000000000044
:109C20000000000000000000000000000000000034
:109C30000000000000000000000000000000000024
:109C40000000000000000000000000000000000014
:109C50001C003C003C003000300010000C000600EE
:109C600000000000000000000000000000000000F4
:109C700000000000000000000000000000000000E4
:109C8000FE7F000000000000000000000000000057
:109C900000000000000000000000000000000000C4
:109CA00000000000000000000000000000000000B4
:109CB00000000000000000000000000000000000A4
:109CC000000000000000000000000000000018007C
:109CD0003C003C00180000000000000000000000F4
:109CE0000000000000000040006000200030001074
:109CF00000180008000C0004000600020003000128
:109D000080018000C0004000600020003000100092
:109D1000180008000C00040006000200000000000B
:109D2000000000000000000000000000C007600C00
:109D300030181830183018200C600C600C600C6063
:109D40000C600C600C600C600C601820183018302F
:109D50003018600CC0070000000000000000000088
:109D60000000000000000000000000000001800171
:109D7000F801800180018001800180018001800163
:109D800080018001800180018001800180018001CB
:109D90008001C003F81F0000000000000000000068
:109DA000000000000000000000000000E007101CA0
:109DB0000818043004300C300C3000300018000853
:109DC0000004000200018000400020201020082034
:109DD0000430FC1FFC1F0000000000000000000019
:109DE000000000000000000000000000E003180E6A
:109DF0000C0C0C180C180C180018000C0006C003F2
:109E0000000E00180010003000300C300C300C1028
:109E10000C18180CE0030000000000000000000017
:109E2000000000000000000000000000000C000E18
:109E3000000E000F800E800E400E600E200E100EE1
:109E4000100E080E040E040EFE7F000E000E000E13
:109E5000000E000E000EC07F000000000000000099
:109E6000000000000000000000000000F03FF03F94
:109E700010001000100008000800C807280C18186F
:109E8000081000300030003000300C300C30041866
:109E90000418080CF003000000000000000000009F
:109EA000000000000000000000000000800FC01053
:109EB000203010301800180008000C008C0F6C18AF
:109EC0003C301C600C600C600C600C60186018204A
:109ED00030306018C00700000000000000000000E3
:109EE000000000000000000000000000F83FF83F04
:109EF0001C100C0804080404000400020002000105
:109F000000010001800080008000C000C000C0008F
:109F1000C000C000C0000000000000000000000001
:109F2000000000000000000000000000E007300C0E
:109F300018180C300C300C301C3038187008E00742
:109F4000B007180E0C1C06380630063006300630F6
:109F50000C18180CE00300000000000000000000D6
:109F6000000000000000000000000000E0031804F2
:109F70000C080C180610063006300630063006387D
:109F80000C3C1836F03100300018001800180C0C8A
:109F90000C060C03F00100000000000000000000AF
:109FA00000000000000000000000000000000000B1
:109FB000000000000000000000008001C003C0039A
:109FC000800100000000000000000000000080018F
:109FD000C003C0038001000000000000000000007A
:109FE0000000000000000000000000000000000071
:109FF00000000000000000000000C000C0000000E1
:10A000000000000000000000000000000000000050
:10A010000000C000C0008000800040004000000040
:10A0200000000000000000000000002000100008F8
:10A030000004000600038001C0006000300018002A
:10A040000C00180030006000C00080010003000612
:10A0500000040008001000200000000000000000C4
:10A0600000000000000000000000000000000000F0
:10A0700000000000000000000000FE7F0000000063
:10A08000000000000000FE7F000000000000000053
:10A0900000000000000000000000000000000000C0
:10A0A0000000000000000000000004000800100094
:10A0B00020006000C000800100030006000C0018B2
:10A0C00000300018000C000600038001C000600092
:10A0D0002000100008000400000000000000000044
:10A0E00000000000000000000000C0073018083029
:10A0F00008600C601C601C601C600030001C0006C6
:10A1000000018000800080008000000000008001CD
:10A11000C003C00380010000000000000000000038
:10A12000000000000000000000000000C0076018F0
:10A13000103018200C2F8C4D864CC64CC64C664CEB
:10A1400066446644662666266615CC1C0C400820CC
:10A1500018303018C00700000000000000000000A8
:10A16000000000000000000000000001C001C0016C
:10A17000C0014001600320032003200330061006C5
:10A1800010061006F80F080C080C080C0C0C04182C
:10A19000041806181F7C00000000000000000000EA
:10A1A000000000000000000000000000FE07181C76
:10A1B000183818301830183018301818180CF807DC
:10A1C0001818183018201860186018601860186087
:10A1D00018301818FE0F00000000000000000000FA
:10A1E000000000000000000000000000C0276038F0
:10A1F000103018200C400C40040006000600060039
:10A20000060006000600060006000C400C400C206C
:10A2100018303018C00700000000000000000000E7
:10A22000000000000000000000000000FE03180E07
:10A230001818183018301830186018601860186036
:10A2400018601860186018601860183018301810FE
:10A250001818180EFE0300000000000000000000A7
:10A26000000000000000000000000000FE3F183069
:10A27000182018601840180018081808180CF80F53
:10A28000180C180818081800180018001840184072
:10A2900018201830FE3F0000000000000000000001
:10A2A000000000000000000000000000FE7F1870A9
:10A2B000184018C018801800181018101818F81F27
:10A2C0001818181018101800180018001800180096
:10A2D000180018007E0000000000000000000000D0
:10A2E000000000000000000000000000C013701C0F
:10A2F000101018100C200C200400060006000600A8
:10A300000600060006FC063006300C300C30183013
:10A3100018303008C00700000000000000000000F6
:10A320000000000000000000000000003F7E0C184C
:10A330000C180C180C180C180C180C180C180C18FD
:10A34000FC1F0C180C180C180C180C180C180C18F6
:10A350000C180C183F7E00000000000000000000F8
:10A36000000000000000000000000000F81F800155
:10A3700080018001800180018001800180018001D5
:10A3800080018001800180018001800180018001C5
:10A3900080018001F81F00000000000000000000A4
:10A3A000000000000000000000000000E07F000648
:10A3B000000600060006000600060006000600066D
:10A3C000000600060006000600060006000600065D
:10A3D00000060006000600060E060E038E01FC00B5
:10A3E0000000000000000000000000007E7C181843
:10A3F0001808180418061802180198019801D801C5
:10A40000B803380318071806180E180C181C18186B
:10A41000183018307EFC0000000000000000000032
:10A420000000000000000000000000007E00180096
:10A43000180018001800180018001800180018005C
:10A4400018001800180018001800180018401840CC
:10A4500018201830FE3F000000000000000000003F
:10A460000000000000000000000000001FF81C3881
:10A470001C381C381C3C3434343434343436743294
:10A480006432643264326431C431C431C431C430A2
:10A49000C43084309FFC0000000000000000000079
:10A4A0000000000000000000000000001F7C1C10E5
:10A4B0003C103410341074106410E410C410C41133
:10A4C00084118413041304170416041E041C041CB2
:10A4D000041C04181F180000000000000000000009
:10A4E000000000000000000000000000C003300C6D
:10A4F000181808100C300C30066006600660066004
:10A50000066006600660066006600C200C300810CD
:10A510001818300CC003000000000000000000000C
:10A52000000000000000000000000000FE0F1818EE
:10A530001830186018601860186018601830181803
:10A54000F80F18001800180018001800180018005C
:10A55000180018007E00000000000000000000004D
:10A56000000000000000000000000000C003300CEC
:10A5700018180C100C300C2006600660066006608F
:10A5800006600660066006600660E4612C331C32DB
:10A590001816300EC007004C007C00380000000088
:10A5A000000000000000000000000000FE07181C72
:10A5B000183818301830183018301818180CF807D8
:10A5C00098031803180718061806180E180C180C0C
:10A5D000181C18187E780000000000000000000021
:10A5E000000000000000000000000000E0273038FC
:10A5F00018300C200C200C000C0018007800E00330
:10A60000800F001E00380070006004600460086065
:10A6100018303818C80F00000000000000000000CB
:10A62000000000000000000000000000FC3F8C2142
:10A63000846182418241800180018001800180012A
:10A640008001800180018001800180018001800102
:10A6500080018001E0070000000000000000000011
:10A660000000000000000000000000003F7C0C1013
:10A670000C100C100C100C100C100C100C100C10FA
:10A680000C100C100C100C100C100C100C100C10EA
:10A6900008083804E003000000000000000000008B
:10A6A0000000000000000000000000003EF818203C
:10A6B000182018203010301030103010600860085A
:10A6C0006008E00CC004C004C00480038003800361
:10A6D00080030001000100000000000000000000F5
:10A6E000000000000000000000000000DFF38661B1
:10A6F000862186218C210C218C238C138C138C13A6
:10A700004C1358125816580E380E380E380E300C9E
:10A7100010041004100400000000000000000000FD
:10A720000000000000000000000000007E3E18084D
:10A7300038083004300470026002E001C001C0013A
:10A74000800180034003400720062006100C100CF7
:10A75000081808183E7C00000000000000000000FF
:10A760000000000000000000000000007E7C1C10C3
:10A77000181018083008300C700460046002C00221
:10A78000C002C00180018001800180018001800140
:10A7900080018001E00700000000000000000000D0
:10A7A000000000000000000000000000F83F181842
:10A7B0000818040C040E0006000700038003800143
:10A7C000C001C000E0006000700030003820182098
:10A7D0001C100C18FE1F000000000000000000000C
:10A7E000000000000000C03F40004000400040006A
:10A7F0004000400040004000400040004000400059
:10A800004000400040004000400040004000400048
:10A8100040004000400040004000C03F00000000F9
:10A8200000000000000000000000080018001800F0
:10A83000100030002000600060004000C000800078
:10A8400080018001000100030002000600060004F0
:10A85000000C000800180018001000300020000054
:10A86000000000000000FC030002000200020002E1
:10A8700000020002000200020002000200020002C8
:10A8800000020002000200020002000200020002B8
:10A8900000020002000200020002FC0300000000AF
:10A8A0000000000000008007C00620081010000013
:10A8B0000000000000000000000000000000000098
:10A8C0000000000000000000000000000000000088
:10A8D0000000000000000000000000000000000078
:10A8E0000000000000000000000000000000000068
:10A8F0000000000000000000000000000000000058
:10A900000000000000000000000000000000000047
:10A910000000000000000000000000000000FFFF39
:10A920000000000000007800C000000100000000EE
:10A930000000000000000000000000000000000017
:10A940000000000000000000000000000000000007
:10A9500000000000000000000000000000000000F7
:10A9600000000000000000000000000000000000E7
:10A9700000000000000000000000F00318060C0CAE
:10A980000C0C000C800F700C1C0C0C0C060C060C34
:10A99000064C0C4FF83800000000000000000000DA
:10A9A0000000000000000000000010001E00180061
:10A9B00018001800180018001800180FD8183830A0
:10A9C00038601860186018601860186018601820E7
:10A9D00038307818C80700000000000000000000B0
:10A9E0000000000000000000000000000000000067
:10A9F00000000000000000000000C007700C1818E4
:10AA000018180C180C000C000C000C000C2018205E
:10AA100018103008C007000000000000000000000F
:10AA2000000000000000000000000010001E0018E0
:10AA300000180018001800180018E01B301C181827
:10AA400018180C180C180C180C180C180C180818DE
:10AA5000181C307AE009000000000000000000002F
:10AA600000000000000000000000000000000000E6
:10AA700000000000000000000000C007300C1818A3
:10AA800008100C300C30FC3F0C000C000C0018209F
:10AA900018107018C007000000000000000000003F
:10AAA000000000000000000000000000003E80C325
:10AAB00080C0C0C0C000C000C000FC1FC000C000FB
:10AAC000C000C000C000C000C000C000C000C00086
:10AAD000C000C000F80F00000000000000000000EF
:10AAE0000000000000000000000000000000000066
:10AAF00000000000000000000000C077306C10185B
:10AB00001818181818181018300CF007180018002A
:10AB1000F00FF03F08700C600C600C603838E00FEC
:10AB20000000000000000000000010001E001800DF
:10AB300018001800180018001800980FD81838309E
:10AB400018301830183018301830183018301830C5
:10AB5000183018307EFC00000000000000000000EB
:10AB600000000000000000000000000080038003DF
:10AB700080030000000000000001F8018001800156
:10AB800080018001800180018001800180018001BD
:10AB900080018001F81F000000000000000000009C
:10ABA0000000000000000000000000000038003835
:10ABB00000380000000000000010801F001800187E
:10ABC00000180018001800180018001800180018C5
:10ABD00000180018001800180018180C1806F003C8
:10ABE0000000000000000000000010001E0018001F
:10ABF00018001800180018001800183E180C180645
:10AC0000180318019801D801380318071806180C02
:10AC1000181C18187E7C00000000000000000000D6
:10AC2000000000000000000000000001F8018001A9
:10AC3000800180018001800180018001800180010C
:10AC400080018001800180018001800180018001FC
:10AC500080018001F81F00000000000000000000DB
:10AC600000000000000000000000000000000000E4
:10AC700000000000000000000800EE1C9C338C3136
:10AC80008C318C318C318C318C318C318C318C31DC
:10AC90008C318C31DE7B00000000000000000000E1
:10ACA00000000000000000000000000000000000A4
:10ACB000000000000000000010001E0FD8183830FF
:10ACC0001830183018301830183018301830183044
:10ACD000183018307EFC000000000000000000006A
:10ACE0000000000000000000000000000000000064
:10ACF00000000000000000000000C007701C1030C1
:10AD000018300C600C600C600C600C600C6018302B
:10AD100018303018C00700000000000000000000DC
:10AD20000000000000000000000000000000000023
:10AD3000000000000000000010009E0F581838307E
:10AD400018201860186018601860186018601830B3
:10AD500038307818980718001800180018007E007E
:10AD600000000000000000000000000000000000E3
:10AD700000000000000000000000C023303C183834
:10AD800018300C300C300C300C300C300C300830DB
:10AD90001838303CE033003000300030003000FC28
:10ADA00000000000000000000000000000000000A3
:10ADB000000000000000000060007E3C60666061F2
:10ADC000E000E00060006000600060006000600083
:10ADD00060006000FE0700000000000000000000AE
:10ADE0000000000000000000000000000000000063
:10ADF00000000000000000000000E027303818309C
:10AE0000182018007000E003800F001C043004308C
:10AE10000C301C18EC0F00000000000000000000C7
:10AE20000000000000000000000000000000000022
:10AE3000800080008000C000E000FC1FC000C00057
:10AE4000C000C000C000C000C000C000C000C020E2
:10AE5000C0208011000F0000000000000000000072
:10AE600000000000000000000000000000000000E2
:10AE7000000000000000000010201E3C18301830B8
:10AE80001830183018301830183018301830183082
:10AE9000183830F4E013000000000000000000004B
:10AEA00000000000000000000000000000000000A2
:10AEB000000000000000000000007E3C1818180888
:10AEC000380830043004700260026002E001C00102
:10AED000C001C00080000000000000000000000071
:10AEE0000000000000000000000000000000000062
:10AEF00000000000000000000000DFF78E630C235C
:10AF00008C238C239813981358165816700E700EB5
:10AF1000700E20042004000000000000000000006B
:10AF20000000000000000000000000000000000021
:10AF300000000000000000000000FC3E70087004EB
:10AF4000E004C002C0018003800340076006200CBB
:10AF5000100C18183E7E00000000000000000000E9
:10AF600000000000000000000000000000000000E1
:10AF7000000000000000000000007E7C1818180887
:10AF800030083008300460046004C002C002C0020F
:10AF90008001800180018000800080004C003C0026
:10AFA00000000000000000000000000000000000A1
:10AFB00000000000000000000000FC1F0C0C040E4C
:10AFC0000406000380038001C000E00070203020F0
:10AFD00038301C18FC1F00000000000000000000BA
:10AFE000000000000000003000080004000400041D
:10AFF0000004000400040004000400040004000233
:10B0000080010002000400040004000400040004A5
:10B0100000040004000400040004000800300000E4
:10B020000001000100010001000100010001000118
:10B030000001000100010001000100010001000108
:10B0400000010001000100010001000100010001F8
:10B0500000010001000100010001000100010001E8
:10B060000000000000000C00100020002000200064
:10B0700020002000200020002000200020004000B0
:10B08000800140002000200020002000200020003F
:10B090002000200020002000200010000C000000F4
:10B0A00000003800C400864002610022001C00003D
:10B0B0000000000000000000000000000000000090
:10B0C0000000000000000000000000000000000080
:10B0D0000000000000000000000000000000000070
:10B0E000D6D0000000000000001800000800000892
:10B0F00000000800080818F8FF1F1808181808189A
:10B10000180818180818180818180818F8FF1F0841
:10B1100008080008000008000008000008000018E7
:10B1200000001800001800000000BEB00000000081
:10B130000000400006C0FF07400006C0FF074000B7
:10B1400006C0FF07400802003000FEFF3F0000007D
:10B15000C0FF07C00002C00002C00002C0FF0380A1
:10B16000100080110160100E3010180C1E30001CF1
:10B1700000000000D4B0000000000000080030F81B
:10B18000FF1F08001008C010083F1008001008003A
:10B1900010080013C8FF10082210082210082210FF
:10B1A00008221008211208211488601648C01328AC
:10B1B0000010080010F8FF1F080010000000B5E79D
:10B1C0000000000000000018000008000008000057
:10B1D0000800F0FF0F1008041008041008041008FD
:10B1E00004F0FF07100804100804100804100804F5
:10B1F000F0FF0710080000081000081000082000E9
:10B20000183000F01F000000D7D30000000000003D
:10B21000000004F0FF0F00000600000100C0000065
:10B220002800001800001800001830FEFF7F0018EA
:10B230000000180000180000180000180000180096
:10B24000001800001800001800001F00000C00008B
:10B250000000D6D0000000000000000000800000C8
:10B2600000800100008001000080010000800100DA
:10B27000008001001080010CF0FFFF0F30800104FE
:10B2800030800104308001043080010430800104EA
:10B29000308001043080010430800104F0FFFF079A
:10B2A0003080010430800104008001000080010032
:10B2B000008001000080010000800100008001008A
:10B2C000008001000080010000800100008000007B
:10B2D00000000000BEB00000000000000000000000
:10B2E00000000001800100FFFF0100038001000356
:10B2F000800100FFFF01000380010003800100FFC7
:10B30000FF0100818100000003000000031CFCFF1E
:10B31000FF3F000040000003C00100FFFF010003E9
:10B32000C0000003C0000003C00000FFFF000001D8
:10B33000410000040100000E71000007810180013E
:10B3400001076000010E1898011C04E0011800C0FC
:10B35000000000000000D4B0000000000000000069
:10B3600000000008F0FFFF1F3000000C3000000C50
:10B370003000100C30FE3F0C3004000C3000000C8C
:10B380003000000C3000000C3000C00CF0FFFF0D4E
:10B390003030060E3030060C3010060C3010060C23
:10B3A0003010060C3018860C3018860C3008060D4C
:10B3B000300C860D3006EE0F3002FC0D3001000C13
:10B3C000F000000C3000000CF0FFFF0F3000000C0C
:10B3D0001000000400000000B5E7000000000000BD
:10B3E000000000C0000000C0010000C0000000C05C
:10B3F000000000C0000000C00000E0FFFF0360C0CC
:10B40000000360C0000360C0000360C0000360C0B0
:10B41000000360C00003E0FFFF0360C0000360C0E2
:10B42000000360C0000360C0000360C00003E0FFD1
:10B43000FF0360C0000160C0000000C0000800C041
:10B44000001000C0001000C0001800C001380080CB
:10B45000FF1F0000000000000000D7D30000000024
:10B46000000000000000000000000003C0FFFF0714
:10B47000000080070000C00000006000000018000D
:10B4800000000C0000800300008003000080010029
:10B49000008001080080011CFCFFFF3F00800100CC
:10B4A0000080010000800100008001000080010098
:10B4B0000080010000800100008001000080010088
:10B4C00000800100008001000080010000FC0100FC
:10B4D00000E000000040000000000000024000000A
:10B4E000000000A00000000005400000000000C8AF
:10B4F000000000000C4000000000409C0000000024
:10B50000194000000020BCBE0000000034400000D4
:10B51000BFC91B8E00000004B5400000504BCFD0C7
:10B520006607E2CF010000006C4100003E8251AA94
:10B53000DFEEA73401000000D9420000DCB5A0E234
:10B540003A301F97FFFFFFFFB4450000FD25A0C85C
:10B55000E9A3C14FFFFFFFFFFF3F00000000008095
:10B5600000000000FF3F000000000080000000001D
:10B57000CCB6000800000020600000006C0100084C
:10B580002CB7000860000020300B00008801000884
:10B59000000000000000F07FFFFFFFFFFFFFEF7FD4
:10B5A0001C00000043000000F8FFFFFF0C0000003B
:10B5B0000E0000000F0000002E000000100100002F
:10B5C00043000000F8FFFFFF004040404040404083
:10B5D0004040414141414140404040404040404066
:10B5E000404040404040404040050202020202020A
:10B5F0000202020202020202022020202020202059
:10B60000202020020202020202029090909090906C
:10B61000101010101010101010101010101010102A
:10B62000101010100202020202028888888888889E
:10B63000080808080808080808080808080808088A
:10B640000808080802020202400000000000000092
:10B6500000000000000000000000000000000000EA
:10B6600000000000000000000000000000000000DA
:10B6700000000000000000000000000000000000CA
:10B6800000000000000000000000000000000000BA
:10B6900000000000000000000000000000000000AA
:10B6A000000000000000000000000000000000009A
:10B6B000000000000000000000000000000000008A
:10B6C000000000000000000000000000000000007A
:10B6D00000000000000000000000000000F8000072
:10B6E000000000000000000000000000173B3700D1
:10B6F000000000000000000000000000000000004A
:10B700000000000000A24A04000000000000000049
:10B7100001020304060708090000000001020304F7
:0CB72000010203040607080902040608E1
:0400000508000131BD
:00000001FF
