Component: ARM Compiler 5.06 update 7 (build 960) Tool: armlink [4d3601]

==============================================================================

Section Cross References

    main.o(i.Mian_Init) refers to lcd.o(i.LCD_Init) for LCD_Init
    main.o(i.Mian_Init) refers to adc.o(i.ADCx_Init) for ADCx_Init
    main.o(i.Mian_Init) refers to dac.o(i.DACx_Init) for DACx_Init
    main.o(i.Mian_Init) refers to dac.o(i.DACx_Set_Vol) for DACx_Set_Vol
    main.o(i.Mian_Init) refers to mlx90614.o(i.Mlx90614_Init) for Mlx90614_Init
    main.o(i.Mian_Init) refers to key.o(i.KEY_Init) for KEY_Init
    main.o(i.Mian_Init) refers to bzz.o(i.BZZ_Init) for BZZ_Init
    main.o(i.Mian_Init) refers to uart.o(i.UARTx_Init) for UARTx_Init
    main.o(i.Mian_Init) refers to steering_engine.o(i.Init_Steering_Engine_T4) for Init_Steering_Engine_T4
    main.o(i.Mian_Init) refers to motor.o(i.Motorx_Init) for Motorx_Init
    main.o(i.Mian_Init) refers to motor.o(i.Motorx_Control) for Motorx_Control
    main.o(i.Mian_Init) refers to steering_engine.o(i.Steering_Engine_Angle) for Steering_Engine_Angle
    main.o(i.Mian_Init) refers to lcd.o(i.LCD_Fill) for LCD_Fill
    main.o(i.Mian_Init) refers to lcd.o(i.LCD_ShowPicture) for LCD_ShowPicture
    main.o(i.Mian_Init) refers to lcd.o(i.LCD_ShowString) for LCD_ShowString
    main.o(i.Mian_Init) refers to stmflash.o(i.STMFLASH_Read) for STMFLASH_Read
    main.o(i.Mian_Init) refers to system_stm32f10x.o(.data) for SystemCoreClock
    main.o(i.Mian_Init) refers to main.o(.constdata) for gImage_am_60
==============================================================================

Removing Unused input sections from the image.

    Removing encoder.o(i.ENCODEx_Init), (52 bytes).
    Removing encoder.o(i.Encoder_Init_TIM1), (168 bytes).
    Removing encoder.o(i.Encoder_Init_TIM2), (216 bytes).
    Removing encoder.o(i.Encoder_Init_TIM3), (164 bytes).
    Removing encoder.o(i.Encoder_Init_TIM5), (164 bytes).
    Removing encoder.o(i.Read_Encoder), (116 bytes).
    Removing encoder.o(i.TIM1_IRQHandler), (24 bytes).
    Removing sys_time.o(i.Delay_S), (26 bytes).
    Removing stmflash.o(i.Test_Write), (16 bytes).
    Removing spi.o(i.SPI_SetSpeed), (16 bytes).
    Removing spi.o(i.SPI_Software_Init), (96 bytes).
    Removing spi.o(i.SPI_Write_And_Read), (68 bytes).
    Removing spi.o(i.SPI_Write_And_Read_Byte), (168 bytes).
    Removing spi.o(.bss), (20 bytes).
    Removing spi.o(.data), (8 bytes).
    Removing key.o(i.KEY_Input), (4 bytes).
    Removing lcd.o(i.Draw_Circle), (158 bytes).
    Removing lcd.o(i.LCD_DrawLine), (172 bytes).
==============================================================================

Image Symbol Table

    Local Symbols

    Symbol Name                              Value     Ov Type        Size  Object(Section)

    ../clib/angel/boardlib.s                 0x00000000   Number         0  boardinit1.o ABSOLUTE
    ../clib/angel/boardlib.s                 0x00000000   Number         0  boardinit2.o ABSOLUTE
    ../clib/angel/boardlib.s                 0x00000000   Number         0  boardinit3.o ABSOLUTE
    ../clib/angel/boardlib.s                 0x00000000   Number         0  boardshut.o ABSOLUTE
    ../clib/angel/handlers.s                 0x00000000   Number         0  __scatter_copy.o ABSOLUTE
    ../clib/angel/handlers.s                 0x00000000   Number         0  __scatter_zi.o ABSOLUTE
    ../clib/angel/kernel.s                   0x00000000   Number         0  __rtentry4.o ABSOLUTE
    ../clib/angel/kernel.s                   0x00000000   Number         0  __rtentry.o ABSOLUTE
    ../clib/angel/kernel.s                   0x00000000   Number         0  rtexit.o ABSOLUTE
    ../clib/angel/kernel.s                   0x00000000   Number         0  rtexit2.o ABSOLUTE
    ../clib/angel/kernel.s                   0x00000000   Number         0  __rtentry2.o ABSOLUTE
    ../clib/angel/rt.s                       0x00000000   Number         0  rt_errno_addr.o ABSOLUTE
    ../clib/angel/rt.s                       0x00000000   Number         0  rt_locale_intlibspace.o ABSOLUTE
    ../clib/angel/rt.s                       0x00000000   Number         0  rt_locale.o ABSOLUTE
    ../clib/angel/rt.s                       0x00000000   Number         0  rt_errno_addr_intlibspace.o ABSOLUTE
    ../clib/angel/rt.s                       0x00000000   Number         0  rt_raise.o ABSOLUTE
    ../clib/angel/rt.s                       0x00000000   Number         0  rt_ctype_table.o ABSOLUTE
    ../clib/angel/scatter.s                  0x00000000   Number         0  __scatter.o ABSOLUTE
    ../clib/angel/startup.s                  0x00000000   Number         0  __main.o ABSOLUTE
    ../clib/angel/sys.s                      0x00000000   Number         0  sys_stackheap_outer.o ABSOLUTE
    ../clib/angel/sys.s                      0x00000000   Number         0  libspace.o ABSOLUTE
    ../clib/angel/sys.s                      0x00000000   Number         0  indicate_semi.o ABSOLUTE
    ../clib/angel/sys.s                      0x00000000   Number         0  use_no_semi.o ABSOLUTE
    ../clib/angel/sysapp.c                   0x00000000   Number         0  sys_command.o ABSOLUTE
    ../clib/angel/sysapp.c                   0x00000000   Number         0  sys_exit.o ABSOLUTE
    ../clib/angel/sysapp.c                   0x00000000   Number         0  sys_wrch.o ABSOLUTE
    ../clib/armsys.c                         0x00000000   Number         0  argv_veneer.o ABSOLUTE
    ../clib/armsys.c                         0x00000000   Number         0  no_argv.o ABSOLUTE
    ../clib/armsys.c                         0x00000000   Number         0  _get_argv_nomalloc.o ABSOLUTE
    ../clib/armsys.c                         0x00000000   Number         0  argv_veneer.o ABSOLUTE
    ../clib/bigflt.c                         0x00000000   Number         0  bigflt0.o ABSOLUTE
    ../clib/btod.s                           0x00000000   Number         0  btod.o ABSOLUTE
    ../clib/ctype.c                          0x00000000   Number         0  isspace.o ABSOLUTE
    ../clib/fenv.c                           0x00000000   Number         0  _rserrno.o ABSOLUTE
    ../clib/heapalloc.c                      0x00000000   Number         0  hrguard.o ABSOLUTE
    ../clib/heapaux.c                        0x00000000   Number         0  heapauxi.o ABSOLUTE
    ../clib/libinit.s                        0x00000000   Number         0  libinit.o ABSOLUTE
    ../clib/libinit.s                        0x00000000   Number         0  libinit2.o ABSOLUTE
    ../clib/libinit.s                        0x00000000   Number         0  libshutdown2.o ABSOLUTE
    ../clib/libinit.s                        0x00000000   Number         0  libshutdown.o ABSOLUTE
    ../clib/locale.s                         0x00000000   Number         0  lc_numeric_c.o ABSOLUTE
    ../clib/locale.s                         0x00000000   Number         0  lc_ctype_c.o ABSOLUTE
    ../clib/longlong.s                       0x00000000   Number         0  lludiv10.o ABSOLUTE
    ../clib/longlong.s                       0x00000000   Number         0  llshl.o ABSOLUTE
    ../clib/memcpset.s                       0x00000000   Number         0  strcmpv7m.o ABSOLUTE
    ../clib/misc.s                           0x00000000   Number         0  printf_stubs.o ABSOLUTE
    ../clib/printf.c                         0x00000000   Number         0  __printf_wp.o ABSOLUTE
    ../clib/printf.c                         0x00000000   Number         0  noretval__2sprintf.o ABSOLUTE
    ../clib/printf.c                         0x00000000   Number         0  __2sprintf.o ABSOLUTE
    ../clib/printf.c                         0x00000000   Number         0  __printf_flags_wp.o ABSOLUTE
    ../clib/printf.c                         0x00000000   Number         0  __printf_ss_wp.o ABSOLUTE
    ../clib/printf.c                         0x00000000   Number         0  _printf_fp_infnan.o ABSOLUTE
    ../clib/printf.c                         0x00000000   Number         0  __printf_flags_ss_wp.o ABSOLUTE
    ../clib/printf.c                         0x00000000   Number         0  __printf_nopercent.o ABSOLUTE
    ../clib/printf.c                         0x00000000   Number         0  _printf_pad.o ABSOLUTE
    ../clib/printf.c                         0x00000000   Number         0  _printf_intcommon.o ABSOLUTE
    ../clib/printf.c                         0x00000000   Number         0  _printf_char_common.o ABSOLUTE
    ../clib/printf.c                         0x00000000   Number         0  __printf.o ABSOLUTE
    ../clib/printf.c                         0x00000000   Number         0  _printf_dec.o ABSOLUTE
    ../clib/printf.c                         0x00000000   Number         0  _sputc.o ABSOLUTE
    ../clib/printf.c                         0x00000000   Number         0  _printf_fp_dec.o ABSOLUTE
    ../clib/printf.c                         0x00000000   Number         0  __printf_flags.o ABSOLUTE
    ../clib/printf.c                         0x00000000   Number         0  __printf_ss.o ABSOLUTE
    ../clib/printf.c                         0x00000000   Number         0  __printf_flags_ss.o ABSOLUTE
    ../clib/printf_percent.s                 0x00000000   Number         0  _printf_d.o ABSOLUTE
    ../clib/printf_percent.s                 0x00000000   Number         0  _printf_f.o ABSOLUTE
    ../clib/printf_percent.s                 0x00000000   Number         0  _printf_percent.o ABSOLUTE
    ../clib/printf_percent.s                 0x00000000   Number         0  _printf_percent_end.o ABSOLUTE
    ../clib/scanf.c                          0x00000000   Number         0  scanf_infnan.o ABSOLUTE
    ../clib/scanf.c                          0x00000000   Number         0  scanf_hexfp.o ABSOLUTE
    ../clib/scanf.c                          0x00000000   Number         0  _sgetc.o ABSOLUTE
    ../clib/scanf.c                          0x00000000   Number         0  strtod.o ABSOLUTE
    ../clib/scanf.c                          0x00000000   Number         0  scanf_fp.o ABSOLUTE
    ../clib/scanf.c                          0x00000000   Number         0  _chval.o ABSOLUTE
    ../clib/signal.c                         0x00000000   Number         0  defsig_rtmem_formal.o ABSOLUTE
    ../clib/signal.c                         0x00000000   Number         0  defsig_rtmem_inner.o ABSOLUTE
    ../clib/signal.c                         0x00000000   Number         0  defsig_exit.o ABSOLUTE
    ../clib/signal.c                         0x00000000   Number         0  defsig_fpe_inner.o ABSOLUTE
    ../clib/signal.c                         0x00000000   Number         0  defsig_rtred_inner.o ABSOLUTE
    ../clib/signal.c                         0x00000000   Number         0  defsig_segv_inner.o ABSOLUTE
    ../clib/signal.c                         0x00000000   Number         0  defsig_abrt_inner.o ABSOLUTE
    ../clib/signal.c                         0x00000000   Number         0  defsig_pvfn_inner.o ABSOLUTE
    ../clib/signal.c                         0x00000000   Number         0  defsig_cppl_inner.o ABSOLUTE
    ../clib/signal.c                         0x00000000   Number         0  defsig_other.o ABSOLUTE
    ../clib/signal.c                         0x00000000   Number         0  defsig_stak_inner.o ABSOLUTE
    ../clib/signal.c                         0x00000000   Number         0  __raise.o ABSOLUTE
    ../clib/signal.c                         0x00000000   Number         0  defsig_general.o ABSOLUTE
    ../clib/signal.c                         0x00000000   Number         0  defsig_rtmem_outer.o ABSOLUTE
    ../clib/signal.s                         0x00000000   Number         0  defsig.o ABSOLUTE
    ../clib/stdlib.c                         0x00000000   Number         0  exit.o ABSOLUTE
    ../fplib/d2f.s                           0x00000000   Number         0  d2f.o ABSOLUTE
    ../fplib/daddsub.s                       0x00000000   Number         0  daddsub_clz.o ABSOLUTE
    ../fplib/dcheck1.s                       0x00000000   Number         0  dcheck1.o ABSOLUTE
    ../fplib/dcmpi.s                         0x00000000   Number         0  dcmpi.o ABSOLUTE
    ../fplib/ddiv.s                          0x00000000   Number         0  ddiv.o ABSOLUTE
    ../fplib/deqf.s                          0x00000000   Number         0  deqf.o ABSOLUTE
    ../fplib/dfix.s                          0x00000000   Number         0  dfix.o ABSOLUTE
    ../fplib/dflt.s                          0x00000000   Number         0  dflt_clz.o ABSOLUTE
    ../fplib/dleqf.s                         0x00000000   Number         0  dleqf.o ABSOLUTE
    ../fplib/dmul.s                          0x00000000   Number         0  dmul.o ABSOLUTE
    ../fplib/dnaninf.s                       0x00000000   Number         0  dnaninf.o ABSOLUTE
    ../fplib/dretinf.s                       0x00000000   Number         0  dretinf.o ABSOLUTE
    ../fplib/drleqf.s                        0x00000000   Number         0  drleqf.o ABSOLUTE
    ../fplib/f2d.s                           0x00000000   Number         0  f2d.o ABSOLUTE
    ../fplib/faddsub.s                       0x00000000   Number         0  faddsub_clz.o ABSOLUTE
    ../fplib/fcmpi.s                         0x00000000   Number         0  fcmpi.o ABSOLUTE
    ../fplib/fdiv.s                          0x00000000   Number         0  fdiv.o ABSOLUTE
    ../fplib/ffixu.s                         0x00000000   Number         0  ffixu.o ABSOLUTE
    ../fplib/fflt.s                          0x00000000   Number         0  fflt_clz.o ABSOLUTE
    ../fplib/fleqf.s                         0x00000000   Number         0  fleqf.o ABSOLUTE
    ../fplib/fmul.s                          0x00000000   Number         0  fmul.o ABSOLUTE
    ../fplib/fnaninf.s                       0x00000000   Number         0  fnaninf.o ABSOLUTE
    ../fplib/fpconst.s                       0x00000000   Number         0  fpconst.o ABSOLUTE
    ../fplib/fpinit.s                        0x00000000   Number         0  fpinit.o ABSOLUTE
    ../fplib/fretinf.s                       0x00000000   Number         0  fretinf.o ABSOLUTE
    ../fplib/frleqf.s                        0x00000000   Number         0  frleqf.o ABSOLUTE
    ../fplib/istatus.s                       0x00000000   Number         0  istatus.o ABSOLUTE
    ../fplib/printf1.s                       0x00000000   Number         0  printf1.o ABSOLUTE
    ../fplib/retnan.s                        0x00000000   Number         0  retnan.o ABSOLUTE
    ../fplib/scalbn.s                        0x00000000   Number         0  scalbn.o ABSOLUTE
    ../fplib/scanf1.s                        0x00000000   Number         0  scanf1.o ABSOLUTE
    ../fplib/scanf2.s                        0x00000000   Number         0  scanf2.o ABSOLUTE
    ../fplib/scanf2a.s                       0x00000000   Number         0  scanf2a.o ABSOLUTE
    ../fplib/scanf2b.s                       0x00000000   Number         0  scanf2b.o ABSOLUTE
    ../fplib/trapv.s                         0x00000000   Number         0  trapv.o ABSOLUTE
    ../fplib/usenofp.s                       0x00000000   Number         0  usenofp.o ABSOLUTE
    ../mathlib/atof.c                        0x00000000   Number         0  atof.o ABSOLUTE
    ../mathlib/dunder.c                      0x00000000   Number         0  dunder.o ABSOLUTE
    ../mathlib/fpclassify.c                  0x00000000   Number         0  fpclassify.o ABSOLUTE
    ../mathlib/frexp.c                       0x00000000   Number         0  frexp.o ABSOLUTE
    ../mathlib/ldexp.c                       0x00000000   Number         0  ldexp.o ABSOLUTE
    ../mathlib/ldexp.c                       0x00000000   Number         0  ldexp_x.o ABSOLUTE
    ../mathlib/narrow.c                      0x00000000   Number         0  narrow.o ABSOLUTE
    ../mathlib/qnan.c                        0x00000000   Number         0  qnan.o ABSOLUTE
    ..\CMSIS\core_cm3.c                      0x00000000   Number         0  core_cm3.o ABSOLUTE
    ..\CMSIS\system_stm32f10x.c              0x00000000   Number         0  system_stm32f10x.o ABSOLUTE
    ..\Lib\Base\ADC.c                        0x00000000   Number         0  adc.o ABSOLUTE
    ..\Lib\Base\DAC.c                        0x00000000   Number         0  dac.o ABSOLUTE
    ..\Lib\Base\Data_Handle.c                0x00000000   Number         0  data_handle.o ABSOLUTE
    ..\Lib\Base\Encoder.c                    0x00000000   Number         0  encoder.o ABSOLUTE
    ..\Lib\Base\IIC.c                        0x00000000   Number         0  iic.o ABSOLUTE
    ..\Lib\Base\PWM.c                        0x00000000   Number         0  pwm.o ABSOLUTE
    ..\Lib\Base\SPI.c                        0x00000000   Number         0  spi.o ABSOLUTE
    ..\Lib\Base\Sys_Time.c                   0x00000000   Number         0  sys_time.o ABSOLUTE
    ..\Lib\Base\stmflash.c                   0x00000000   Number         0  stmflash.o ABSOLUTE
    ..\Lib\Base\uart.c                       0x00000000   Number         0  uart.o ABSOLUTE
    ..\Lib\Mode\BZZ.c                        0x00000000   Number         0  bzz.o ABSOLUTE
    ..\Lib\Mode\Motor.c                      0x00000000   Number         0  motor.o ABSOLUTE
    ..\Lib\Mode\Steering_engine.c            0x00000000   Number         0  steering_engine.o ABSOLUTE
    ..\Lib\Mode\Tracing.c                    0x00000000   Number         0  tracing.o ABSOLUTE
    ..\Lib\Mode\Ultrasonic.c                 0x00000000   Number         0  ultrasonic.o ABSOLUTE
    ..\Lib\Mode\key.c                        0x00000000   Number         0  key.o ABSOLUTE
    ..\Lib\Mode\lcd.c                        0x00000000   Number         0  lcd.o ABSOLUTE
    ..\Lib\Mode\mlx90614.c                   0x00000000   Number         0  mlx90614.o ABSOLUTE
    ..\Lib\src\misc.c                        0x00000000   Number         0  misc.o ABSOLUTE
    ..\Lib\src\stm32f10x_adc.c               0x00000000   Number         0  stm32f10x_adc.o ABSOLUTE
    ..\Lib\src\stm32f10x_bkp.c               0x00000000   Number         0  stm32f10x_bkp.o ABSOLUTE
    ..\Lib\src\stm32f10x_can.c               0x00000000   Number         0  stm32f10x_can.o ABSOLUTE
    ..\Lib\src\stm32f10x_cec.c               0x00000000   Number         0  stm32f10x_cec.o ABSOLUTE
    ..\Lib\src\stm32f10x_crc.c               0x00000000   Number         0  stm32f10x_crc.o ABSOLUTE
    ..\Lib\src\stm32f10x_dac.c               0x00000000   Number         0  stm32f10x_dac.o ABSOLUTE
    ..\Lib\src\stm32f10x_dbgmcu.c            0x00000000   Number         0  stm32f10x_dbgmcu.o ABSOLUTE
    ..\Lib\src\stm32f10x_dma.c               0x00000000   Number         0  stm32f10x_dma.o ABSOLUTE
    ..\Lib\src\stm32f10x_exti.c              0x00000000   Number         0  stm32f10x_exti.o ABSOLUTE
    ..\Lib\src\stm32f10x_flash.c             0x00000000   Number         0  stm32f10x_flash.o ABSOLUTE
    ..\Lib\src\stm32f10x_fsmc.c              0x00000000   Number         0  stm32f10x_fsmc.o ABSOLUTE
    ..\Lib\src\stm32f10x_gpio.c              0x00000000   Number         0  stm32f10x_gpio.o ABSOLUTE
    ..\Lib\src\stm32f10x_i2c.c               0x00000000   Number         0  stm32f10x_i2c.o ABSOLUTE
    ..\Lib\src\stm32f10x_iwdg.c              0x00000000   Number         0  stm32f10x_iwdg.o ABSOLUTE
    ..\Lib\src\stm32f10x_pwr.c               0x00000000   Number         0  stm32f10x_pwr.o ABSOLUTE
    ..\Lib\src\stm32f10x_rcc.c               0x00000000   Number         0  stm32f10x_rcc.o ABSOLUTE
    ..\Lib\src\stm32f10x_rtc.c               0x00000000   Number         0  stm32f10x_rtc.o ABSOLUTE
    ..\Lib\src\stm32f10x_sdio.c              0x00000000   Number         0  stm32f10x_sdio.o ABSOLUTE
    ..\Lib\src\stm32f10x_spi.c               0x00000000   Number         0  stm32f10x_spi.o ABSOLUTE
    ..\Lib\src\stm32f10x_tim.c               0x00000000   Number         0  stm32f10x_tim.o ABSOLUTE
    ..\Lib\src\stm32f10x_usart.c             0x00000000   Number         0  stm32f10x_usart.o ABSOLUTE
    ..\Lib\src\stm32f10x_wwdg.c              0x00000000   Number         0  stm32f10x_wwdg.o ABSOLUTE
    ..\Startup\startup_stm32f10x_hd.s        0x00000000   Number         0  startup_stm32f10x_hd.o ABSOLUTE
    ..\\CMSIS\\core_cm3.c                    0x00000000   Number         0  core_cm3.o ABSOLUTE
    dc.s                                     0x00000000   Number         0  dc.o ABSOLUTE
    main.c                                   0x00000000   Number         0  main.o ABSOLUTE
    stm32f10x_it.c                           0x00000000   Number         0  stm32f10x_it.o ABSOLUTE
    RESET                                    0x08000000   Section      304  startup_stm32f10x_hd.o(RESET)
    !!!main                                  0x08000130   Section        8  __main.o(!!!main)
    !!!scatter                               0x08000138   Section       52  __scatter.o(!!!scatter)
    !!handler_copy                           0x0800016c   Section       26  __scatter_copy.o(!!handler_copy)
    !!handler_zi                             0x08000188   Section       28  __scatter_zi.o(!!handler_zi)
    .ARM.Collect$$_printf_percent$$00000000  0x080001a4   Section        0  _printf_percent.o(.ARM.Collect$$_printf_percent$$00000000)
    .ARM.Collect$$_printf_percent$$00000003  0x080001a4   Section        6  _printf_f.o(.ARM.Collect$$_printf_percent$$00000003)
    .ARM.Collect$$_printf_percent$$00000009  0x080001aa   Section        6  _printf_d.o(.ARM.Collect$$_printf_percent$$00000009)
    .ARM.Collect$$_printf_percent$$00000017  0x080001b0   Section        4  _printf_percent_end.o(.ARM.Collect$$_printf_percent$$00000017)
    .ARM.Collect$$libinit$$00000000          0x080001b4   Section        2  libinit.o(.ARM.Collect$$libinit$$00000000)
    .ARM.Collect$$libinit$$00000002          0x080001b6   Section        0  libinit2.o(.ARM.Collect$$libinit$$00000002)
    .ARM.Collect$$libinit$$00000004          0x080001b6   Section        0  libinit2.o(.ARM.Collect$$libinit$$00000004)
    .ARM.Collect$$libinit$$0000000A          0x080001b6   Section        0  libinit2.o(.ARM.Collect$$libinit$$0000000A)
    .ARM.Collect$$libinit$$0000000C          0x080001b6   Section        0  libinit2.o(.ARM.Collect$$libinit$$0000000C)
    .ARM.Collect$$libinit$$0000000E          0x080001b6   Section        0  libinit2.o(.ARM.Collect$$libinit$$0000000E)
    .ARM.Collect$$libinit$$0000000F          0x080001b6   Section        6  libinit2.o(.ARM.Collect$$libinit$$0000000F)
    .ARM.Collect$$libinit$$00000011          0x080001bc   Section        0  libinit2.o(.ARM.Collect$$libinit$$00000011)
    .ARM.Collect$$libinit$$00000012          0x080001bc   Section       12  libinit2.o(.ARM.Collect$$libinit$$00000012)
    .ARM.Collect$$libinit$$00000013          0x080001c8   Section        0  libinit2.o(.ARM.Collect$$libinit$$00000013)
    .ARM.Collect$$libinit$$00000015          0x080001c8   Section        0  libinit2.o(.ARM.Collect$$libinit$$00000015)
    .ARM.Collect$$libinit$$00000016          0x080001c8   Section       10  libinit2.o(.ARM.Collect$$libinit$$00000016)
    .ARM.Collect$$libinit$$00000017          0x080001d2   Section        0  libinit2.o(.ARM.Collect$$libinit$$00000017)
    .ARM.Collect$$libinit$$00000019          0x080001d2   Section        0  libinit2.o(.ARM.Collect$$libinit$$00000019)
    .ARM.Collect$$libinit$$0000001B          0x080001d2   Section        0  libinit2.o(.ARM.Collect$$libinit$$0000001B)
    .ARM.Collect$$libinit$$0000001D          0x080001d2   Section        0  libinit2.o(.ARM.Collect$$libinit$$0000001D)
    .ARM.Collect$$libinit$$0000001F          0x080001d2   Section        0  libinit2.o(.ARM.Collect$$libinit$$0000001F)
    .ARM.Collect$$libinit$$00000021          0x080001d2   Section        0  libinit2.o(.ARM.Collect$$libinit$$00000021)
    .ARM.Collect$$libinit$$00000023          0x080001d2   Section        0  libinit2.o(.ARM.Collect$$libinit$$00000023)
    .ARM.Collect$$libinit$$00000025          0x080001d2   Section        0  libinit2.o(.ARM.Collect$$libinit$$00000025)
    .ARM.Collect$$libinit$$0000002C          0x080001d2   Section        0  libinit2.o(.ARM.Collect$$libinit$$0000002C)
    .ARM.Collect$$libinit$$0000002E          0x080001d2   Section        0  libinit2.o(.ARM.Collect$$libinit$$0000002E)
    .ARM.Collect$$libinit$$00000030          0x080001d2   Section        0  libinit2.o(.ARM.Collect$$libinit$$00000030)
    .ARM.Collect$$libinit$$00000032          0x080001d2   Section        0  libinit2.o(.ARM.Collect$$libinit$$00000032)
    .ARM.Collect$$libinit$$00000033          0x080001d2   Section        2  libinit2.o(.ARM.Collect$$libinit$$00000033)
    .ARM.Collect$$libshutdown$$00000000      0x080001d4   Section        2  libshutdown.o(.ARM.Collect$$libshutdown$$00000000)
    .ARM.Collect$$libshutdown$$00000002      0x080001d6   Section        0  libshutdown2.o(.ARM.Collect$$libshutdown$$00000002)
    .ARM.Collect$$libshutdown$$00000004      0x080001d6   Section        0  libshutdown2.o(.ARM.Collect$$libshutdown$$00000004)
    .ARM.Collect$$libshutdown$$00000006      0x080001d6   Section        0  libshutdown2.o(.ARM.Collect$$libshutdown$$00000006)
    .ARM.Collect$$libshutdown$$00000009      0x080001d6   Section        0  libshutdown2.o(.ARM.Collect$$libshutdown$$00000009)
    .ARM.Collect$$libshutdown$$0000000C      0x080001d6   Section        0  libshutdown2.o(.ARM.Collect$$libshutdown$$0000000C)
    .ARM.Collect$$libshutdown$$0000000E      0x080001d6   Section        0  libshutdown2.o(.ARM.Collect$$libshutdown$$0000000E)
    .ARM.Collect$$libshutdown$$00000011      0x080001d6   Section        0  libshutdown2.o(.ARM.Collect$$libshutdown$$00000011)
    .ARM.Collect$$libshutdown$$00000012      0x080001d6   Section        2  libshutdown2.o(.ARM.Collect$$libshutdown$$00000012)
    .ARM.Collect$$rtentry$$00000000          0x080001d8   Section        0  __rtentry.o(.ARM.Collect$$rtentry$$00000000)
    .ARM.Collect$$rtentry$$00000002          0x080001d8   Section        0  __rtentry2.o(.ARM.Collect$$rtentry$$00000002)
    .ARM.Collect$$rtentry$$00000004          0x080001d8   Section        6  __rtentry4.o(.ARM.Collect$$rtentry$$00000004)
    .ARM.Collect$$rtentry$$00000009          0x080001de   Section        0  __rtentry2.o(.ARM.Collect$$rtentry$$00000009)
    .ARM.Collect$$rtentry$$0000000A          0x080001de   Section        4  __rtentry2.o(.ARM.Collect$$rtentry$$0000000A)
    .ARM.Collect$$rtentry$$0000000C          0x080001e2   Section        0  __rtentry2.o(.ARM.Collect$$rtentry$$0000000C)
    .ARM.Collect$$rtentry$$0000000D          0x080001e2   Section        8  __rtentry2.o(.ARM.Collect$$rtentry$$0000000D)
    .ARM.Collect$$rtexit$$00000000           0x080001ea   Section        2  rtexit.o(.ARM.Collect$$rtexit$$00000000)
    .ARM.Collect$$rtexit$$00000002           0x080001ec   Section        0  rtexit2.o(.ARM.Collect$$rtexit$$00000002)
    .ARM.Collect$$rtexit$$00000003           0x080001ec   Section        4  rtexit2.o(.ARM.Collect$$rtexit$$00000003)
    .ARM.Collect$$rtexit$$00000004           0x080001f0   Section        6  rtexit2.o(.ARM.Collect$$rtexit$$00000004)
    .text                                    0x080001f8   Section       64  startup_stm32f10x_hd.o(.text)
    .text                                    0x08000238   Section        0  noretval__2sprintf.o(.text)
    .text                                    0x08000260   Section        0  _printf_pad.o(.text)
    .text                                    0x080002b0   Section        0  _printf_dec.o(.text)
    .text                                    0x08000328   Section        0  __printf_wp.o(.text)
    .text                                    0x08000436   Section        0  heapauxi.o(.text)
    .text                                    0x0800043c   Section        0  _rserrno.o(.text)
    .text                                    0x08000452   Section        0  _printf_intcommon.o(.text)
    .text                                    0x08000504   Section        0  _printf_fp_dec.o(.text)
    _fp_digits                               0x08000507   Thumb Code   432  _printf_fp_dec.o(.text)
    .text                                    0x08000924   Section        0  _printf_char_common.o(.text)
    _printf_input_char                       0x08000925   Thumb Code    10  _printf_char_common.o(.text)
    .text                                    0x08000954   Section        0  _sputc.o(.text)
    .text                                    0x08000960   Section        0  strtod.o(.text)
    _local_sscanf                            0x08000961   Thumb Code    60  strtod.o(.text)
    .text                                    0x08000a04   Section        8  rt_locale_intlibspace.o(.text)
    .text                                    0x08000a0c   Section        8  rt_errno_addr_intlibspace.o(.text)
    .text                                    0x08000a14   Section      138  lludiv10.o(.text)
    .text                                    0x08000a9e   Section        0  isspace.o(.text)
    .text                                    0x08000ab0   Section        0  _printf_fp_infnan.o(.text)
    .text                                    0x08000b30   Section        0  _sgetc.o(.text)
    .text                                    0x08000b70   Section        0  bigflt0.o(.text)
    .text                                    0x08000c54   Section        8  libspace.o(.text)
    .text                                    0x08000c5c   Section       74  sys_stackheap_outer.o(.text)
    .text                                    0x08000ca8   Section       16  rt_ctype_table.o(.text)
    .text                                    0x08000cb8   Section        0  scanf_fp.o(.text)
    _fp_value                                0x08000cb9   Thumb Code   588  scanf_fp.o(.text)
    .text                                    0x080011b0   Section        0  exit.o(.text)
    .text                                    0x080011c4   Section      128  strcmpv7m.o(.text)
    .text                                    0x08001244   Section        0  scanf_hexfp.o(.text)
    .text                                    0x08001564   Section        0  scanf_infnan.o(.text)
    .text                                    0x08001698   Section        0  sys_exit.o(.text)
    .text                                    0x080016a4   Section       38  llshl.o(.text)
    .text                                    0x080016ca   Section        0  _chval.o(.text)
    .text                                    0x080016e6   Section        2  use_no_semi.o(.text)
    .text                                    0x080016e8   Section        0  indicate_semi.o(.text)
    CL$$btod_d2e                             0x080016e8   Section       62  btod.o(CL$$btod_d2e)
    CL$$btod_d2e_denorm_low                  0x08001726   Section       70  btod.o(CL$$btod_d2e_denorm_low)
    CL$$btod_d2e_norm_op1                    0x0800176c   Section       96  btod.o(CL$$btod_d2e_norm_op1)
    CL$$btod_div_common                      0x080017cc   Section      824  btod.o(CL$$btod_div_common)
    CL$$btod_e2d                             0x08001b04   Section      132  btod.o(CL$$btod_e2d)
    CL$$btod_e2e                             0x08001b88   Section      220  btod.o(CL$$btod_e2e)
    CL$$btod_ediv                            0x08001c64   Section       42  btod.o(CL$$btod_ediv)
    CL$$btod_edivd                           0x08001c8e   Section       42  btod.o(CL$$btod_edivd)
    CL$$btod_emul                            0x08001cb8   Section       42  btod.o(CL$$btod_emul)
    CL$$btod_emuld                           0x08001ce2   Section       42  btod.o(CL$$btod_emuld)
    CL$$btod_mult_common                     0x08001d0c   Section      580  btod.o(CL$$btod_mult_common)
    i.ADC_ClearFlag                          0x08001f50   Section        0  stm32f10x_adc.o(i.ADC_ClearFlag)
    i.ADC_Cmd                                0x08001f56   Section        0  stm32f10x_adc.o(i.ADC_Cmd)
    i.ADC_GetCalibrationStatus               0x08001f6c   Section        0  stm32f10x_adc.o(i.ADC_GetCalibrationStatus)
    i.ADC_GetFlagStatus                      0x08001f80   Section        0  stm32f10x_adc.o(i.ADC_GetFlagStatus)
    i.ADC_GetResetCalibrationStatus          0x08001f92   Section        0  stm32f10x_adc.o(i.ADC_GetResetCalibrationStatus)
    i.ADC_Init                               0x08001fa8   Section        0  stm32f10x_adc.o(i.ADC_Init)
    i.ADC_RegularChannelConfig               0x08001ff8   Section        0  stm32f10x_adc.o(i.ADC_RegularChannelConfig)
    i.ADC_ResetCalibration                   0x080020b0   Section        0  stm32f10x_adc.o(i.ADC_ResetCalibration)
    i.ADC_SoftwareStartConvCmd               0x080020ba   Section        0  stm32f10x_adc.o(i.ADC_SoftwareStartConvCmd)
    i.ADC_StartCalibration                   0x080020d0   Section        0  stm32f10x_adc.o(i.ADC_StartCalibration)
    i.ADC_TempSensorVrefintCmd               0x080020dc   Section        0  stm32f10x_adc.o(i.ADC_TempSensorVrefintCmd)
    i.ADCx_Init                              0x08002100   Section        0  adc.o(i.ADCx_Init)
    i.ADCx_Read_Vol                          0x080021e0   Section        0  adc.o(i.ADCx_Read_Vol)
    i.BZZ_Control                            0x08002258   Section        0  bzz.o(i.BZZ_Control)
    i.BZZ_Init                               0x08002278   Section        0  bzz.o(i.BZZ_Init)
    i.BusFault_Handler                       0x080022a8   Section        0  stm32f10x_it.o(i.BusFault_Handler)
    i.DAC_Cmd                                0x080022ac   Section        0  stm32f10x_dac.o(i.DAC_Cmd)
    i.DAC_Init                               0x080022d4   Section        0  stm32f10x_dac.o(i.DAC_Init)
    i.DAC_SetChannel1Data                    0x08002308   Section        0  stm32f10x_dac.o(i.DAC_SetChannel1Data)
    i.DAC_SetChannel2Data                    0x08002328   Section        0  stm32f10x_dac.o(i.DAC_SetChannel2Data)
    i.DACx_Init                              0x08002348   Section        0  dac.o(i.DACx_Init)
    i.DACx_Set_Vol                           0x080023c4   Section        0  dac.o(i.DACx_Set_Vol)
    i.Data_Chang_NUM                         0x0800244c   Section        0  data_handle.o(i.Data_Chang_NUM)
    i.Data_Judge                             0x080024b0   Section        0  data_handle.o(i.Data_Judge)
    i.Data_Replace                           0x080024d4   Section        0  data_handle.o(i.Data_Replace)
    i.DebugMon_Handler                       0x080024f0   Section        0  stm32f10x_it.o(i.DebugMon_Handler)
    i.Delay_10us                             0x080024f4   Section        0  sys_time.o(i.Delay_10us)
    i.Delay_ms                               0x0800250c   Section        0  sys_time.o(i.Delay_ms)
    i.FLASH_ErasePage                        0x08002530   Section        0  stm32f10x_flash.o(i.FLASH_ErasePage)
    i.FLASH_GetBank1Status                   0x0800257c   Section        0  stm32f10x_flash.o(i.FLASH_GetBank1Status)
    i.FLASH_Lock                             0x080025b0   Section        0  stm32f10x_flash.o(i.FLASH_Lock)
    i.FLASH_ProgramHalfWord                  0x080025c4   Section        0  stm32f10x_flash.o(i.FLASH_ProgramHalfWord)
    i.FLASH_Unlock                           0x08002604   Section        0  stm32f10x_flash.o(i.FLASH_Unlock)
    i.FLASH_WaitForLastOperation             0x0800261c   Section        0  stm32f10x_flash.o(i.FLASH_WaitForLastOperation)
    i.GPIO_Init                              0x08002642   Section        0  stm32f10x_gpio.o(i.GPIO_Init)
    i.GPIO_PinRemapConfig                    0x08002758   Section        0  stm32f10x_gpio.o(i.GPIO_PinRemapConfig)
    i.GPIO_ReadInputDataBit                  0x080027e8   Section        0  stm32f10x_gpio.o(i.GPIO_ReadInputDataBit)
    i.GPIO_ResetBits                         0x080027fa   Section        0  stm32f10x_gpio.o(i.GPIO_ResetBits)
    i.GPIO_SetBits                           0x080027fe   Section        0  stm32f10x_gpio.o(i.GPIO_SetBits)
    i.HardFault_Handler                      0x08002802   Section        0  stm32f10x_it.o(i.HardFault_Handler)
    i.IIC_ReadBit                            0x08002808   Section        0  iic.o(i.IIC_ReadBit)
    i.IIC_ReadByte                           0x08002854   Section        0  iic.o(i.IIC_ReadByte)
    i.IIC_SendBit                            0x08002890   Section        0  iic.o(i.IIC_SendBit)
    i.IIC_SendByte                           0x080028d8   Section        0  iic.o(i.IIC_SendByte)
    i.IIC_Software_Init                      0x08002914   Section        0  iic.o(i.IIC_Software_Init)
    i.IIC_StartBit                           0x08002950   Section        0  iic.o(i.IIC_StartBit)
    i.IIC_StopBit                            0x08002994   Section        0  iic.o(i.IIC_StopBit)
    i.Init_Steering_Engine_T4                0x080029d4   Section        0  steering_engine.o(i.Init_Steering_Engine_T4)
    i.KEY_Init                               0x08002a88   Section        0  key.o(i.KEY_Init)
    i.LCD_Address_Set                        0x08002ab0   Section        0  lcd.o(i.LCD_Address_Set)
    i.LCD_DrawPoint                          0x08002aea   Section        0  lcd.o(i.LCD_DrawPoint)
    i.LCD_Fill                               0x08002b06   Section        0  lcd.o(i.LCD_Fill)
    i.LCD_GPIO_Init                          0x08002b50   Section        0  lcd.o(i.LCD_GPIO_Init)
    i.LCD_Init                               0x08002ba4   Section        0  lcd.o(i.LCD_Init)
    i.LCD_ShowChar                           0x08002d44   Section        0  lcd.o(i.LCD_ShowChar)
    i.LCD_ShowPicture                        0x08002e7c   Section        0  lcd.o(i.LCD_ShowPicture)
    i.LCD_ShowString                         0x08002ee2   Section        0  lcd.o(i.LCD_ShowString)
    i.LCD_WR_DATA                            0x08002f50   Section        0  lcd.o(i.LCD_WR_DATA)
    i.LCD_WR_DATA8                           0x08002f70   Section        0  lcd.o(i.LCD_WR_DATA8)
    i.LCD_WR_REG                             0x08002f8c   Section        0  lcd.o(i.LCD_WR_REG)
    i.LCD_Writ_Bus                           0x08002fa8   Section        0  lcd.o(i.LCD_Writ_Bus)
    i.MemManage_Handler                      0x08003008   Section        0  stm32f10x_it.o(i.MemManage_Handler)
    i.Mian_Init                              0x0800300c   Section        0  main.o(i.Mian_Init)
    i.Mlx90614_Init                          0x0800320c   Section        0  mlx90614.o(i.Mlx90614_Init)
    i.Mlx90614_ReadTemp                      0x08003214   Section        0  mlx90614.o(i.Mlx90614_ReadTemp)
    i.Motorx_Control                         0x08003258   Section        0  motor.o(i.Motorx_Control)
    i.Motorx_Init                            0x080033f4   Section        0  motor.o(i.Motorx_Init)
    i.NMI_Handler                            0x08003534   Section        0  stm32f10x_it.o(i.NMI_Handler)
    i.NVIC_Init                              0x08003538   Section        0  misc.o(i.NVIC_Init)
    i.NVIC_PriorityGroupConfig               0x080035a8   Section        0  misc.o(i.NVIC_PriorityGroupConfig)
    i.PEC_Calculation                        0x080035bc   Section        0  mlx90614.o(i.PEC_Calculation)
    i.PendSV_Handler                         0x08003676   Section        0  stm32f10x_it.o(i.PendSV_Handler)
    i.RCC_ADCCLKConfig                       0x08003678   Section        0  stm32f10x_rcc.o(i.RCC_ADCCLKConfig)
    i.RCC_APB1PeriphClockCmd                 0x08003690   Section        0  stm32f10x_rcc.o(i.RCC_APB1PeriphClockCmd)
    i.RCC_APB1PeriphResetCmd                 0x080036b0   Section        0  stm32f10x_rcc.o(i.RCC_APB1PeriphResetCmd)
    i.RCC_APB2PeriphClockCmd                 0x080036d0   Section        0  stm32f10x_rcc.o(i.RCC_APB2PeriphClockCmd)
    i.RCC_APB2PeriphResetCmd                 0x080036f0   Section        0  stm32f10x_rcc.o(i.RCC_APB2PeriphResetCmd)
    i.RCC_GetClocksFreq                      0x08003710   Section        0  stm32f10x_rcc.o(i.RCC_GetClocksFreq)
    i.Read_MCU_Temp                          0x080037e4   Section        0  adc.o(i.Read_MCU_Temp)
    i.SMBus_ReadMemory                       0x08003848   Section        0  mlx90614.o(i.SMBus_ReadMemory)
    i.STMFLASH_Read                          0x080038fa   Section        0  stmflash.o(i.STMFLASH_Read)
    i.STMFLASH_ReadHalfWord                  0x0800391c   Section        0  stmflash.o(i.STMFLASH_ReadHalfWord)
    i.STMFLASH_Write                         0x08003924   Section        0  stmflash.o(i.STMFLASH_Write)
    i.STMFLASH_Write_NoCheck                 0x08003a0c   Section        0  stmflash.o(i.STMFLASH_Write_NoCheck)
    i.SVC_Handler                            0x08003a32   Section        0  stm32f10x_it.o(i.SVC_Handler)
    i.SetSysClock                            0x08003a34   Section        0  system_stm32f10x.o(i.SetSysClock)
    SetSysClock                              0x08003a35   Thumb Code     8  system_stm32f10x.o(i.SetSysClock)
    i.SetSysClockTo72                        0x08003a3c   Section        0  system_stm32f10x.o(i.SetSysClockTo72)
    SetSysClockTo72                          0x08003a3d   Thumb Code   214  system_stm32f10x.o(i.SetSysClockTo72)
    i.Set_Angle_Cal_180                      0x08003b1c   Section        0  steering_engine.o(i.Set_Angle_Cal_180)
    i.Steering_Engine_Angle                  0x08003b78   Section        0  steering_engine.o(i.Steering_Engine_Angle)
    i.SysTick_Handler                        0x08003be4   Section        0  sys_time.o(i.SysTick_Handler)
    i.Sys_Watch                              0x08003bfc   Section        0  sys_time.o(i.Sys_Watch)
    i.SystemInit                             0x08003c64   Section        0  system_stm32f10x.o(i.SystemInit)
    i.TIM2_IRQHandler                        0x08003cc4   Section        0  encoder.o(i.TIM2_IRQHandler)
    i.TIM3_IRQHandler                        0x08003cdc   Section        0  encoder.o(i.TIM3_IRQHandler)
    i.TIM4_IRQHandler                        0x08003cf4   Section        0  encoder.o(i.TIM4_IRQHandler)
    i.TIM4_PWM_Init                          0x08003d0c   Section        0  pwm.o(i.TIM4_PWM_Init)
    i.TIM5_IRQHandler                        0x08003dd4   Section        0  encoder.o(i.TIM5_IRQHandler)
    i.TIM8_PWM_Init                          0x08003dec   Section        0  pwm.o(i.TIM8_PWM_Init)
    i.TIM_ARRPreloadConfig                   0x08003ec8   Section        0  stm32f10x_tim.o(i.TIM_ARRPreloadConfig)
    i.TIM_Cmd                                0x08003ee0   Section        0  stm32f10x_tim.o(i.TIM_Cmd)
    i.TIM_CtrlPWMOutputs                     0x08003ef8   Section        0  stm32f10x_tim.o(i.TIM_CtrlPWMOutputs)
    i.TIM_ITConfig                           0x08003f16   Section        0  stm32f10x_tim.o(i.TIM_ITConfig)
    i.TIM_OC1Init                            0x08003f28   Section        0  stm32f10x_tim.o(i.TIM_OC1Init)
    i.TIM_OC1PreloadConfig                   0x08003fc0   Section        0  stm32f10x_tim.o(i.TIM_OC1PreloadConfig)
    i.TIM_OC2Init                            0x08003fd4   Section        0  stm32f10x_tim.o(i.TIM_OC2Init)
    i.TIM_OC2PreloadConfig                   0x08004078   Section        0  stm32f10x_tim.o(i.TIM_OC2PreloadConfig)
    i.TIM_OC3Init                            0x08004094   Section        0  stm32f10x_tim.o(i.TIM_OC3Init)
    i.TIM_OC3PreloadConfig                   0x08004134   Section        0  stm32f10x_tim.o(i.TIM_OC3PreloadConfig)
    i.TIM_OC4Init                            0x08004148   Section        0  stm32f10x_tim.o(i.TIM_OC4Init)
    i.TIM_OC4PreloadConfig                   0x080041c4   Section        0  stm32f10x_tim.o(i.TIM_OC4PreloadConfig)
    i.TIM_SetCompare1                        0x080041de   Section        0  stm32f10x_tim.o(i.TIM_SetCompare1)
    i.TIM_SetCompare2                        0x080041e2   Section        0  stm32f10x_tim.o(i.TIM_SetCompare2)
    i.TIM_SetCompare3                        0x080041e6   Section        0  stm32f10x_tim.o(i.TIM_SetCompare3)
    i.TIM_SetCompare4                        0x080041ea   Section        0  stm32f10x_tim.o(i.TIM_SetCompare4)
    i.TIM_TimeBaseInit                       0x080041f0   Section        0  stm32f10x_tim.o(i.TIM_TimeBaseInit)
    i.Tracing_Find                           0x08004294   Section        0  tracing.o(i.Tracing_Find)
    i.UART4_IRQHandler                       0x08004338   Section        0  uart.o(i.UART4_IRQHandler)
    i.UART5_IRQHandler                       0x08004398   Section        0  uart.o(i.UART5_IRQHandler)
    i.UARTx_Init                             0x080043f4   Section        0  uart.o(i.UARTx_Init)
    i.UARTx_Send_Data                        0x08004764   Section        0  uart.o(i.UARTx_Send_Data)
    i.UARTx_Send_String                      0x08004820   Section        0  uart.o(i.UARTx_Send_String)
    i.USART1_IRQHandler                      0x080048e4   Section        0  uart.o(i.USART1_IRQHandler)
    i.USART2_IRQHandler                      0x08004948   Section        0  uart.o(i.USART2_IRQHandler)
    i.USART3_IRQHandler                      0x080049a8   Section        0  uart.o(i.USART3_IRQHandler)
    i.USART_ClearFlag                        0x08004a0c   Section        0  stm32f10x_usart.o(i.USART_ClearFlag)
    i.USART_Cmd                              0x08004a1e   Section        0  stm32f10x_usart.o(i.USART_Cmd)
    i.USART_DeInit                           0x08004a38   Section        0  stm32f10x_usart.o(i.USART_DeInit)
    i.USART_GetFlagStatus                    0x08004ad4   Section        0  stm32f10x_usart.o(i.USART_GetFlagStatus)
    i.USART_GetITStatus                      0x08004aee   Section        0  stm32f10x_usart.o(i.USART_GetITStatus)
    i.USART_ITConfig                         0x08004b42   Section        0  stm32f10x_usart.o(i.USART_ITConfig)
    i.USART_Init                             0x08004b8c   Section        0  stm32f10x_usart.o(i.USART_Init)
    i.USART_ReceiveData                      0x08004c64   Section        0  stm32f10x_usart.o(i.USART_ReceiveData)
    i.USART_SendData                         0x08004c6e   Section        0  stm32f10x_usart.o(i.USART_SendData)
    i.UsageFault_Handler                     0x08004c76   Section        0  stm32f10x_it.o(i.UsageFault_Handler)
    i.__ARM_fpclassify                       0x08004c7a   Section        0  fpclassify.o(i.__ARM_fpclassify)
    i.__mathlib_dbl_overflow                 0x08004ca2   Section        0  dunder.o(i.__mathlib_dbl_overflow)
    i.__mathlib_dbl_underflow                0x08004cb0   Section        0  dunder.o(i.__mathlib_dbl_underflow)
    i.__mathlib_narrow                       0x08004cc0   Section        0  narrow.o(i.__mathlib_narrow)
    i.__mathlib_tofloat                      0x08004cd0   Section        0  narrow.o(i.__mathlib_tofloat)
    i.__support_ldexp                        0x08004d8c   Section        0  ldexp.o(i.__support_ldexp)
    i._is_digit                              0x08004da2   Section        0  __printf_wp.o(i._is_digit)
    i.atof                                   0x08004db0   Section        0  atof.o(i.atof)
    i.frexp                                  0x08004ddc   Section        0  frexp.o(i.frexp)
    i.ldexp                                  0x08004e34   Section        0  ldexp.o(i.ldexp)
    i.main                                   0x08004ea8   Section        0  main.o(i.main)
    locale$$code                             0x08005320   Section       44  lc_numeric_c.o(locale$$code)
    locale$$code                             0x0800534c   Section       44  lc_ctype_c.o(locale$$code)
    x$fpl$d2f                                0x08005378   Section       98  d2f.o(x$fpl$d2f)
    x$fpl$dadd                               0x080053dc   Section      336  daddsub_clz.o(x$fpl$dadd)
    _dadd1                                   0x080053ed   Thumb Code     0  daddsub_clz.o(x$fpl$dadd)
    x$fpl$dcheck1                            0x0800552c   Section       16  dcheck1.o(x$fpl$dcheck1)
    x$fpl$dcmpinf                            0x0800553c   Section       24  dcmpi.o(x$fpl$dcmpinf)
    x$fpl$ddiv                               0x08005554   Section      688  ddiv.o(x$fpl$ddiv)
    ddiv_entry                               0x0800555b   Thumb Code     0  ddiv.o(x$fpl$ddiv)
    x$fpl$deqf                               0x08005804   Section      120  deqf.o(x$fpl$deqf)
    x$fpl$dfix                               0x0800587c   Section       94  dfix.o(x$fpl$dfix)
    x$fpl$dfltu                              0x080058da   Section       38  dflt_clz.o(x$fpl$dfltu)
    x$fpl$dleqf                              0x08005900   Section      120  dleqf.o(x$fpl$dleqf)
    x$fpl$dmul                               0x08005978   Section      340  dmul.o(x$fpl$dmul)
    x$fpl$dnaninf                            0x08005acc   Section      156  dnaninf.o(x$fpl$dnaninf)
    x$fpl$dretinf                            0x08005b68   Section       12  dretinf.o(x$fpl$dretinf)
    x$fpl$drleqf                             0x08005b74   Section      108  drleqf.o(x$fpl$drleqf)
    x$fpl$drsb                               0x08005be0   Section       22  daddsub_clz.o(x$fpl$drsb)
    x$fpl$dsub                               0x08005bf8   Section      468  daddsub_clz.o(x$fpl$dsub)
    _dsub1                                   0x08005c09   Thumb Code     0  daddsub_clz.o(x$fpl$dsub)
    x$fpl$f2d                                0x08005dcc   Section       86  f2d.o(x$fpl$f2d)
    x$fpl$fadd                               0x08005e24   Section      196  faddsub_clz.o(x$fpl$fadd)
    _fadd1                                   0x08005e33   Thumb Code     0  faddsub_clz.o(x$fpl$fadd)
    x$fpl$fcmpinf                            0x08005ee8   Section       24  fcmpi.o(x$fpl$fcmpinf)
    x$fpl$fdiv                               0x08005f00   Section      388  fdiv.o(x$fpl$fdiv)
    _fdiv1                                   0x08005f01   Thumb Code     0  fdiv.o(x$fpl$fdiv)
    x$fpl$ffixu                              0x08006084   Section       62  ffixu.o(x$fpl$ffixu)
    x$fpl$ffltu                              0x080060c4   Section       38  fflt_clz.o(x$fpl$ffltu)
    x$fpl$fleqf                              0x080060ec   Section      104  fleqf.o(x$fpl$fleqf)
    x$fpl$fmul                               0x08006154   Section      258  fmul.o(x$fpl$fmul)
    x$fpl$fnaninf                            0x08006256   Section      140  fnaninf.o(x$fpl$fnaninf)
    x$fpl$fretinf                            0x080062e2   Section       10  fretinf.o(x$fpl$fretinf)
    x$fpl$frleqf                             0x080062ec   Section       98  frleqf.o(x$fpl$frleqf)
    x$fpl$fsub                               0x08006350   Section      234  faddsub_clz.o(x$fpl$fsub)
    _fsub1                                   0x0800635f   Thumb Code     0  faddsub_clz.o(x$fpl$fsub)
    x$fpl$ieeestatus                         0x0800643a   Section        6  istatus.o(x$fpl$ieeestatus)
    x$fpl$printf1                            0x08006440   Section        4  printf1.o(x$fpl$printf1)
    x$fpl$retnan                             0x08006444   Section      100  retnan.o(x$fpl$retnan)
    x$fpl$scalbn                             0x080064a8   Section       92  scalbn.o(x$fpl$scalbn)
    x$fpl$scanf1                             0x08006504   Section        4  scanf1.o(x$fpl$scanf1)
    x$fpl$scanf2                             0x08006508   Section        8  scanf2.o(x$fpl$scanf2)
    x$fpl$trapveneer                         0x08006510   Section       48  trapv.o(x$fpl$trapveneer)
    .constdata                               0x08006540   Section     7200  main.o(.constdata)
    x$fpl$usenofp                            0x08006540   Section        0  usenofp.o(x$fpl$usenofp)
    .constdata                               0x08008160   Section    13180  lcd.o(.constdata)
    .constdata                               0x0800b4dc   Section      148  bigflt0.o(.constdata)
    tenpwrs_x                                0x0800b4dc   Data          60  bigflt0.o(.constdata)
    tenpwrs_i                                0x0800b518   Data          64  bigflt0.o(.constdata)
    c$$dinf                                  0x0800b590   Section        8  fpconst.o(c$$dinf)
    c$$dmax                                  0x0800b598   Section        8  fpconst.o(c$$dmax)
    locale$$data                             0x0800b5a0   Section       28  lc_numeric_c.o(locale$$data)
    __lcnum_c_name                           0x0800b5a4   Data           2  lc_numeric_c.o(locale$$data)
    __lcnum_c_start                          0x0800b5ac   Data           0  lc_numeric_c.o(locale$$data)
    __lcnum_c_point                          0x0800b5b8   Data           0  lc_numeric_c.o(locale$$data)
    __lcnum_c_thousands                      0x0800b5ba   Data           0  lc_numeric_c.o(locale$$data)
    __lcnum_c_grouping                       0x0800b5bb   Data           0  lc_numeric_c.o(locale$$data)
    locale$$data                             0x0800b5bc   Section      272  lc_ctype_c.o(locale$$data)
    __lcnum_c_end                            0x0800b5bc   Data           0  lc_numeric_c.o(locale$$data)
    __lcctype_c_name                         0x0800b5c0   Data           2  lc_ctype_c.o(locale$$data)
    __lcctype_c_start                        0x0800b5c8   Data           0  lc_ctype_c.o(locale$$data)
    __lcctype_c_end                          0x0800b6cc   Data           0  lc_ctype_c.o(locale$$data)
    .data                                    0x20000000   Section       32  main.o(.data)
    .data                                    0x20000020   Section       16  sys_time.o(.data)
    .data                                    0x20000030   Section        6  tracing.o(.data)
    .data                                    0x20000038   Section       20  system_stm32f10x.o(.data)
    .data                                    0x2000004c   Section       20  stm32f10x_rcc.o(.data)
    APBAHBPrescTable                         0x2000004c   Data          16  stm32f10x_rcc.o(.data)
    ADCPrescTable                            0x2000005c   Data           4  stm32f10x_rcc.o(.data)
    .bss                                     0x20000060   Section       32  main.o(.bss)
    .bss                                     0x20000080   Section       20  data_handle.o(.bss)
    .bss                                     0x20000094   Section      156  uart.o(.bss)
    .bss                                     0x20000130   Section     1024  stmflash.o(.bss)
    .bss                                     0x20000530   Section       96  libspace.o(.bss)
    HEAP                                     0x20000590   Section      512  startup_stm32f10x_hd.o(HEAP)
    Heap_Mem                                 0x20000590   Data         512  startup_stm32f10x_hd.o(HEAP)
    STACK                                    0x20000790   Section     1024  startup_stm32f10x_hd.o(STACK)
    Stack_Mem                                0x20000790   Data        1024  startup_stm32f10x_hd.o(STACK)
    __initial_sp                             0x20000b90   Data           0  startup_stm32f10x_hd.o(STACK)

    Global Symbols

    Symbol Name                              Value     Ov Type        Size  Object(Section)

    BuildAttributes$$THM_ISAv4$P$D$K$B$S$PE$A:L22UL41UL21$X:L11$S22US41US21$IEEE1$IW$USESV6$~STKCKD$USESV7$~SHL$OTIME$ROPI$IEEEX$EBA8$UX$STANDARDLIB$REQ8$PRES8$EABIv2 0x00000000   Number         0  anon$$obj.o ABSOLUTE
    __ARM_use_no_argv                        0x00000000   Number         0  main.o ABSOLUTE
    _printf_flags                            0x00000000   Number         0  printf_stubs.o ABSOLUTE
    _printf_return_value                     0x00000000   Number         0  printf_stubs.o ABSOLUTE
    _printf_sizespec                         0x00000000   Number         0  printf_stubs.o ABSOLUTE
    _printf_widthprec                        0x00000000   Number         0  printf_stubs.o ABSOLUTE
    __ARM_exceptions_init                     - Undefined Weak Reference
    __alloca_initialize                       - Undefined Weak Reference
    __arm_fini_                               - Undefined Weak Reference
    __arm_preinit_                            - Undefined Weak Reference
    __cpp_initialize__aeabi_                  - Undefined Weak Reference
    __cxa_finalize                            - Undefined Weak Reference
    __sigvec_lookup                           - Undefined Weak Reference
    _atexit_init                              - Undefined Weak Reference
    _call_atexit_fns                          - Undefined Weak Reference
    _clock_init                               - Undefined Weak Reference
    _fp_trap_init                             - Undefined Weak Reference
    _fp_trap_shutdown                         - Undefined Weak Reference
    _get_lc_collate                           - Undefined Weak Reference
    _get_lc_monetary                          - Undefined Weak Reference
    _get_lc_time                              - Undefined Weak Reference
    _getenv_init                              - Undefined Weak Reference
    _handle_redirection                       - Undefined Weak Reference
    _init_alloc                               - Undefined Weak Reference
    _init_user_alloc                          - Undefined Weak Reference
    _initio                                   - Undefined Weak Reference
    _printf_truncate_signed                   - Undefined Weak Reference
    _printf_truncate_unsigned                 - Undefined Weak Reference
    _rand_init                                - Undefined Weak Reference
    _signal_finish                            - Undefined Weak Reference
    _signal_init                              - Undefined Weak Reference
    _terminate_alloc                          - Undefined Weak Reference
    _terminate_user_alloc                     - Undefined Weak Reference
    _terminateio                              - Undefined Weak Reference
    __Vectors_Size                           0x00000130   Number         0  startup_stm32f10x_hd.o ABSOLUTE
    __Vectors                                0x08000000   Data           4  startup_stm32f10x_hd.o(RESET)
    __Vectors_End                            0x08000130   Data           0  startup_stm32f10x_hd.o(RESET)
    __main                                   0x08000131   Thumb Code     8  __main.o(!!!main)
    __scatterload                            0x08000139   Thumb Code     0  __scatter.o(!!!scatter)
    __scatterload_rt2                        0x08000139   Thumb Code    44  __scatter.o(!!!scatter)
    __scatterload_rt2_thumb_only             0x08000139   Thumb Code     0  __scatter.o(!!!scatter)
    __scatterload_null                       0x08000147   Thumb Code     0  __scatter.o(!!!scatter)
    __scatterload_copy                       0x0800016d   Thumb Code    26  __scatter_copy.o(!!handler_copy)
    __scatterload_zeroinit                   0x08000189   Thumb Code    28  __scatter_zi.o(!!handler_zi)
    _printf_f                                0x080001a5   Thumb Code     0  _printf_f.o(.ARM.Collect$$_printf_percent$$00000003)
    _printf_percent                          0x080001a5   Thumb Code     0  _printf_percent.o(.ARM.Collect$$_printf_percent$$00000000)
    _printf_d                                0x080001ab   Thumb Code     0  _printf_d.o(.ARM.Collect$$_printf_percent$$00000009)
    _printf_percent_end                      0x080001b1   Thumb Code     0  _printf_percent_end.o(.ARM.Collect$$_printf_percent$$00000017)
    __rt_lib_init                            0x080001b5   Thumb Code     0  libinit.o(.ARM.Collect$$libinit$$00000000)
    __rt_lib_init_fp_1                       0x080001b7   Thumb Code     0  libinit2.o(.ARM.Collect$$libinit$$00000002)
    __rt_lib_init_heap_1                     0x080001b7   Thumb Code     0  libinit2.o(.ARM.Collect$$libinit$$0000000A)
    __rt_lib_init_lc_common                  0x080001b7   Thumb Code     0  libinit2.o(.ARM.Collect$$libinit$$0000000F)
    __rt_lib_init_preinit_1                  0x080001b7   Thumb Code     0  libinit2.o(.ARM.Collect$$libinit$$00000004)
    __rt_lib_init_rand_1                     0x080001b7   Thumb Code     0  libinit2.o(.ARM.Collect$$libinit$$0000000E)
    __rt_lib_init_user_alloc_1               0x080001b7   Thumb Code     0  libinit2.o(.ARM.Collect$$libinit$$0000000C)
    __rt_lib_init_lc_collate_1               0x080001bd   Thumb Code     0  libinit2.o(.ARM.Collect$$libinit$$00000011)
    __rt_lib_init_lc_ctype_2                 0x080001bd   Thumb Code     0  libinit2.o(.ARM.Collect$$libinit$$00000012)
    __rt_lib_init_lc_ctype_1                 0x080001c9   Thumb Code     0  libinit2.o(.ARM.Collect$$libinit$$00000013)
    __rt_lib_init_lc_monetary_1              0x080001c9   Thumb Code     0  libinit2.o(.ARM.Collect$$libinit$$00000015)
    __rt_lib_init_lc_numeric_2               0x080001c9   Thumb Code     0  libinit2.o(.ARM.Collect$$libinit$$00000016)
    __rt_lib_init_alloca_1                   0x080001d3   Thumb Code     0  libinit2.o(.ARM.Collect$$libinit$$0000002E)
    __rt_lib_init_argv_1                     0x080001d3   Thumb Code     0  libinit2.o(.ARM.Collect$$libinit$$0000002C)
    __rt_lib_init_atexit_1                   0x080001d3   Thumb Code     0  libinit2.o(.ARM.Collect$$libinit$$0000001B)
    __rt_lib_init_clock_1                    0x080001d3   Thumb Code     0  libinit2.o(.ARM.Collect$$libinit$$00000021)
    __rt_lib_init_cpp_1                      0x080001d3   Thumb Code     0  libinit2.o(.ARM.Collect$$libinit$$00000032)
    __rt_lib_init_exceptions_1               0x080001d3   Thumb Code     0  libinit2.o(.ARM.Collect$$libinit$$00000030)
    __rt_lib_init_fp_trap_1                  0x080001d3   Thumb Code     0  libinit2.o(.ARM.Collect$$libinit$$0000001F)
    __rt_lib_init_getenv_1                   0x080001d3   Thumb Code     0  libinit2.o(.ARM.Collect$$libinit$$00000023)
    __rt_lib_init_lc_numeric_1               0x080001d3   Thumb Code     0  libinit2.o(.ARM.Collect$$libinit$$00000017)
    __rt_lib_init_lc_time_1                  0x080001d3   Thumb Code     0  libinit2.o(.ARM.Collect$$libinit$$00000019)
    __rt_lib_init_return                     0x080001d3   Thumb Code     0  libinit2.o(.ARM.Collect$$libinit$$00000033)
    __rt_lib_init_signal_1                   0x080001d3   Thumb Code     0  libinit2.o(.ARM.Collect$$libinit$$0000001D)
    __rt_lib_init_stdio_1                    0x080001d3   Thumb Code     0  libinit2.o(.ARM.Collect$$libinit$$00000025)
    __rt_lib_shutdown                        0x080001d5   Thumb Code     0  libshutdown.o(.ARM.Collect$$libshutdown$$00000000)
    __rt_lib_shutdown_cpp_1                  0x080001d7   Thumb Code     0  libshutdown2.o(.ARM.Collect$$libshutdown$$00000004)
    __rt_lib_shutdown_fini_1                 0x080001d7   Thumb Code     0  libshutdown2.o(.ARM.Collect$$libshutdown$$00000002)
    __rt_lib_shutdown_fp_trap_1              0x080001d7   Thumb Code     0  libshutdown2.o(.ARM.Collect$$libshutdown$$00000009)
    __rt_lib_shutdown_heap_1                 0x080001d7   Thumb Code     0  libshutdown2.o(.ARM.Collect$$libshutdown$$00000011)
    __rt_lib_shutdown_return                 0x080001d7   Thumb Code     0  libshutdown2.o(.ARM.Collect$$libshutdown$$00000012)
    __rt_lib_shutdown_signal_1               0x080001d7   Thumb Code     0  libshutdown2.o(.ARM.Collect$$libshutdown$$0000000C)
    __rt_lib_shutdown_stdio_1                0x080001d7   Thumb Code     0  libshutdown2.o(.ARM.Collect$$libshutdown$$00000006)
    __rt_lib_shutdown_user_alloc_1           0x080001d7   Thumb Code     0  libshutdown2.o(.ARM.Collect$$libshutdown$$0000000E)
    __rt_entry                               0x080001d9   Thumb Code     0  __rtentry.o(.ARM.Collect$$rtentry$$00000000)
    __rt_entry_presh_1                       0x080001d9   Thumb Code     0  __rtentry2.o(.ARM.Collect$$rtentry$$00000002)
    __rt_entry_sh                            0x080001d9   Thumb Code     0  __rtentry4.o(.ARM.Collect$$rtentry$$00000004)
    __rt_entry_li                            0x080001df   Thumb Code     0  __rtentry2.o(.ARM.Collect$$rtentry$$0000000A)
    __rt_entry_postsh_1                      0x080001df   Thumb Code     0  __rtentry2.o(.ARM.Collect$$rtentry$$00000009)
    __rt_entry_main                          0x080001e3   Thumb Code     0  __rtentry2.o(.ARM.Collect$$rtentry$$0000000D)
    __rt_entry_postli_1                      0x080001e3   Thumb Code     0  __rtentry2.o(.ARM.Collect$$rtentry$$0000000C)
    __rt_exit                                0x080001eb   Thumb Code     0  rtexit.o(.ARM.Collect$$rtexit$$00000000)
    __rt_exit_ls                             0x080001ed   Thumb Code     0  rtexit2.o(.ARM.Collect$$rtexit$$00000003)
    __rt_exit_prels_1                        0x080001ed   Thumb Code     0  rtexit2.o(.ARM.Collect$$rtexit$$00000002)
    __rt_exit_exit                           0x080001f1   Thumb Code     0  rtexit2.o(.ARM.Collect$$rtexit$$00000004)
    Reset_Handler                            0x080001f9   Thumb Code     8  startup_stm32f10x_hd.o(.text)
    ADC1_2_IRQHandler                        0x08000213   Thumb Code     0  startup_stm32f10x_hd.o(.text)
    ADC3_IRQHandler                          0x08000213   Thumb Code     0  startup_stm32f10x_hd.o(.text)
    CAN1_RX1_IRQHandler                      0x08000213   Thumb Code     0  startup_stm32f10x_hd.o(.text)
    CAN1_SCE_IRQHandler                      0x08000213   Thumb Code     0  startup_stm32f10x_hd.o(.text)
    DMA1_Channel1_IRQHandler                 0x08000213   Thumb Code     0  startup_stm32f10x_hd.o(.text)
    DMA1_Channel2_IRQHandler                 0x08000213   Thumb Code     0  startup_stm32f10x_hd.o(.text)
    DMA1_Channel3_IRQHandler                 0x08000213   Thumb Code     0  startup_stm32f10x_hd.o(.text)
    DMA1_Channel4_IRQHandler                 0x08000213   Thumb Code     0  startup_stm32f10x_hd.o(.text)
    DMA1_Channel5_IRQHandler                 0x08000213   Thumb Code     0  startup_stm32f10x_hd.o(.text)
    DMA1_Channel6_IRQHandler                 0x08000213   Thumb Code     0  startup_stm32f10x_hd.o(.text)
    DMA1_Channel7_IRQHandler                 0x08000213   Thumb Code     0  startup_stm32f10x_hd.o(.text)
    DMA2_Channel1_IRQHandler                 0x08000213   Thumb Code     0  startup_stm32f10x_hd.o(.text)
    DMA2_Channel2_IRQHandler                 0x08000213   Thumb Code     0  startup_stm32f10x_hd.o(.text)
    DMA2_Channel3_IRQHandler                 0x08000213   Thumb Code     0  startup_stm32f10x_hd.o(.text)
    DMA2_Channel4_5_IRQHandler               0x08000213   Thumb Code     0  startup_stm32f10x_hd.o(.text)
    EXTI0_IRQHandler                         0x08000213   Thumb Code     0  startup_stm32f10x_hd.o(.text)
    EXTI15_10_IRQHandler                     0x08000213   Thumb Code     0  startup_stm32f10x_hd.o(.text)
    EXTI1_IRQHandler                         0x08000213   Thumb Code     0  startup_stm32f10x_hd.o(.text)
    EXTI2_IRQHandler                         0x08000213   Thumb Code     0  startup_stm32f10x_hd.o(.text)
    EXTI3_IRQHandler                         0x08000213   Thumb Code     0  startup_stm32f10x_hd.o(.text)
    EXTI4_IRQHandler                         0x08000213   Thumb Code     0  startup_stm32f10x_hd.o(.text)
    EXTI9_5_IRQHandler                       0x08000213   Thumb Code     0  startup_stm32f10x_hd.o(.text)
    FLASH_IRQHandler                         0x08000213   Thumb Code     0  startup_stm32f10x_hd.o(.text)
    FSMC_IRQHandler                          0x08000213   Thumb Code     0  startup_stm32f10x_hd.o(.text)
    I2C1_ER_IRQHandler                       0x08000213   Thumb Code     0  startup_stm32f10x_hd.o(.text)
    I2C1_EV_IRQHandler                       0x08000213   Thumb Code     0  startup_stm32f10x_hd.o(.text)
    I2C2_ER_IRQHandler                       0x08000213   Thumb Code     0  startup_stm32f10x_hd.o(.text)
    I2C2_EV_IRQHandler                       0x08000213   Thumb Code     0  startup_stm32f10x_hd.o(.text)
    PVD_IRQHandler                           0x08000213   Thumb Code     0  startup_stm32f10x_hd.o(.text)
    RCC_IRQHandler                           0x08000213   Thumb Code     0  startup_stm32f10x_hd.o(.text)
    RTCAlarm_IRQHandler                      0x08000213   Thumb Code     0  startup_stm32f10x_hd.o(.text)
    RTC_IRQHandler                           0x08000213   Thumb Code     0  startup_stm32f10x_hd.o(.text)
    SDIO_IRQHandler                          0x08000213   Thumb Code     0  startup_stm32f10x_hd.o(.text)
    SPI1_IRQHandler                          0x08000213   Thumb Code     0  startup_stm32f10x_hd.o(.text)
    SPI2_IRQHandler                          0x08000213   Thumb Code     0  startup_stm32f10x_hd.o(.text)
    SPI3_IRQHandler                          0x08000213   Thumb Code     0  startup_stm32f10x_hd.o(.text)
    TAMPER_IRQHandler                        0x08000213   Thumb Code     0  startup_stm32f10x_hd.o(.text)
    TIM1_BRK_IRQHandler                      0x08000213   Thumb Code     0  startup_stm32f10x_hd.o(.text)
    TIM1_CC_IRQHandler                       0x08000213   Thumb Code     0  startup_stm32f10x_hd.o(.text)
    TIM1_TRG_COM_IRQHandler                  0x08000213   Thumb Code     0  startup_stm32f10x_hd.o(.text)
    TIM1_UP_IRQHandler                       0x08000213   Thumb Code     0  startup_stm32f10x_hd.o(.text)
    TIM6_IRQHandler                          0x08000213   Thumb Code     0  startup_stm32f10x_hd.o(.text)
    TIM7_IRQHandler                          0x08000213   Thumb Code     0  startup_stm32f10x_hd.o(.text)
    TIM8_BRK_IRQHandler                      0x08000213   Thumb Code     0  startup_stm32f10x_hd.o(.text)
    TIM8_CC_IRQHandler                       0x08000213   Thumb Code     0  startup_stm32f10x_hd.o(.text)
    TIM8_TRG_COM_IRQHandler                  0x08000213   Thumb Code     0  startup_stm32f10x_hd.o(.text)
    TIM8_UP_IRQHandler                       0x08000213   Thumb Code     0  startup_stm32f10x_hd.o(.text)
    USBWakeUp_IRQHandler                     0x08000213   Thumb Code     0  startup_stm32f10x_hd.o(.text)
    USB_HP_CAN1_TX_IRQHandler                0x08000213   Thumb Code     0  startup_stm32f10x_hd.o(.text)
    USB_LP_CAN1_RX0_IRQHandler               0x08000213   Thumb Code     0  startup_stm32f10x_hd.o(.text)
    WWDG_IRQHandler                          0x08000213   Thumb Code     0  startup_stm32f10x_hd.o(.text)
    __user_initial_stackheap                 0x08000215   Thumb Code     0  startup_stm32f10x_hd.o(.text)
    __2sprintf                               0x08000239   Thumb Code    34  noretval__2sprintf.o(.text)
    _printf_pre_padding                      0x08000261   Thumb Code    44  _printf_pad.o(.text)
    _printf_post_padding                     0x0800028d   Thumb Code    34  _printf_pad.o(.text)
    _printf_int_dec                          0x080002b1   Thumb Code   104  _printf_dec.o(.text)
    __printf                                 0x08000329   Thumb Code   270  __printf_wp.o(.text)
    __use_two_region_memory                  0x08000437   Thumb Code     2  heapauxi.o(.text)
    __rt_heap_escrow$2region                 0x08000439   Thumb Code     2  heapauxi.o(.text)
    __rt_heap_expand$2region                 0x0800043b   Thumb Code     2  heapauxi.o(.text)
    __read_errno                             0x0800043d   Thumb Code    10  _rserrno.o(.text)
    __set_errno                              0x08000447   Thumb Code    12  _rserrno.o(.text)
    _printf_int_common                       0x08000453   Thumb Code   178  _printf_intcommon.o(.text)
    __lib_sel_fp_printf                      0x08000505   Thumb Code     2  _printf_fp_dec.o(.text)
    _printf_fp_dec_real                      0x080006b7   Thumb Code   620  _printf_fp_dec.o(.text)
    _printf_char_common                      0x0800092f   Thumb Code    32  _printf_char_common.o(.text)
    _sputc                                   0x08000955   Thumb Code    10  _sputc.o(.text)
    __strtod_int                             0x0800099d   Thumb Code    90  strtod.o(.text)
    __rt_locale                              0x08000a05   Thumb Code     8  rt_locale_intlibspace.o(.text)
    __aeabi_errno_addr                       0x08000a0d   Thumb Code     8  rt_errno_addr_intlibspace.o(.text)
    __errno$intlibspace                      0x08000a0d   Thumb Code     0  rt_errno_addr_intlibspace.o(.text)
    __rt_errno_addr$intlibspace              0x08000a0d   Thumb Code     0  rt_errno_addr_intlibspace.o(.text)
    _ll_udiv10                               0x08000a15   Thumb Code   138  lludiv10.o(.text)
    isspace                                  0x08000a9f   Thumb Code    18  isspace.o(.text)
    _printf_fp_infnan                        0x08000ab1   Thumb Code   112  _printf_fp_infnan.o(.text)
    _sgetc                                   0x08000b31   Thumb Code    30  _sgetc.o(.text)
    _sbackspace                              0x08000b4f   Thumb Code    34  _sgetc.o(.text)
    _btod_etento                             0x08000b71   Thumb Code   224  bigflt0.o(.text)
    __user_libspace                          0x08000c55   Thumb Code     8  libspace.o(.text)
    __user_perproc_libspace                  0x08000c55   Thumb Code     0  libspace.o(.text)
    __user_perthread_libspace                0x08000c55   Thumb Code     0  libspace.o(.text)
    __user_setup_stackheap                   0x08000c5d   Thumb Code    74  sys_stackheap_outer.o(.text)
    __rt_ctype_table                         0x08000ca9   Thumb Code    16  rt_ctype_table.o(.text)
    _scanf_really_real                       0x08000f05   Thumb Code   684  scanf_fp.o(.text)
    exit                                     0x080011b1   Thumb Code    18  exit.o(.text)
    strcmp                                   0x080011c5   Thumb Code   128  strcmpv7m.o(.text)
    _scanf_really_hex_real                   0x08001245   Thumb Code   786  scanf_hexfp.o(.text)
    _scanf_really_infnan                     0x08001565   Thumb Code   292  scanf_infnan.o(.text)
    _sys_exit                                0x08001699   Thumb Code     8  sys_exit.o(.text)
    __aeabi_llsl                             0x080016a5   Thumb Code     0  llshl.o(.text)
    _ll_shift_l                              0x080016a5   Thumb Code    38  llshl.o(.text)
    _chval                                   0x080016cb   Thumb Code    28  _chval.o(.text)
    __I$use$semihosting                      0x080016e7   Thumb Code     0  use_no_semi.o(.text)
    __use_no_semihosting_swi                 0x080016e7   Thumb Code     2  use_no_semi.o(.text)
    __semihosting_library_function           0x080016e9   Thumb Code     0  indicate_semi.o(.text)
    _btod_d2e                                0x080016e9   Thumb Code    62  btod.o(CL$$btod_d2e)
    _d2e_denorm_low                          0x08001727   Thumb Code    70  btod.o(CL$$btod_d2e_denorm_low)
    _d2e_norm_op1                            0x0800176d   Thumb Code    96  btod.o(CL$$btod_d2e_norm_op1)
    __btod_div_common                        0x080017cd   Thumb Code   696  btod.o(CL$$btod_div_common)
    _e2d                                     0x08001b05   Thumb Code   122  btod.o(CL$$btod_e2d)
    _e2e                                     0x08001b89   Thumb Code   220  btod.o(CL$$btod_e2e)
    _btod_ediv                               0x08001c65   Thumb Code    42  btod.o(CL$$btod_ediv)
    _btod_edivd                              0x08001c8f   Thumb Code    42  btod.o(CL$$btod_edivd)
    _btod_emul                               0x08001cb9   Thumb Code    42  btod.o(CL$$btod_emul)
    _btod_emuld                              0x08001ce3   Thumb Code    42  btod.o(CL$$btod_emuld)
    __btod_mult_common                       0x08001d0d   Thumb Code   580  btod.o(CL$$btod_mult_common)
    ADC_ClearFlag                            0x08001f51   Thumb Code     6  stm32f10x_adc.o(i.ADC_ClearFlag)
    ADC_Cmd                                  0x08001f57   Thumb Code    22  stm32f10x_adc.o(i.ADC_Cmd)
    ADC_GetCalibrationStatus                 0x08001f6d   Thumb Code    20  stm32f10x_adc.o(i.ADC_GetCalibrationStatus)
    ADC_GetFlagStatus                        0x08001f81   Thumb Code    18  stm32f10x_adc.o(i.ADC_GetFlagStatus)
    ADC_GetResetCalibrationStatus            0x08001f93   Thumb Code    20  stm32f10x_adc.o(i.ADC_GetResetCalibrationStatus)
    ADC_Init                                 0x08001fa9   Thumb Code    70  stm32f10x_adc.o(i.ADC_Init)
    ADC_RegularChannelConfig                 0x08001ff9   Thumb Code   184  stm32f10x_adc.o(i.ADC_RegularChannelConfig)
    ADC_ResetCalibration                     0x080020b1   Thumb Code    10  stm32f10x_adc.o(i.ADC_ResetCalibration)
    ADC_SoftwareStartConvCmd                 0x080020bb   Thumb Code    22  stm32f10x_adc.o(i.ADC_SoftwareStartConvCmd)
    ADC_StartCalibration                     0x080020d1   Thumb Code    10  stm32f10x_adc.o(i.ADC_StartCalibration)
    ADC_TempSensorVrefintCmd                 0x080020dd   Thumb Code    30  stm32f10x_adc.o(i.ADC_TempSensorVrefintCmd)
    ADCx_Init                                0x08002101   Thumb Code   214  adc.o(i.ADCx_Init)
    ADCx_Read_Vol                            0x080021e1   Thumb Code   112  adc.o(i.ADCx_Read_Vol)
    BZZ_Control                              0x08002259   Thumb Code    26  bzz.o(i.BZZ_Control)
    BZZ_Init                                 0x08002279   Thumb Code    44  bzz.o(i.BZZ_Init)
    BusFault_Handler                         0x080022a9   Thumb Code     4  stm32f10x_it.o(i.BusFault_Handler)
    DAC_Cmd                                  0x080022ad   Thumb Code    34  stm32f10x_dac.o(i.DAC_Cmd)
    DAC_Init                                 0x080022d5   Thumb Code    46  stm32f10x_dac.o(i.DAC_Init)
    DAC_SetChannel1Data                      0x08002309   Thumb Code    26  stm32f10x_dac.o(i.DAC_SetChannel1Data)
    DAC_SetChannel2Data                      0x08002329   Thumb Code    26  stm32f10x_dac.o(i.DAC_SetChannel2Data)
    DACx_Init                                0x08002349   Thumb Code   118  dac.o(i.DACx_Init)
    DACx_Set_Vol                             0x080023c5   Thumb Code   132  dac.o(i.DACx_Set_Vol)
    Data_Chang_NUM                           0x0800244d   Thumb Code    92  data_handle.o(i.Data_Chang_NUM)
    Data_Judge                               0x080024b1   Thumb Code    36  data_handle.o(i.Data_Judge)
    Data_Replace                             0x080024d5   Thumb Code    28  data_handle.o(i.Data_Replace)
    DebugMon_Handler                         0x080024f1   Thumb Code     2  stm32f10x_it.o(i.DebugMon_Handler)
    Delay_10us                               0x080024f5   Thumb Code    20  sys_time.o(i.Delay_10us)
    Delay_ms                                 0x0800250d   Thumb Code    30  sys_time.o(i.Delay_ms)
    FLASH_ErasePage                          0x08002531   Thumb Code    72  stm32f10x_flash.o(i.FLASH_ErasePage)
    FLASH_GetBank1Status                     0x0800257d   Thumb Code    48  stm32f10x_flash.o(i.FLASH_GetBank1Status)
    FLASH_Lock                               0x080025b1   Thumb Code    14  stm32f10x_flash.o(i.FLASH_Lock)
    FLASH_ProgramHalfWord                    0x080025c5   Thumb Code    60  stm32f10x_flash.o(i.FLASH_ProgramHalfWord)
    FLASH_Unlock                             0x08002605   Thumb Code    12  stm32f10x_flash.o(i.FLASH_Unlock)
    FLASH_WaitForLastOperation               0x0800261d   Thumb Code    38  stm32f10x_flash.o(i.FLASH_WaitForLastOperation)
    GPIO_Init                                0x08002643   Thumb Code   278  stm32f10x_gpio.o(i.GPIO_Init)
    GPIO_PinRemapConfig                      0x08002759   Thumb Code   138  stm32f10x_gpio.o(i.GPIO_PinRemapConfig)
    GPIO_ReadInputDataBit                    0x080027e9   Thumb Code    18  stm32f10x_gpio.o(i.GPIO_ReadInputDataBit)
    GPIO_ResetBits                           0x080027fb   Thumb Code     4  stm32f10x_gpio.o(i.GPIO_ResetBits)
    GPIO_SetBits                             0x080027ff   Thumb Code     4  stm32f10x_gpio.o(i.GPIO_SetBits)
    HardFault_Handler                        0x08002803   Thumb Code     4  stm32f10x_it.o(i.HardFault_Handler)
    IIC_ReadBit                              0x08002809   Thumb Code    70  iic.o(i.IIC_ReadBit)
    IIC_ReadByte                             0x08002855   Thumb Code    60  iic.o(i.IIC_ReadByte)
    IIC_SendBit                              0x08002891   Thumb Code    66  iic.o(i.IIC_SendBit)
    IIC_SendByte                             0x080028d9   Thumb Code    58  iic.o(i.IIC_SendByte)
    IIC_Software_Init                        0x08002915   Thumb Code    54  iic.o(i.IIC_Software_Init)
    IIC_StartBit                             0x08002951   Thumb Code    64  iic.o(i.IIC_StartBit)
    IIC_StopBit                              0x08002995   Thumb Code    58  iic.o(i.IIC_StopBit)
    Init_Steering_Engine_T4                  0x080029d5   Thumb Code   158  steering_engine.o(i.Init_Steering_Engine_T4)
    KEY_Init                                 0x08002a89   Thumb Code    34  key.o(i.KEY_Init)
    LCD_Address_Set                          0x08002ab1   Thumb Code    58  lcd.o(i.LCD_Address_Set)
    LCD_DrawPoint                            0x08002aeb   Thumb Code    28  lcd.o(i.LCD_DrawPoint)
    LCD_Fill                                 0x08002b07   Thumb Code    74  lcd.o(i.LCD_Fill)
    LCD_GPIO_Init                            0x08002b51   Thumb Code    72  lcd.o(i.LCD_GPIO_Init)
    LCD_Init                                 0x08002ba5   Thumb Code   410  lcd.o(i.LCD_Init)
    LCD_ShowChar                             0x08002d45   Thumb Code   298  lcd.o(i.LCD_ShowChar)
    LCD_ShowPicture                          0x08002e7d   Thumb Code   102  lcd.o(i.LCD_ShowPicture)
    LCD_ShowString                           0x08002ee3   Thumb Code   110  lcd.o(i.LCD_ShowString)
    LCD_WR_DATA                              0x08002f51   Thumb Code    28  lcd.o(i.LCD_WR_DATA)
    LCD_WR_DATA8                             0x08002f71   Thumb Code    22  lcd.o(i.LCD_WR_DATA8)
    LCD_WR_REG                               0x08002f8d   Thumb Code    22  lcd.o(i.LCD_WR_REG)
    LCD_Writ_Bus                             0x08002fa9   Thumb Code    90  lcd.o(i.LCD_Writ_Bus)
    MemManage_Handler                        0x08003009   Thumb Code     4  stm32f10x_it.o(i.MemManage_Handler)
    Mian_Init                                0x0800300d   Thumb Code   434  main.o(i.Mian_Init)
    Mlx90614_Init                            0x0800320d   Thumb Code     8  mlx90614.o(i.Mlx90614_Init)
    Mlx90614_ReadTemp                        0x08003215   Thumb Code    54  mlx90614.o(i.Mlx90614_ReadTemp)
    Motorx_Control                           0x08003259   Thumb Code   396  motor.o(i.Motorx_Control)
    Motorx_Init                              0x080033f5   Thumb Code   302  motor.o(i.Motorx_Init)
    NMI_Handler                              0x08003535   Thumb Code     2  stm32f10x_it.o(i.NMI_Handler)
    NVIC_Init                                0x08003539   Thumb Code   100  misc.o(i.NVIC_Init)
    NVIC_PriorityGroupConfig                 0x080035a9   Thumb Code    10  misc.o(i.NVIC_PriorityGroupConfig)
    PEC_Calculation                          0x080035bd   Thumb Code   186  mlx90614.o(i.PEC_Calculation)
    PendSV_Handler                           0x08003677   Thumb Code     2  stm32f10x_it.o(i.PendSV_Handler)
    RCC_ADCCLKConfig                         0x08003679   Thumb Code    18  stm32f10x_rcc.o(i.RCC_ADCCLKConfig)
    RCC_APB1PeriphClockCmd                   0x08003691   Thumb Code    26  stm32f10x_rcc.o(i.RCC_APB1PeriphClockCmd)
    RCC_APB1PeriphResetCmd                   0x080036b1   Thumb Code    26  stm32f10x_rcc.o(i.RCC_APB1PeriphResetCmd)
    RCC_APB2PeriphClockCmd                   0x080036d1   Thumb Code    26  stm32f10x_rcc.o(i.RCC_APB2PeriphClockCmd)
    RCC_APB2PeriphResetCmd                   0x080036f1   Thumb Code    26  stm32f10x_rcc.o(i.RCC_APB2PeriphResetCmd)
    RCC_GetClocksFreq                        0x08003711   Thumb Code   192  stm32f10x_rcc.o(i.RCC_GetClocksFreq)
    Read_MCU_Temp                            0x080037e5   Thumb Code    78  adc.o(i.Read_MCU_Temp)
    SMBus_ReadMemory                         0x08003849   Thumb Code   178  mlx90614.o(i.SMBus_ReadMemory)
    STMFLASH_Read                            0x080038fb   Thumb Code    34  stmflash.o(i.STMFLASH_Read)
    STMFLASH_ReadHalfWord                    0x0800391d   Thumb Code     6  stmflash.o(i.STMFLASH_ReadHalfWord)
    STMFLASH_Write                           0x08003925   Thumb Code   222  stmflash.o(i.STMFLASH_Write)
    STMFLASH_Write_NoCheck                   0x08003a0d   Thumb Code    38  stmflash.o(i.STMFLASH_Write_NoCheck)
    SVC_Handler                              0x08003a33   Thumb Code     2  stm32f10x_it.o(i.SVC_Handler)
    Set_Angle_Cal_180                        0x08003b1d   Thumb Code    70  steering_engine.o(i.Set_Angle_Cal_180)
    Steering_Engine_Angle                    0x08003b79   Thumb Code   102  steering_engine.o(i.Steering_Engine_Angle)
    SysTick_Handler                          0x08003be5   Thumb Code    18  sys_time.o(i.SysTick_Handler)
    Sys_Watch                                0x08003bfd   Thumb Code    96  sys_time.o(i.Sys_Watch)
    SystemInit                               0x08003c65   Thumb Code    78  system_stm32f10x.o(i.SystemInit)
    TIM2_IRQHandler                          0x08003cc5   Thumb Code    24  encoder.o(i.TIM2_IRQHandler)
    TIM3_IRQHandler                          0x08003cdd   Thumb Code    18  encoder.o(i.TIM3_IRQHandler)
    TIM4_IRQHandler                          0x08003cf5   Thumb Code    18  encoder.o(i.TIM4_IRQHandler)
    TIM4_PWM_Init                            0x08003d0d   Thumb Code   190  pwm.o(i.TIM4_PWM_Init)
    TIM5_IRQHandler                          0x08003dd5   Thumb Code    18  encoder.o(i.TIM5_IRQHandler)
    TIM8_PWM_Init                            0x08003ded   Thumb Code   210  pwm.o(i.TIM8_PWM_Init)
    TIM_ARRPreloadConfig                     0x08003ec9   Thumb Code    24  stm32f10x_tim.o(i.TIM_ARRPreloadConfig)
    TIM_Cmd                                  0x08003ee1   Thumb Code    24  stm32f10x_tim.o(i.TIM_Cmd)
    TIM_CtrlPWMOutputs                       0x08003ef9   Thumb Code    30  stm32f10x_tim.o(i.TIM_CtrlPWMOutputs)
    TIM_ITConfig                             0x08003f17   Thumb Code    18  stm32f10x_tim.o(i.TIM_ITConfig)
    TIM_OC1Init                              0x08003f29   Thumb Code   132  stm32f10x_tim.o(i.TIM_OC1Init)
    TIM_OC1PreloadConfig                     0x08003fc1   Thumb Code    18  stm32f10x_tim.o(i.TIM_OC1PreloadConfig)
    TIM_OC2Init                              0x08003fd5   Thumb Code   154  stm32f10x_tim.o(i.TIM_OC2Init)
    TIM_OC2PreloadConfig                     0x08004079   Thumb Code    26  stm32f10x_tim.o(i.TIM_OC2PreloadConfig)
    TIM_OC3Init                              0x08004095   Thumb Code   150  stm32f10x_tim.o(i.TIM_OC3Init)
    TIM_OC3PreloadConfig                     0x08004135   Thumb Code    18  stm32f10x_tim.o(i.TIM_OC3PreloadConfig)
    TIM_OC4Init                              0x08004149   Thumb Code   114  stm32f10x_tim.o(i.TIM_OC4Init)
    TIM_OC4PreloadConfig                     0x080041c5   Thumb Code    26  stm32f10x_tim.o(i.TIM_OC4PreloadConfig)
    TIM_SetCompare1                          0x080041df   Thumb Code     4  stm32f10x_tim.o(i.TIM_SetCompare1)
    TIM_SetCompare2                          0x080041e3   Thumb Code     4  stm32f10x_tim.o(i.TIM_SetCompare2)
    TIM_SetCompare3                          0x080041e7   Thumb Code     4  stm32f10x_tim.o(i.TIM_SetCompare3)
    TIM_SetCompare4                          0x080041eb   Thumb Code     6  stm32f10x_tim.o(i.TIM_SetCompare4)
    TIM_TimeBaseInit                         0x080041f1   Thumb Code   122  stm32f10x_tim.o(i.TIM_TimeBaseInit)
    Tracing_Find                             0x08004295   Thumb Code   148  tracing.o(i.Tracing_Find)
    UART4_IRQHandler                         0x08004339   Thumb Code    88  uart.o(i.UART4_IRQHandler)
    UART5_IRQHandler                         0x08004399   Thumb Code    84  uart.o(i.UART5_IRQHandler)
    UARTx_Init                               0x080043f5   Thumb Code   838  uart.o(i.UARTx_Init)
    UARTx_Send_Data                          0x08004765   Thumb Code   168  uart.o(i.UARTx_Send_Data)
    UARTx_Send_String                        0x08004821   Thumb Code   174  uart.o(i.UARTx_Send_String)
    USART1_IRQHandler                        0x080048e5   Thumb Code    90  uart.o(i.USART1_IRQHandler)
    USART2_IRQHandler                        0x08004949   Thumb Code    88  uart.o(i.USART2_IRQHandler)
    USART3_IRQHandler                        0x080049a9   Thumb Code    90  uart.o(i.USART3_IRQHandler)
    USART_ClearFlag                          0x08004a0d   Thumb Code    18  stm32f10x_usart.o(i.USART_ClearFlag)
    USART_Cmd                                0x08004a1f   Thumb Code    24  stm32f10x_usart.o(i.USART_Cmd)
    USART_DeInit                             0x08004a39   Thumb Code   134  stm32f10x_usart.o(i.USART_DeInit)
    USART_GetFlagStatus                      0x08004ad5   Thumb Code    26  stm32f10x_usart.o(i.USART_GetFlagStatus)
    USART_GetITStatus                        0x08004aef   Thumb Code    84  stm32f10x_usart.o(i.USART_GetITStatus)
    USART_ITConfig                           0x08004b43   Thumb Code    74  stm32f10x_usart.o(i.USART_ITConfig)
    USART_Init                               0x08004b8d   Thumb Code   210  stm32f10x_usart.o(i.USART_Init)
    USART_ReceiveData                        0x08004c65   Thumb Code    10  stm32f10x_usart.o(i.USART_ReceiveData)
    USART_SendData                           0x08004c6f   Thumb Code     8  stm32f10x_usart.o(i.USART_SendData)
    UsageFault_Handler                       0x08004c77   Thumb Code     4  stm32f10x_it.o(i.UsageFault_Handler)
    __ARM_fpclassify                         0x08004c7b   Thumb Code    40  fpclassify.o(i.__ARM_fpclassify)
    __mathlib_dbl_overflow                   0x08004ca3   Thumb Code    14  dunder.o(i.__mathlib_dbl_overflow)
    __mathlib_dbl_underflow                  0x08004cb1   Thumb Code    10  dunder.o(i.__mathlib_dbl_underflow)
    __mathlib_narrow                         0x08004cc1   Thumb Code    16  narrow.o(i.__mathlib_narrow)
    __mathlib_tofloat                        0x08004cd1   Thumb Code   184  narrow.o(i.__mathlib_tofloat)
    __support_ldexp                          0x08004d8d   Thumb Code    22  ldexp.o(i.__support_ldexp)
    _is_digit                                0x08004da3   Thumb Code    14  __printf_wp.o(i._is_digit)
    atof                                     0x08004db1   Thumb Code    42  atof.o(i.atof)
    frexp                                    0x08004ddd   Thumb Code    80  frexp.o(i.frexp)
    ldexp                                    0x08004e35   Thumb Code   116  ldexp.o(i.ldexp)
    main                                     0x08004ea9   Thumb Code   924  main.o(i.main)
    _get_lc_numeric                          0x08005321   Thumb Code    44  lc_numeric_c.o(locale$$code)
    _get_lc_ctype                            0x0800534d   Thumb Code    44  lc_ctype_c.o(locale$$code)
    __aeabi_d2f                              0x08005379   Thumb Code     0  d2f.o(x$fpl$d2f)
    _d2f                                     0x08005379   Thumb Code    98  d2f.o(x$fpl$d2f)
    __aeabi_dadd                             0x080053dd   Thumb Code     0  daddsub_clz.o(x$fpl$dadd)
    _dadd                                    0x080053dd   Thumb Code   332  daddsub_clz.o(x$fpl$dadd)
    __fpl_dcheck_NaN1                        0x0800552d   Thumb Code    10  dcheck1.o(x$fpl$dcheck1)
    __fpl_dcmp_Inf                           0x0800553d   Thumb Code    24  dcmpi.o(x$fpl$dcmpinf)
    __aeabi_ddiv                             0x08005555   Thumb Code     0  ddiv.o(x$fpl$ddiv)
    _ddiv                                    0x08005555   Thumb Code   552  ddiv.o(x$fpl$ddiv)
    __aeabi_cdcmpeq                          0x08005805   Thumb Code     0  deqf.o(x$fpl$deqf)
    _dcmpeq                                  0x08005805   Thumb Code   120  deqf.o(x$fpl$deqf)
    __aeabi_d2iz                             0x0800587d   Thumb Code     0  dfix.o(x$fpl$dfix)
    _dfix                                    0x0800587d   Thumb Code    94  dfix.o(x$fpl$dfix)
    __aeabi_ui2d                             0x080058db   Thumb Code     0  dflt_clz.o(x$fpl$dfltu)
    _dfltu                                   0x080058db   Thumb Code    38  dflt_clz.o(x$fpl$dfltu)
    __aeabi_cdcmple                          0x08005901   Thumb Code     0  dleqf.o(x$fpl$dleqf)
    _dcmple                                  0x08005901   Thumb Code   120  dleqf.o(x$fpl$dleqf)
    __fpl_dcmple_InfNaN                      0x08005963   Thumb Code     0  dleqf.o(x$fpl$dleqf)
    __aeabi_dmul                             0x08005979   Thumb Code     0  dmul.o(x$fpl$dmul)
    _dmul                                    0x08005979   Thumb Code   332  dmul.o(x$fpl$dmul)
    __fpl_dnaninf                            0x08005acd   Thumb Code   156  dnaninf.o(x$fpl$dnaninf)
    __fpl_dretinf                            0x08005b69   Thumb Code    12  dretinf.o(x$fpl$dretinf)
    __aeabi_cdrcmple                         0x08005b75   Thumb Code     0  drleqf.o(x$fpl$drleqf)
    _drcmple                                 0x08005b75   Thumb Code   108  drleqf.o(x$fpl$drleqf)
    __aeabi_drsub                            0x08005be1   Thumb Code     0  daddsub_clz.o(x$fpl$drsb)
    _drsb                                    0x08005be1   Thumb Code    22  daddsub_clz.o(x$fpl$drsb)
    __aeabi_dsub                             0x08005bf9   Thumb Code     0  daddsub_clz.o(x$fpl$dsub)
    _dsub                                    0x08005bf9   Thumb Code   464  daddsub_clz.o(x$fpl$dsub)
    __aeabi_f2d                              0x08005dcd   Thumb Code     0  f2d.o(x$fpl$f2d)
    _f2d                                     0x08005dcd   Thumb Code    86  f2d.o(x$fpl$f2d)
    __aeabi_fadd                             0x08005e25   Thumb Code     0  faddsub_clz.o(x$fpl$fadd)
    _fadd                                    0x08005e25   Thumb Code   196  faddsub_clz.o(x$fpl$fadd)
    __fpl_fcmp_Inf                           0x08005ee9   Thumb Code    24  fcmpi.o(x$fpl$fcmpinf)
    __aeabi_fdiv                             0x08005f01   Thumb Code     0  fdiv.o(x$fpl$fdiv)
    _fdiv                                    0x08005f01   Thumb Code   384  fdiv.o(x$fpl$fdiv)
    __aeabi_f2uiz                            0x08006085   Thumb Code     0  ffixu.o(x$fpl$ffixu)
    _ffixu                                   0x08006085   Thumb Code    62  ffixu.o(x$fpl$ffixu)
    __aeabi_ui2f                             0x080060c5   Thumb Code     0  fflt_clz.o(x$fpl$ffltu)
    _ffltu                                   0x080060c5   Thumb Code    38  fflt_clz.o(x$fpl$ffltu)
    __aeabi_cfcmple                          0x080060ed   Thumb Code     0  fleqf.o(x$fpl$fleqf)
    _fcmple                                  0x080060ed   Thumb Code   104  fleqf.o(x$fpl$fleqf)
    __fpl_fcmple_InfNaN                      0x0800613f   Thumb Code     0  fleqf.o(x$fpl$fleqf)
    __aeabi_fmul                             0x08006155   Thumb Code     0  fmul.o(x$fpl$fmul)
    _fmul                                    0x08006155   Thumb Code   258  fmul.o(x$fpl$fmul)
    __fpl_fnaninf                            0x08006257   Thumb Code   140  fnaninf.o(x$fpl$fnaninf)
    __fpl_fretinf                            0x080062e3   Thumb Code    10  fretinf.o(x$fpl$fretinf)
    __aeabi_cfrcmple                         0x080062ed   Thumb Code     0  frleqf.o(x$fpl$frleqf)
    _frcmple                                 0x080062ed   Thumb Code    98  frleqf.o(x$fpl$frleqf)
    __aeabi_fsub                             0x08006351   Thumb Code     0  faddsub_clz.o(x$fpl$fsub)
    _fsub                                    0x08006351   Thumb Code   234  faddsub_clz.o(x$fpl$fsub)
    __ieee_status                            0x0800643b   Thumb Code     6  istatus.o(x$fpl$ieeestatus)
    _printf_fp_dec                           0x08006441   Thumb Code     4  printf1.o(x$fpl$printf1)
    __fpl_return_NaN                         0x08006445   Thumb Code   100  retnan.o(x$fpl$retnan)
    __ARM_scalbn                             0x080064a9   Thumb Code    92  scalbn.o(x$fpl$scalbn)
    _scanf_real                              0x08006505   Thumb Code     4  scanf1.o(x$fpl$scanf1)
    _scanf_hex_real                          0x08006509   Thumb Code     4  scanf2.o(x$fpl$scanf2)
    _scanf_infnan                            0x0800650d   Thumb Code     4  scanf2.o(x$fpl$scanf2)
    __fpl_cmpreturn                          0x08006511   Thumb Code    48  trapv.o(x$fpl$trapveneer)
    __I$use$fp                               0x08006540   Number         0  usenofp.o(x$fpl$usenofp)
    gImage_am_60                             0x08006540   Data        7200  main.o(.constdata)
    ascii_1608                               0x08008160   Data        1520  lcd.o(.constdata)
    ascii_2412                               0x08008750   Data        4560  lcd.o(.constdata)
    ascii_3216                               0x08009920   Data        6080  lcd.o(.constdata)
    tfont24                                  0x0800b0e0   Data         370  lcd.o(.constdata)
    tfont32                                  0x0800b252   Data         650  lcd.o(.constdata)
    Region$$Table$$Base                      0x0800b570   Number         0  anon$$obj.o(Region$$Table)
    Region$$Table$$Limit                     0x0800b590   Number         0  anon$$obj.o(Region$$Table)
    __aeabi_HUGE_VAL                         0x0800b590   Data           0  fpconst.o(c$$dinf)
    __aeabi_HUGE_VALL                        0x0800b590   Data           0  fpconst.o(c$$dinf)
    __aeabi_INFINITY                         0x0800b590   Data           0  fpconst.o(c$$dinf)
    __dInf                                   0x0800b590   Data           0  fpconst.o(c$$dinf)
    __huge_val                               0x0800b590   Data           0  fpconst.o(c$$dinf)
    __dbl_max                                0x0800b598   Data           0  fpconst.o(c$$dmax)
    __ctype                                  0x0800b5c9   Data           0  lc_ctype_c.o(locale$$data)
    far                                      0x20000000   Data           4  main.o(.data)
    temp                                     0x20000004   Data           4  main.o(.data)
    vol                                      0x20000008   Data           4  main.o(.data)
    clo                                      0x2000000c   Data           1  main.o(.data)
    CL                                       0x20000010   Data           4  main.o(.data)
    X_axis_num                               0x20000014   Data           4  main.o(.data)
    a                                        0x20000018   Data           4  main.o(.data)
    b                                        0x2000001c   Data           4  main.o(.data)
    Timewatch                                0x20000020   Data          12  sys_time.o(.data)
    TimingDelay                              0x2000002c   Data           4  sys_time.o(.data)
    Tracing_Array                            0x20000030   Data           6  tracing.o(.data)
    SystemCoreClock                          0x20000038   Data           4  system_stm32f10x.o(.data)
    AHBPrescTable                            0x2000003c   Data          16  system_stm32f10x.o(.data)
    Free_Array                               0x20000060   Data          16  main.o(.bss)
    array_watch                              0x20000070   Data          16  main.o(.bss)
    Data_Array                               0x20000080   Data          20  data_handle.o(.bss)
    CV_UART                                  0x20000094   Data         156  uart.o(.bss)
    STMFLASH_BUF                             0x20000130   Data        1024  stmflash.o(.bss)
    __libspace_start                         0x20000530   Data          96  libspace.o(.bss)
    __temporary_stack_top$libspace           0x20000590   Data           0  libspace.o(.bss)



==============================================================================

Memory Map of the image

  Image Entry point : 0x08000131

  Load Region LR_IROM1 (Base: 0x08000000, Size: 0x0000b72c, Max: 0x00040000, ABSOLUTE)

    Execution Region ER_IROM1 (Exec base: 0x08000000, Load base: 0x08000000, Size: 0x0000b6cc, Max: 0x00040000, ABSOLUTE)

    Exec Addr    Load Addr    Size         Type   Attr      Idx    E Section Name        Object

    0x08000000   0x08000000   0x00000130   Data   RO          590    RESET               startup_stm32f10x_hd.o
    0x08000130   0x08000130   0x00000008   Code   RO          616  * !!!main             c_w.l(__main.o)
    0x08000138   0x08000138   0x00000034   Code   RO          857    !!!scatter          c_w.l(__scatter.o)
    0x0800016c   0x0800016c   0x0000001a   Code   RO          858    !!handler_copy      c_w.l(__scatter_copy.o)
    0x08000186   0x08000186   0x00000002   PAD
    0x08000188   0x08000188   0x0000001c   Code   RO          859    !!handler_zi        c_w.l(__scatter_zi.o)
    0x080001a4   0x080001a4   0x00000000   Code   RO          614    .ARM.Collect$$_printf_percent$$00000000  c_w.l(_printf_percent.o)
    0x080001a4   0x080001a4   0x00000006   Code   RO          613    .ARM.Collect$$_printf_percent$$00000003  c_w.l(_printf_f.o)
    0x080001aa   0x080001aa   0x00000006   Code   RO          612    .ARM.Collect$$_printf_percent$$00000009  c_w.l(_printf_d.o)
    0x080001b0   0x080001b0   0x00000004   Code   RO          653    .ARM.Collect$$_printf_percent$$00000017  c_w.l(_printf_percent_end.o)
    0x080001b4   0x080001b4   0x00000002   Code   RO          717    .ARM.Collect$$libinit$$00000000  c_w.l(libinit.o)
    0x080001b6   0x080001b6   0x00000000   Code   RO          719    .ARM.Collect$$libinit$$00000002  c_w.l(libinit2.o)
    0x080001b6   0x080001b6   0x00000000   Code   RO          721    .ARM.Collect$$libinit$$00000004  c_w.l(libinit2.o)
    0x080001b6   0x080001b6   0x00000000   Code   RO          724    .ARM.Collect$$libinit$$0000000A  c_w.l(libinit2.o)
    0x080001b6   0x080001b6   0x00000000   Code   RO          726    .ARM.Collect$$libinit$$0000000C  c_w.l(libinit2.o)
    0x080001b6   0x080001b6   0x00000000   Code   RO          728    .ARM.Collect$$libinit$$0000000E  c_w.l(libinit2.o)
    0x080001b6   0x080001b6   0x00000006   Code   RO          729    .ARM.Collect$$libinit$$0000000F  c_w.l(libinit2.o)
    0x080001bc   0x080001bc   0x00000000   Code   RO          731    .ARM.Collect$$libinit$$00000011  c_w.l(libinit2.o)
    0x080001bc   0x080001bc   0x0000000c   Code   RO          732    .ARM.Collect$$libinit$$00000012  c_w.l(libinit2.o)
    0x080001c8   0x080001c8   0x00000000   Code   RO          733    .ARM.Collect$$libinit$$00000013  c_w.l(libinit2.o)
    0x080001c8   0x080001c8   0x00000000   Code   RO          735    .ARM.Collect$$libinit$$00000015  c_w.l(libinit2.o)
    0x080001c8   0x080001c8   0x0000000a   Code   RO          736    .ARM.Collect$$libinit$$00000016  c_w.l(libinit2.o)
    0x080001d2   0x080001d2   0x00000000   Code   RO          737    .ARM.Collect$$libinit$$00000017  c_w.l(libinit2.o)
    0x080001d2   0x080001d2   0x00000000   Code   RO          739    .ARM.Collect$$libinit$$00000019  c_w.l(libinit2.o)
    0x080001d2   0x080001d2   0x00000000   Code   RO          741    .ARM.Collect$$libinit$$0000001B  c_w.l(libinit2.o)
    0x080001d2   0x080001d2   0x00000000   Code   RO          743    .ARM.Collect$$libinit$$0000001D  c_w.l(libinit2.o)
    0x080001d2   0x080001d2   0x00000000   Code   RO          745    .ARM.Collect$$libinit$$0000001F  c_w.l(libinit2.o)
    0x080001d2   0x080001d2   0x00000000   Code   RO          747    .ARM.Collect$$libinit$$00000021  c_w.l(libinit2.o)
    0x080001d2   0x080001d2   0x00000000   Code   RO          749    .ARM.Collect$$libinit$$00000023  c_w.l(libinit2.o)
    0x080001d2   0x080001d2   0x00000000   Code   RO          751    .ARM.Collect$$libinit$$00000025  c_w.l(libinit2.o)
    0x080001d2   0x080001d2   0x00000000   Code   RO          755    .ARM.Collect$$libinit$$0000002C  c_w.l(libinit2.o)
    0x080001d2   0x080001d2   0x00000000   Code   RO          757    .ARM.Collect$$libinit$$0000002E  c_w.l(libinit2.o)
    0x080001d2   0x080001d2   0x00000000   Code   RO          759    .ARM.Collect$$libinit$$00000030  c_w.l(libinit2.o)
    0x080001d2   0x080001d2   0x00000000   Code   RO          761    .ARM.Collect$$libinit$$00000032  c_w.l(libinit2.o)
    0x080001d2   0x080001d2   0x00000002   Code   RO          762    .ARM.Collect$$libinit$$00000033  c_w.l(libinit2.o)
    0x080001d4   0x080001d4   0x00000002   Code   RO          801    .ARM.Collect$$libshutdown$$00000000  c_w.l(libshutdown.o)
    0x080001d6   0x080001d6   0x00000000   Code   RO          815    .ARM.Collect$$libshutdown$$00000002  c_w.l(libshutdown2.o)
    0x080001d6   0x080001d6   0x00000000   Code   RO          817    .ARM.Collect$$libshutdown$$00000004  c_w.l(libshutdown2.o)
    0x080001d6   0x080001d6   0x00000000   Code   RO          819    .ARM.Collect$$libshutdown$$00000006  c_w.l(libshutdown2.o)
    0x080001d6   0x080001d6   0x00000000   Code   RO          822    .ARM.Collect$$libshutdown$$00000009  c_w.l(libshutdown2.o)
    0x080001d6   0x080001d6   0x00000000   Code   RO          825    .ARM.Collect$$libshutdown$$0000000C  c_w.l(libshutdown2.o)
    0x080001d6   0x080001d6   0x00000000   Code   RO          827    .ARM.Collect$$libshutdown$$0000000E  c_w.l(libshutdown2.o)
    0x080001d6   0x080001d6   0x00000000   Code   RO          830    .ARM.Collect$$libshutdown$$00000011  c_w.l(libshutdown2.o)
    0x080001d6   0x080001d6   0x00000002   Code   RO          831    .ARM.Collect$$libshutdown$$00000012  c_w.l(libshutdown2.o)
    0x080001d8   0x080001d8   0x00000000   Code   RO          647    .ARM.Collect$$rtentry$$00000000  c_w.l(__rtentry.o)
    0x080001d8   0x080001d8   0x00000000   Code   RO          663    .ARM.Collect$$rtentry$$00000002  c_w.l(__rtentry2.o)
    0x080001d8   0x080001d8   0x00000006   Code   RO          675    .ARM.Collect$$rtentry$$00000004  c_w.l(__rtentry4.o)
    0x080001de   0x080001de   0x00000000   Code   RO          665    .ARM.Collect$$rtentry$$00000009  c_w.l(__rtentry2.o)
    0x080001de   0x080001de   0x00000004   Code   RO          666    .ARM.Collect$$rtentry$$0000000A  c_w.l(__rtentry2.o)
    0x080001e2   0x080001e2   0x00000000   Code   RO          668    .ARM.Collect$$rtentry$$0000000C  c_w.l(__rtentry2.o)
    0x080001e2   0x080001e2   0x00000008   Code   RO          669    .ARM.Collect$$rtentry$$0000000D  c_w.l(__rtentry2.o)
    0x080001ea   0x080001ea   0x00000002   Code   RO          763    .ARM.Collect$$rtexit$$00000000  c_w.l(rtexit.o)
    0x080001ec   0x080001ec   0x00000000   Code   RO          780    .ARM.Collect$$rtexit$$00000002  c_w.l(rtexit2.o)
    0x080001ec   0x080001ec   0x00000004   Code   RO          781    .ARM.Collect$$rtexit$$00000003  c_w.l(rtexit2.o)
    0x080001f0   0x080001f0   0x00000006   Code   RO          782    .ARM.Collect$$rtexit$$00000004  c_w.l(rtexit2.o)
    0x080001f6   0x080001f6   0x00000002   PAD
    0x080001f8   0x080001f8   0x00000040   Code   RO          591    .text               startup_stm32f10x_hd.o
    0x08000238   0x08000238   0x00000028   Code   RO          595    .text               c_w.l(noretval__2sprintf.o)
    0x08000260   0x08000260   0x0000004e   Code   RO          597    .text               c_w.l(_printf_pad.o)
    0x080002ae   0x080002ae   0x00000002   PAD
    0x080002b0   0x080002b0   0x00000078   Code   RO          598    .text               c_w.l(_printf_dec.o)
    0x08000328   0x08000328   0x0000010e   Code   RO          604    .text               c_w.l(__printf_wp.o)
    0x08000436   0x08000436   0x00000006   Code   RO          615    .text               c_w.l(heapauxi.o)
    0x0800043c   0x0800043c   0x00000016   Code   RO          648    .text               c_w.l(_rserrno.o)
    0x08000452   0x08000452   0x000000b2   Code   RO          649    .text               c_w.l(_printf_intcommon.o)
    0x08000504   0x08000504   0x0000041e   Code   RO          650    .text               c_w.l(_printf_fp_dec.o)
    0x08000922   0x08000922   0x00000002   PAD
    0x08000924   0x08000924   0x00000030   Code   RO          651    .text               c_w.l(_printf_char_common.o)
    0x08000954   0x08000954   0x0000000a   Code   RO          652    .text               c_w.l(_sputc.o)
    0x0800095e   0x0800095e   0x00000002   PAD
    0x08000960   0x08000960   0x000000a4   Code   RO          654    .text               c_w.l(strtod.o)
    0x08000a04   0x08000a04   0x00000008   Code   RO          679    .text               c_w.l(rt_locale_intlibspace.o)
    0x08000a0c   0x08000a0c   0x00000008   Code   RO          682    .text               c_w.l(rt_errno_addr_intlibspace.o)
    0x08000a14   0x08000a14   0x0000008a   Code   RO          683    .text               c_w.l(lludiv10.o)
    0x08000a9e   0x08000a9e   0x00000012   Code   RO          684    .text               c_w.l(isspace.o)
    0x08000ab0   0x08000ab0   0x00000080   Code   RO          685    .text               c_w.l(_printf_fp_infnan.o)
    0x08000b30   0x08000b30   0x00000040   Code   RO          687    .text               c_w.l(_sgetc.o)
    0x08000b70   0x08000b70   0x000000e4   Code   RO          688    .text               c_w.l(bigflt0.o)
    0x08000c54   0x08000c54   0x00000008   Code   RO          707    .text               c_w.l(libspace.o)
    0x08000c5c   0x08000c5c   0x0000004a   Code   RO          709    .text               c_w.l(sys_stackheap_outer.o)
    0x08000ca6   0x08000ca6   0x00000002   PAD
    0x08000ca8   0x08000ca8   0x00000010   Code   RO          710    .text               c_w.l(rt_ctype_table.o)
    0x08000cb8   0x08000cb8   0x000004f8   Code   RO          711    .text               c_w.l(scanf_fp.o)
    0x080011b0   0x080011b0   0x00000012   Code   RO          712    .text               c_w.l(exit.o)
    0x080011c2   0x080011c2   0x00000002   PAD
    0x080011c4   0x080011c4   0x00000080   Code   RO          713    .text               c_w.l(strcmpv7m.o)
    0x08001244   0x08001244   0x00000320   Code   RO          786    .text               c_w.l(scanf_hexfp.o)
    0x08001564   0x08001564   0x00000134   Code   RO          787    .text               c_w.l(scanf_infnan.o)
    0x08001698   0x08001698   0x0000000c   Code   RO          794    .text               c_w.l(sys_exit.o)
    0x080016a4   0x080016a4   0x00000026   Code   RO          796    .text               c_w.l(llshl.o)
    0x080016ca   0x080016ca   0x0000001c   Code   RO          797    .text               c_w.l(_chval.o)
    0x080016e6   0x080016e6   0x00000002   Code   RO          809    .text               c_w.l(use_no_semi.o)
    0x080016e8   0x080016e8   0x00000000   Code   RO          810    .text               c_w.l(indicate_semi.o)
    0x080016e8   0x080016e8   0x0000003e   Code   RO          690    CL$$btod_d2e        c_w.l(btod.o)
    0x08001726   0x08001726   0x00000046   Code   RO          692    CL$$btod_d2e_denorm_low  c_w.l(btod.o)
    0x0800176c   0x0800176c   0x00000060   Code   RO          691    CL$$btod_d2e_norm_op1  c_w.l(btod.o)
    0x080017cc   0x080017cc   0x00000338   Code   RO          700    CL$$btod_div_common  c_w.l(btod.o)
    0x08001b04   0x08001b04   0x00000084   Code   RO          698    CL$$btod_e2d        c_w.l(btod.o)
    0x08001b88   0x08001b88   0x000000dc   Code   RO          697    CL$$btod_e2e        c_w.l(btod.o)
    0x08001c64   0x08001c64   0x0000002a   Code   RO          694    CL$$btod_ediv       c_w.l(btod.o)
    0x08001c8e   0x08001c8e   0x0000002a   Code   RO          696    CL$$btod_edivd      c_w.l(btod.o)
    0x08001cb8   0x08001cb8   0x0000002a   Code   RO          693    CL$$btod_emul       c_w.l(btod.o)
    0x08001ce2   0x08001ce2   0x0000002a   Code   RO          695    CL$$btod_emuld      c_w.l(btod.o)
    0x08001d0c   0x08001d0c   0x00000244   Code   RO          699    CL$$btod_mult_common  c_w.l(btod.o)
    0x08001f50   0x08001f50   0x00000006   Code   RO          124    i.ADC_ClearFlag     stm32f10x_adc.o
    0x08001f56   0x08001f56   0x00000016   Code   RO          126    i.ADC_Cmd           stm32f10x_adc.o
    0x08001f6c   0x08001f6c   0x00000014   Code   RO          134    i.ADC_GetCalibrationStatus  stm32f10x_adc.o
    0x08001f80   0x08001f80   0x00000012   Code   RO          137    i.ADC_GetFlagStatus  stm32f10x_adc.o
    0x08001f92   0x08001f92   0x00000014   Code   RO          140    i.ADC_GetResetCalibrationStatus  stm32f10x_adc.o
    0x08001fa6   0x08001fa6   0x00000002   PAD
    0x08001fa8   0x08001fa8   0x00000050   Code   RO          144    i.ADC_Init          stm32f10x_adc.o
    0x08001ff8   0x08001ff8   0x000000b8   Code   RO          148    i.ADC_RegularChannelConfig  stm32f10x_adc.o
    0x080020b0   0x080020b0   0x0000000a   Code   RO          149    i.ADC_ResetCalibration  stm32f10x_adc.o
    0x080020ba   0x080020ba   0x00000016   Code   RO          151    i.ADC_SoftwareStartConvCmd  stm32f10x_adc.o
    0x080020d0   0x080020d0   0x0000000a   Code   RO          153    i.ADC_StartCalibration  stm32f10x_adc.o
    0x080020da   0x080020da   0x00000002   PAD
    0x080020dc   0x080020dc   0x00000024   Code   RO          155    i.ADC_TempSensorVrefintCmd  stm32f10x_adc.o
    0x08002100   0x08002100   0x000000e0   Code   RO           46    i.ADCx_Init         adc.o
    0x080021e0   0x080021e0   0x00000078   Code   RO           47    i.ADCx_Read_Vol     adc.o
    0x08002258   0x08002258   0x00000020   Code   RO           70    i.BZZ_Control       bzz.o
    0x08002278   0x08002278   0x00000030   Code   RO           71    i.BZZ_Init          bzz.o
    0x080022a8   0x080022a8   0x00000004   Code   RO            1    i.BusFault_Handler  stm32f10x_it.o
    0x080022ac   0x080022ac   0x00000028   Code   RO          213    i.DAC_Cmd           stm32f10x_dac.o
    0x080022d4   0x080022d4   0x00000034   Code   RO          218    i.DAC_Init          stm32f10x_dac.o
    0x08002308   0x08002308   0x00000020   Code   RO          219    i.DAC_SetChannel1Data  stm32f10x_dac.o
    0x08002328   0x08002328   0x00000020   Code   RO          220    i.DAC_SetChannel2Data  stm32f10x_dac.o
    0x08002348   0x08002348   0x0000007c   Code   RO           55    i.DACx_Init         dac.o
    0x080023c4   0x080023c4   0x00000088   Code   RO           56    i.DACx_Set_Vol      dac.o
    0x0800244c   0x0800244c   0x00000064   Code   RO           14    i.Data_Chang_NUM    data_handle.o
    0x080024b0   0x080024b0   0x00000024   Code   RO           15    i.Data_Judge        data_handle.o
    0x080024d4   0x080024d4   0x0000001c   Code   RO           16    i.Data_Replace      data_handle.o
    0x080024f0   0x080024f0   0x00000002   Code   RO            2    i.DebugMon_Handler  stm32f10x_it.o
    0x080024f2   0x080024f2   0x00000002   PAD
    0x080024f4   0x080024f4   0x00000018   Code   RO           31    i.Delay_10us        sys_time.o
    0x0800250c   0x0800250c   0x00000024   Code   RO           33    i.Delay_ms          sys_time.o
    0x08002530   0x08002530   0x0000004c   Code   RO          252    i.FLASH_ErasePage   stm32f10x_flash.o
    0x0800257c   0x0800257c   0x00000034   Code   RO          253    i.FLASH_GetBank1Status  stm32f10x_flash.o
    0x080025b0   0x080025b0   0x00000014   Code   RO          262    i.FLASH_Lock        stm32f10x_flash.o
    0x080025c4   0x080025c4   0x00000040   Code   RO          265    i.FLASH_ProgramHalfWord  stm32f10x_flash.o
    0x08002604   0x08002604   0x00000018   Code   RO          270    i.FLASH_Unlock      stm32f10x_flash.o
    0x0800261c   0x0800261c   0x00000026   Code   RO          274    i.FLASH_WaitForLastOperation  stm32f10x_flash.o
    0x08002642   0x08002642   0x00000116   Code   RO          300    i.GPIO_Init         stm32f10x_gpio.o
    0x08002758   0x08002758   0x00000090   Code   RO          302    i.GPIO_PinRemapConfig  stm32f10x_gpio.o
    0x080027e8   0x080027e8   0x00000012   Code   RO          304    i.GPIO_ReadInputDataBit  stm32f10x_gpio.o
    0x080027fa   0x080027fa   0x00000004   Code   RO          307    i.GPIO_ResetBits    stm32f10x_gpio.o
    0x080027fe   0x080027fe   0x00000004   Code   RO          308    i.GPIO_SetBits      stm32f10x_gpio.o
    0x08002802   0x08002802   0x00000004   Code   RO            3    i.HardFault_Handler  stm32f10x_it.o
    0x08002806   0x08002806   0x00000002   PAD
    0x08002808   0x08002808   0x0000004c   Code   RO           57    i.IIC_ReadBit       iic.o
    0x08002854   0x08002854   0x0000003c   Code   RO           58    i.IIC_ReadByte      iic.o
    0x08002890   0x08002890   0x00000048   Code   RO           59    i.IIC_SendBit       iic.o
    0x080028d8   0x080028d8   0x0000003a   Code   RO           60    i.IIC_SendByte      iic.o
    0x08002912   0x08002912   0x00000002   PAD
    0x08002914   0x08002914   0x0000003c   Code   RO           61    i.IIC_Software_Init  iic.o
    0x08002950   0x08002950   0x00000044   Code   RO           62    i.IIC_StartBit      iic.o
    0x08002994   0x08002994   0x00000040   Code   RO           63    i.IIC_StopBit       iic.o
    0x080029d4   0x080029d4   0x000000b4   Code   RO          100    i.Init_Steering_Engine_T4  steering_engine.o
    0x08002a88   0x08002a88   0x00000028   Code   RO           72    i.KEY_Init          key.o
    0x08002ab0   0x08002ab0   0x0000003a   Code   RO           75    i.LCD_Address_Set   lcd.o
    0x08002aea   0x08002aea   0x0000001c   Code   RO           77    i.LCD_DrawPoint     lcd.o
    0x08002b06   0x08002b06   0x0000004a   Code   RO           79    i.LCD_Fill          lcd.o
    0x08002b50   0x08002b50   0x00000054   Code   RO           80    i.LCD_GPIO_Init     lcd.o
    0x08002ba4   0x08002ba4   0x000001a0   Code   RO           81    i.LCD_Init          lcd.o
    0x08002d44   0x08002d44   0x00000138   Code   RO           82    i.LCD_ShowChar      lcd.o
    0x08002e7c   0x08002e7c   0x00000066   Code   RO           86    i.LCD_ShowPicture   lcd.o
    0x08002ee2   0x08002ee2   0x0000006e   Code   RO           87    i.LCD_ShowString    lcd.o
    0x08002f50   0x08002f50   0x00000020   Code   RO           88    i.LCD_WR_DATA       lcd.o
    0x08002f70   0x08002f70   0x0000001c   Code   RO           89    i.LCD_WR_DATA8      lcd.o
    0x08002f8c   0x08002f8c   0x0000001c   Code   RO           90    i.LCD_WR_REG        lcd.o
    0x08002fa8   0x08002fa8   0x00000060   Code   RO           91    i.LCD_Writ_Bus      lcd.o
    0x08003008   0x08003008   0x00000004   Code   RO            4    i.MemManage_Handler  stm32f10x_it.o
    0x0800300c   0x0800300c   0x00000200   Code   RO            9    i.Mian_Init         main.o
    0x0800320c   0x0800320c   0x00000008   Code   RO           94    i.Mlx90614_Init     mlx90614.o
    0x08003214   0x08003214   0x00000044   Code   RO           95    i.Mlx90614_ReadTemp  mlx90614.o
    0x08003258   0x08003258   0x0000019c   Code   RO           98    i.Motorx_Control    motor.o
    0x080033f4   0x080033f4   0x00000140   Code   RO           99    i.Motorx_Init       motor.o
    0x08003534   0x08003534   0x00000002   Code   RO            5    i.NMI_Handler       stm32f10x_it.o
    0x08003536   0x08003536   0x00000002   PAD
    0x08003538   0x08003538   0x00000070   Code   RO          115    i.NVIC_Init         misc.o
    0x080035a8   0x080035a8   0x00000014   Code   RO          116    i.NVIC_PriorityGroupConfig  misc.o
    0x080035bc   0x080035bc   0x000000ba   Code   RO           96    i.PEC_Calculation   mlx90614.o
    0x08003676   0x08003676   0x00000002   Code   RO            6    i.PendSV_Handler    stm32f10x_it.o
    0x08003678   0x08003678   0x00000018   Code   RO          360    i.RCC_ADCCLKConfig  stm32f10x_rcc.o
    0x08003690   0x08003690   0x00000020   Code   RO          362    i.RCC_APB1PeriphClockCmd  stm32f10x_rcc.o
    0x080036b0   0x080036b0   0x00000020   Code   RO          363    i.RCC_APB1PeriphResetCmd  stm32f10x_rcc.o
    0x080036d0   0x080036d0   0x00000020   Code   RO          364    i.RCC_APB2PeriphClockCmd  stm32f10x_rcc.o
    0x080036f0   0x080036f0   0x00000020   Code   RO          365    i.RCC_APB2PeriphResetCmd  stm32f10x_rcc.o
    0x08003710   0x08003710   0x000000d4   Code   RO          372    i.RCC_GetClocksFreq  stm32f10x_rcc.o
    0x080037e4   0x080037e4   0x00000064   Code   RO           48    i.Read_MCU_Temp     adc.o
    0x08003848   0x08003848   0x000000b2   Code   RO           97    i.SMBus_ReadMemory  mlx90614.o
    0x080038fa   0x080038fa   0x00000022   Code   RO           49    i.STMFLASH_Read     stmflash.o
    0x0800391c   0x0800391c   0x00000006   Code   RO           50    i.STMFLASH_ReadHalfWord  stmflash.o
    0x08003922   0x08003922   0x00000002   PAD
    0x08003924   0x08003924   0x000000e8   Code   RO           51    i.STMFLASH_Write    stmflash.o
    0x08003a0c   0x08003a0c   0x00000026   Code   RO           52    i.STMFLASH_Write_NoCheck  stmflash.o
    0x08003a32   0x08003a32   0x00000002   Code   RO            7    i.SVC_Handler       stm32f10x_it.o
    0x08003a34   0x08003a34   0x00000008   Code   RO          110    i.SetSysClock       system_stm32f10x.o
    0x08003a3c   0x08003a3c   0x000000e0   Code   RO          111    i.SetSysClockTo72   system_stm32f10x.o
    0x08003b1c   0x08003b1c   0x0000005c   Code   RO          101    i.Set_Angle_Cal_180  steering_engine.o
    0x08003b78   0x08003b78   0x0000006c   Code   RO          103    i.Steering_Engine_Angle  steering_engine.o
    0x08003be4   0x08003be4   0x00000018   Code   RO           34    i.SysTick_Handler   sys_time.o
    0x08003bfc   0x08003bfc   0x00000068   Code   RO           35    i.Sys_Watch         sys_time.o
    0x08003c64   0x08003c64   0x00000060   Code   RO          113    i.SystemInit        system_stm32f10x.o
    0x08003cc4   0x08003cc4   0x00000018   Code   RO           25    i.TIM2_IRQHandler   encoder.o
    0x08003cdc   0x08003cdc   0x00000018   Code   RO           26    i.TIM3_IRQHandler   encoder.o
    0x08003cf4   0x08003cf4   0x00000018   Code   RO           27    i.TIM4_IRQHandler   encoder.o
    0x08003d0c   0x08003d0c   0x000000c8   Code   RO           29    i.TIM4_PWM_Init     pwm.o
    0x08003dd4   0x08003dd4   0x00000018   Code   RO           28    i.TIM5_IRQHandler   encoder.o
    0x08003dec   0x08003dec   0x000000dc   Code   RO           30    i.TIM8_PWM_Init     pwm.o
    0x08003ec8   0x08003ec8   0x00000018   Code   RO          464    i.TIM_ARRPreloadConfig  stm32f10x_tim.o
    0x08003ee0   0x08003ee0   0x00000018   Code   RO          476    i.TIM_Cmd           stm32f10x_tim.o
    0x08003ef8   0x08003ef8   0x0000001e   Code   RO          478    i.TIM_CtrlPWMOutputs  stm32f10x_tim.o
    0x08003f16   0x08003f16   0x00000012   Code   RO          501    i.TIM_ITConfig      stm32f10x_tim.o
    0x08003f28   0x08003f28   0x00000098   Code   RO          505    i.TIM_OC1Init       stm32f10x_tim.o
    0x08003fc0   0x08003fc0   0x00000012   Code   RO          508    i.TIM_OC1PreloadConfig  stm32f10x_tim.o
    0x08003fd2   0x08003fd2   0x00000002   PAD
    0x08003fd4   0x08003fd4   0x000000a4   Code   RO          510    i.TIM_OC2Init       stm32f10x_tim.o
    0x08004078   0x08004078   0x0000001a   Code   RO          513    i.TIM_OC2PreloadConfig  stm32f10x_tim.o
    0x08004092   0x08004092   0x00000002   PAD
    0x08004094   0x08004094   0x000000a0   Code   RO          515    i.TIM_OC3Init       stm32f10x_tim.o
    0x08004134   0x08004134   0x00000012   Code   RO          518    i.TIM_OC3PreloadConfig  stm32f10x_tim.o
    0x08004146   0x08004146   0x00000002   PAD
    0x08004148   0x08004148   0x0000007c   Code   RO          520    i.TIM_OC4Init       stm32f10x_tim.o
    0x080041c4   0x080041c4   0x0000001a   Code   RO          522    i.TIM_OC4PreloadConfig  stm32f10x_tim.o
    0x080041de   0x080041de   0x00000004   Code   RO          537    i.TIM_SetCompare1   stm32f10x_tim.o
    0x080041e2   0x080041e2   0x00000004   Code   RO          538    i.TIM_SetCompare2   stm32f10x_tim.o
    0x080041e6   0x080041e6   0x00000004   Code   RO          539    i.TIM_SetCompare3   stm32f10x_tim.o
    0x080041ea   0x080041ea   0x00000006   Code   RO          540    i.TIM_SetCompare4   stm32f10x_tim.o
    0x080041f0   0x080041f0   0x000000a4   Code   RO          547    i.TIM_TimeBaseInit  stm32f10x_tim.o
    0x08004294   0x08004294   0x000000a4   Code   RO          104    i.Tracing_Find      tracing.o
    0x08004338   0x08004338   0x00000060   Code   RO           37    i.UART4_IRQHandler  uart.o
    0x08004398   0x08004398   0x0000005c   Code   RO           38    i.UART5_IRQHandler  uart.o
    0x080043f4   0x080043f4   0x00000370   Code   RO           39    i.UARTx_Init        uart.o
    0x08004764   0x08004764   0x000000bc   Code   RO           40    i.UARTx_Send_Data   uart.o
    0x08004820   0x08004820   0x000000c4   Code   RO           41    i.UARTx_Send_String  uart.o
    0x080048e4   0x080048e4   0x00000064   Code   RO           42    i.USART1_IRQHandler  uart.o
    0x08004948   0x08004948   0x00000060   Code   RO           43    i.USART2_IRQHandler  uart.o
    0x080049a8   0x080049a8   0x00000064   Code   RO           44    i.USART3_IRQHandler  uart.o
    0x08004a0c   0x08004a0c   0x00000012   Code   RO          551    i.USART_ClearFlag   stm32f10x_usart.o
    0x08004a1e   0x08004a1e   0x00000018   Code   RO          555    i.USART_Cmd         stm32f10x_usart.o
    0x08004a36   0x08004a36   0x00000002   PAD
    0x08004a38   0x08004a38   0x0000009c   Code   RO          557    i.USART_DeInit      stm32f10x_usart.o
    0x08004ad4   0x08004ad4   0x0000001a   Code   RO          558    i.USART_GetFlagStatus  stm32f10x_usart.o
    0x08004aee   0x08004aee   0x00000054   Code   RO          559    i.USART_GetITStatus  stm32f10x_usart.o
    0x08004b42   0x08004b42   0x0000004a   Code   RO          561    i.USART_ITConfig    stm32f10x_usart.o
    0x08004b8c   0x08004b8c   0x000000d8   Code   RO          562    i.USART_Init        stm32f10x_usart.o
    0x08004c64   0x08004c64   0x0000000a   Code   RO          569    i.USART_ReceiveData  stm32f10x_usart.o
    0x08004c6e   0x08004c6e   0x00000008   Code   RO          572    i.USART_SendData    stm32f10x_usart.o
    0x08004c76   0x08004c76   0x00000004   Code   RO            8    i.UsageFault_Handler  stm32f10x_it.o
    0x08004c7a   0x08004c7a   0x00000028   Code   RO          706    i.__ARM_fpclassify  m_ws.l(fpclassify.o)
    0x08004ca2   0x08004ca2   0x0000000e   Code   RO          837    i.__mathlib_dbl_overflow  m_ws.l(dunder.o)
    0x08004cb0   0x08004cb0   0x00000010   Code   RO          839    i.__mathlib_dbl_underflow  m_ws.l(dunder.o)
    0x08004cc0   0x08004cc0   0x00000010   Code   RO          776    i.__mathlib_narrow  m_ws.l(narrow.o)
    0x08004cd0   0x08004cd0   0x000000bc   Code   RO          777    i.__mathlib_tofloat  m_ws.l(narrow.o)
    0x08004d8c   0x08004d8c   0x00000016   Code   RO          804    i.__support_ldexp   m_ws.l(ldexp.o)
    0x08004da2   0x08004da2   0x0000000e   Code   RO          606    i._is_digit         c_w.l(__printf_wp.o)
    0x08004db0   0x08004db0   0x0000002a   Code   RO          646    i.atof              m_ws.l(atof.o)
    0x08004dda   0x08004dda   0x00000002   PAD
    0x08004ddc   0x08004ddc   0x00000058   Code   RO          792    i.frexp             m_ws.l(frexp.o)
    0x08004e34   0x08004e34   0x00000074   Code   RO          805    i.ldexp             m_ws.l(ldexp.o)
    0x08004ea8   0x08004ea8   0x00000478   Code   RO           10    i.main              main.o
    0x08005320   0x08005320   0x0000002c   Code   RO          702    locale$$code        c_w.l(lc_numeric_c.o)
    0x0800534c   0x0800534c   0x0000002c   Code   RO          766    locale$$code        c_w.l(lc_ctype_c.o)
    0x08005378   0x08005378   0x00000062   Code   RO          617    x$fpl$d2f           fz_ws.l(d2f.o)
    0x080053da   0x080053da   0x00000002   PAD
    0x080053dc   0x080053dc   0x00000150   Code   RO          618    x$fpl$dadd          fz_ws.l(daddsub_clz.o)
    0x0800552c   0x0800552c   0x00000010   Code   RO          832    x$fpl$dcheck1       fz_ws.l(dcheck1.o)
    0x0800553c   0x0800553c   0x00000018   Code   RO          703    x$fpl$dcmpinf       fz_ws.l(dcmpi.o)
    0x08005554   0x08005554   0x000002b0   Code   RO          622    x$fpl$ddiv          fz_ws.l(ddiv.o)
    0x08005804   0x08005804   0x00000078   Code   RO          790    x$fpl$deqf          fz_ws.l(deqf.o)
    0x0800587c   0x0800587c   0x0000005e   Code   RO          623    x$fpl$dfix          fz_ws.l(dfix.o)
    0x080058da   0x080058da   0x00000026   Code   RO          625    x$fpl$dfltu         fz_ws.l(dflt_clz.o)
    0x08005900   0x08005900   0x00000078   Code   RO          655    x$fpl$dleqf         fz_ws.l(dleqf.o)
    0x08005978   0x08005978   0x00000154   Code   RO          628    x$fpl$dmul          fz_ws.l(dmul.o)
    0x08005acc   0x08005acc   0x0000009c   Code   RO          656    x$fpl$dnaninf       fz_ws.l(dnaninf.o)
    0x08005b68   0x08005b68   0x0000000c   Code   RO          657    x$fpl$dretinf       fz_ws.l(dretinf.o)
    0x08005b74   0x08005b74   0x0000006c   Code   RO          629    x$fpl$drleqf        fz_ws.l(drleqf.o)
    0x08005be0   0x08005be0   0x00000016   Code   RO          619    x$fpl$drsb          fz_ws.l(daddsub_clz.o)
    0x08005bf6   0x08005bf6   0x00000002   PAD
    0x08005bf8   0x08005bf8   0x000001d4   Code   RO          620    x$fpl$dsub          fz_ws.l(daddsub_clz.o)
    0x08005dcc   0x08005dcc   0x00000056   Code   RO          630    x$fpl$f2d           fz_ws.l(f2d.o)
    0x08005e22   0x08005e22   0x00000002   PAD
    0x08005e24   0x08005e24   0x000000c4   Code   RO          631    x$fpl$fadd          fz_ws.l(faddsub_clz.o)
    0x08005ee8   0x08005ee8   0x00000018   Code   RO          658    x$fpl$fcmpinf       fz_ws.l(fcmpi.o)
    0x08005f00   0x08005f00   0x00000184   Code   RO          635    x$fpl$fdiv          fz_ws.l(fdiv.o)
    0x08006084   0x08006084   0x0000003e   Code   RO          636    x$fpl$ffixu         fz_ws.l(ffixu.o)
    0x080060c2   0x080060c2   0x00000002   PAD
    0x080060c4   0x080060c4   0x00000026   Code   RO          638    x$fpl$ffltu         fz_ws.l(fflt_clz.o)
    0x080060ea   0x080060ea   0x00000002   PAD
    0x080060ec   0x080060ec   0x00000068   Code   RO          641    x$fpl$fleqf         fz_ws.l(fleqf.o)
    0x08006154   0x08006154   0x00000102   Code   RO          642    x$fpl$fmul          fz_ws.l(fmul.o)
    0x08006256   0x08006256   0x0000008c   Code   RO          659    x$fpl$fnaninf       fz_ws.l(fnaninf.o)
    0x080062e2   0x080062e2   0x0000000a   Code   RO          660    x$fpl$fretinf       fz_ws.l(fretinf.o)
    0x080062ec   0x080062ec   0x00000062   Code   RO          643    x$fpl$frleqf        fz_ws.l(frleqf.o)
    0x0800634e   0x0800634e   0x00000002   PAD
    0x08006350   0x08006350   0x000000ea   Code   RO          633    x$fpl$fsub          fz_ws.l(faddsub_clz.o)
    0x0800643a   0x0800643a   0x00000006   Code   RO          704    x$fpl$ieeestatus    fz_ws.l(istatus.o)
    0x08006440   0x08006440   0x00000004   Code   RO          644    x$fpl$printf1       fz_ws.l(printf1.o)
    0x08006444   0x08006444   0x00000064   Code   RO          843    x$fpl$retnan        fz_ws.l(retnan.o)
    0x080064a8   0x080064a8   0x0000005c   Code   RO          802    x$fpl$scalbn        fz_ws.l(scalbn.o)
    0x08006504   0x08006504   0x00000004   Code   RO          705    x$fpl$scanf1        fz_ws.l(scanf1.o)
    0x08006508   0x08006508   0x00000008   Code   RO          773    x$fpl$scanf2        fz_ws.l(scanf2.o)
    0x08006510   0x08006510   0x00000030   Code   RO          846    x$fpl$trapveneer    fz_ws.l(trapv.o)
    0x08006540   0x08006540   0x00000000   Code   RO          661    x$fpl$usenofp       fz_ws.l(usenofp.o)
    0x08006540   0x08006540   0x00001c20   Data   RO           12    .constdata          main.o
    0x08008160   0x08008160   0x0000337c   Data   RO           92    .constdata          lcd.o
    0x0800b4dc   0x0800b4dc   0x00000094   Data   RO          689    .constdata          c_w.l(bigflt0.o)
    0x0800b570   0x0800b570   0x00000020   Data   RO          855    Region$$Table       anon$$obj.o
    0x0800b590   0x0800b590   0x00000008   Data   RO          768    c$$dinf             fz_ws.l(fpconst.o)
    0x0800b598   0x0800b598   0x00000008   Data   RO          771    c$$dmax             fz_ws.l(fpconst.o)
    0x0800b5a0   0x0800b5a0   0x0000001c   Data   RO          701    locale$$data        c_w.l(lc_numeric_c.o)
    0x0800b5bc   0x0800b5bc   0x00000110   Data   RO          765    locale$$data        c_w.l(lc_ctype_c.o)


    Execution Region RW_IRAM1 (Exec base: 0x20000000, Load base: 0x0800b6cc, Size: 0x00000b90, Max: 0x0000c000, ABSOLUTE)

    Exec Addr    Load Addr    Size         Type   Attr      Idx    E Section Name        Object

    0x20000000   0x0800b6cc   0x00000020   Data   RW           13    .data               main.o
    0x20000020   0x0800b6ec   0x00000010   Data   RW           36    .data               sys_time.o
    0x20000030   0x0800b6fc   0x00000006   Data   RW          106    .data               tracing.o
    0x20000036   0x0800b702   0x00000002   PAD
    0x20000038   0x0800b704   0x00000014   Data   RW          114    .data               system_stm32f10x.o
    0x2000004c   0x0800b718   0x00000014   Data   RW          392    .data               stm32f10x_rcc.o
    0x20000060        -       0x00000020   Zero   RW           11    .bss                main.o
    0x20000080        -       0x00000014   Zero   RW           17    .bss                data_handle.o
    0x20000094        -       0x0000009c   Zero   RW           45    .bss                uart.o
    0x20000130        -       0x00000400   Zero   RW           54    .bss                stmflash.o
    0x20000530        -       0x00000060   Zero   RW          708    .bss                c_w.l(libspace.o)
    0x20000590        -       0x00000200   Zero   RW          589    HEAP                startup_stm32f10x_hd.o
    0x20000790        -       0x00000400   Zero   RW          588    STACK               startup_stm32f10x_hd.o


==============================================================================

Image component sizes


      Code (inc. data)   RO Data    RW Data    ZI Data      Debug   Object Name

       444         40          0          0          0          0   adc.o
        80         10          0          0          0          0   bzz.o
       260         10          0          0          0          0   dac.o
       164          8          0          0         20          0   data_handle.o
        96         18          0          0          0          0   encoder.o
       458         28          0          0          0          0   iic.o
        40          6          0          0          0          0   key.o
      1368         54      13180          0          0          0   lcd.o
      1656        298       7200         32         32          0   main.o
       132         22          0          0          0          0   misc.o
       440         14          0          0          0          0   mlx90614.o
       732         34          0          0          0          0   motor.o
       420         20          0          0          0          0   pwm.o
        64         26        304          0       1536          0   startup_stm32f10x_hd.o
       380         50          0          0          0          0   steering_engine.o
       428         16          0          0          0          0   stm32f10x_adc.o
       156         24          0          0          0          0   stm32f10x_dac.o
       274         30          0          0          0          0   stm32f10x_flash.o
       448          6          0          0          0          0   stm32f10x_gpio.o
        24          0          0          0          0          0   stm32f10x_it.o
       364         50          0         20          0          0   stm32f10x_rcc.o
       966         92          0          0          0          0   stm32f10x_tim.o
       616         28          0          0          0          0   stm32f10x_usart.o
       310         10          0          0       1024          0   stmflash.o
       188         24          0         16          0          0   sys_time.o
       328         28          0         20          0          0   system_stm32f10x.o
       164         16          0          6          0          0   tracing.o
      1748        140          0          0        156          0   uart.o

    ----------------------------------------------------------------------
     12770       1102      20716         96       2768          0   Object Totals
         0          0         32          0          0          0   (incl. Generated)
        22          0          0          2          0          0   (incl. Padding)

    ----------------------------------------------------------------------

      Code (inc. data)   RO Data    RW Data    ZI Data      Debug   Library Member Name

         8          0          0          0          0          0   __main.o
       284          0          0          0          0          0   __printf_wp.o
         0          0          0          0          0          0   __rtentry.o
        12          0          0          0          0          0   __rtentry2.o
         6          0          0          0          0          0   __rtentry4.o
        52          8          0          0          0          0   __scatter.o
        26          0          0          0          0          0   __scatter_copy.o
        28          0          0          0          0          0   __scatter_zi.o
        28          0          0          0          0          0   _chval.o
        48          6          0          0          0          0   _printf_char_common.o
         6          0          0          0          0          0   _printf_d.o
       120         16          0          0          0          0   _printf_dec.o
         6          0          0          0          0          0   _printf_f.o
      1054          0          0          0          0          0   _printf_fp_dec.o
       128         16          0          0          0          0   _printf_fp_infnan.o
       178          0          0          0          0          0   _printf_intcommon.o
        78          0          0          0          0          0   _printf_pad.o
         0          0          0          0          0          0   _printf_percent.o
         4          0          0          0          0          0   _printf_percent_end.o
        22          0          0          0          0          0   _rserrno.o
        64          0          0          0          0          0   _sgetc.o
        10          0          0          0          0          0   _sputc.o
       228          4        148          0          0          0   bigflt0.o
      2152        136          0          0          0          0   btod.o
        18          0          0          0          0          0   exit.o
         6          0          0          0          0          0   heapauxi.o
         0          0          0          0          0          0   indicate_semi.o
        18          0          0          0          0          0   isspace.o
        44         10        272          0          0          0   lc_ctype_c.o
        44         10         28          0          0          0   lc_numeric_c.o
         2          0          0          0          0          0   libinit.o
        30          0          0          0          0          0   libinit2.o
         2          0          0          0          0          0   libshutdown.o
         2          0          0          0          0          0   libshutdown2.o
         8          4          0          0         96          0   libspace.o
        38          0          0          0          0          0   llshl.o
       138          0          0          0          0          0   lludiv10.o
        40          6          0          0          0          0   noretval__2sprintf.o
        16          4          0          0          0          0   rt_ctype_table.o
         8          4          0          0          0          0   rt_errno_addr_intlibspace.o
         8          4          0          0          0          0   rt_locale_intlibspace.o
         2          0          0          0          0          0   rtexit.o
        10          0          0          0          0          0   rtexit2.o
      1272         16          0          0          0          0   scanf_fp.o
       800         14          0          0          0          0   scanf_hexfp.o
       308         16          0          0          0          0   scanf_infnan.o
       128          0          0          0          0          0   strcmpv7m.o
       164         14          0          0          0          0   strtod.o
        12          4          0          0          0          0   sys_exit.o
        74          0          0          0          0          0   sys_stackheap_outer.o
         2          0          0          0          0          0   use_no_semi.o
        98          4          0          0          0          0   d2f.o
       826         16          0          0          0          0   daddsub_clz.o
        16          4          0          0          0          0   dcheck1.o
        24          0          0          0          0          0   dcmpi.o
       688        140          0          0          0          0   ddiv.o
       120          4          0          0          0          0   deqf.o
        94          4          0          0          0          0   dfix.o
        38          0          0          0          0          0   dflt_clz.o
       120          4          0          0          0          0   dleqf.o
       340         12          0          0          0          0   dmul.o
       156          4          0          0          0          0   dnaninf.o
        12          0          0          0          0          0   dretinf.o
       108          0          0          0          0          0   drleqf.o
        86          4          0          0          0          0   f2d.o
       430          8          0          0          0          0   faddsub_clz.o
        24          0          0          0          0          0   fcmpi.o
       388         76          0          0          0          0   fdiv.o
        62          4          0          0          0          0   ffixu.o
        38          0          0          0          0          0   fflt_clz.o
       104          4          0          0          0          0   fleqf.o
       258          4          0          0          0          0   fmul.o
       140          4          0          0          0          0   fnaninf.o
         0          0         16          0          0          0   fpconst.o
        10          0          0          0          0          0   fretinf.o
        98          0          0          0          0          0   frleqf.o
         6          0          0          0          0          0   istatus.o
         4          0          0          0          0          0   printf1.o
       100          0          0          0          0          0   retnan.o
        92          0          0          0          0          0   scalbn.o
         4          0          0          0          0          0   scanf1.o
         8          0          0          0          0          0   scanf2.o
        48          0          0          0          0          0   trapv.o
         0          0          0          0          0          0   usenofp.o
        42          0          0          0          0          0   atof.o
        30          6          0          0          0          0   dunder.o
        40          0          0          0          0          0   fpclassify.o
        88          8          0          0          0          0   frexp.o
       138          0          0          0          0          0   ldexp.o
       204          4          0          0          0          0   narrow.o

    ----------------------------------------------------------------------
     12846        606        464          0         96          0   Library Totals
        28          0          0          0          0          0   (incl. Padding)

    ----------------------------------------------------------------------

      Code (inc. data)   RO Data    RW Data    ZI Data      Debug   Library Name

      7736        292        448          0         96          0   c_w.l
      4540        296         16          0          0          0   fz_ws.l
       542         18          0          0          0          0   m_ws.l

    ----------------------------------------------------------------------
     12846        606        464          0         96          0   Library Totals

    ----------------------------------------------------------------------

==============================================================================


      Code (inc. data)   RO Data    RW Data    ZI Data      Debug   

     25616       1708      21180         96       2864          0   Grand Totals
     25616       1708      21180         96       2864          0   ELF Image Totals
     25616       1708      21180         96          0          0   ROM Totals

==============================================================================

    Total RO  Size (Code + RO Data)                46796 (  45.70kB)
    Total RW  Size (RW Data + ZI Data)              2960 (   2.89kB)
    Total ROM Size (Code + RO Data + RW Data)      46892 (  45.79kB)

==============================================================================

